{
  "_format": "hh-sol-artifact-1",
  "contractName": "FarmerWorld",
  "sourceName": "contracts/FarmerWorld.sol",
  "abi": [
    {
      "inputs": [
        {
          "internalType": "address",
          "name": "_foodToken",
          "type": "address"
        },
        {
          "internalType": "address",
          "name": "_goldToken",
          "type": "address"
        },
        {
          "internalType": "address",
          "name": "_woodToken",
          "type": "address"
        },
        {
          "internalType": "address",
          "name": "_owner",
          "type": "address"
        }
      ],
      "stateMutability": "nonpayable",
      "type": "constructor"
    },
    {
      "inputs": [
        {
          "internalType": "address",
          "name": "user",
          "type": "address"
        },
        {
          "internalType": "uint256",
          "name": "goldAmount",
          "type": "uint256"
        }
      ],
      "name": "buyEnergy",
      "outputs": [],
      "stateMutability": "nonpayable",
      "type": "function"
    },
    {
      "inputs": [
        {
          "internalType": "address",
          "name": "contractCallers",
          "type": "address"
        }
      ],
      "name": "contractCallers",
      "outputs": [
        {
          "internalType": "bool",
          "name": "",
          "type": "bool"
        }
      ],
      "stateMutability": "view",
      "type": "function"
    },
    {
      "inputs": [
        {
          "internalType": "contract ITools",
          "name": "_toolContract",
          "type": "address"
        },
        {
          "internalType": "uint256",
          "name": "_toolLvl",
          "type": "uint256"
        }
      ],
      "name": "craft",
      "outputs": [],
      "stateMutability": "nonpayable",
      "type": "function"
    },
    {
      "inputs": [
        {
          "internalType": "contract ITools",
          "name": "_toolContract",
          "type": "address"
        },
        {
          "internalType": "uint256",
          "name": "id",
          "type": "uint256"
        },
        {
          "internalType": "address",
          "name": "user",
          "type": "address"
        }
      ],
      "name": "deleteTool",
      "outputs": [],
      "stateMutability": "nonpayable",
      "type": "function"
    },
    {
      "inputs": [
        {
          "components": [
            {
              "components": [
                {
                  "internalType": "address",
                  "name": "token",
                  "type": "address"
                },
                {
                  "internalType": "uint256",
                  "name": "amount",
                  "type": "uint256"
                }
              ],
              "internalType": "struct ISignatureTransfer.TokenPermissions",
              "name": "permitted",
              "type": "tuple"
            },
            {
              "internalType": "uint256",
              "name": "nonce",
              "type": "uint256"
            },
            {
              "internalType": "uint256",
              "name": "deadline",
              "type": "uint256"
            }
          ],
          "internalType": "struct ISignatureTransfer.PermitTransferFrom",
          "name": "permit",
          "type": "tuple"
        },
        {
          "components": [
            {
              "internalType": "address",
              "name": "to",
              "type": "address"
            },
            {
              "internalType": "uint256",
              "name": "requestedAmount",
              "type": "uint256"
            }
          ],
          "internalType": "struct ISignatureTransfer.SignatureTransferDetails",
          "name": "transferDetails",
          "type": "tuple"
        },
        {
          "internalType": "bytes",
          "name": "signature",
          "type": "bytes"
        }
      ],
      "name": "deposit",
      "outputs": [],
      "stateMutability": "nonpayable",
      "type": "function"
    },
    {
      "inputs": [
        {
          "internalType": "uint256",
          "name": "_foodToEnergy",
          "type": "uint256"
        },
        {
          "internalType": "uint256",
          "name": "_goldToEndurance",
          "type": "uint256"
        }
      ],
      "name": "editGameTokenRelation",
      "outputs": [],
      "stateMutability": "nonpayable",
      "type": "function"
    },
    {
      "inputs": [
        {
          "internalType": "address",
          "name": "user",
          "type": "address"
        },
        {
          "internalType": "uint256",
          "name": "woodBalance",
          "type": "uint256"
        },
        {
          "internalType": "uint256",
          "name": "goldBalance",
          "type": "uint256"
        },
        {
          "internalType": "uint256",
          "name": "foodBalance",
          "type": "uint256"
        },
        {
          "internalType": "uint256",
          "name": "energy",
          "type": "uint256"
        },
        {
          "internalType": "uint256",
          "name": "maxEnergy",
          "type": "uint256"
        }
      ],
      "name": "editUser",
      "outputs": [],
      "stateMutability": "nonpayable",
      "type": "function"
    },
    {
      "inputs": [
        {
          "internalType": "contract ITools",
          "name": "_toolContract",
          "type": "address"
        },
        {
          "internalType": "address",
          "name": "user",
          "type": "address"
        },
        {
          "internalType": "uint256",
          "name": "id",
          "type": "uint256"
        },
        {
          "internalType": "uint256",
          "name": "lvl",
          "type": "uint256"
        },
        {
          "internalType": "uint256",
          "name": "durability",
          "type": "uint256"
        },
        {
          "internalType": "uint256",
          "name": "lastHarvest",
          "type": "uint256"
        }
      ],
      "name": "editUserTool",
      "outputs": [],
      "stateMutability": "nonpayable",
      "type": "function"
    },
    {
      "inputs": [],
      "name": "foodToken",
      "outputs": [
        {
          "internalType": "contract IERC20",
          "name": "",
          "type": "address"
        }
      ],
      "stateMutability": "view",
      "type": "function"
    },
    {
      "inputs": [],
      "name": "foodTools",
      "outputs": [
        {
          "internalType": "contract ITools",
          "name": "",
          "type": "address"
        }
      ],
      "stateMutability": "view",
      "type": "function"
    },
    {
      "inputs": [
        {
          "internalType": "uint256",
          "name": "option",
          "type": "uint256"
        }
      ],
      "name": "freeClaim",
      "outputs": [],
      "stateMutability": "nonpayable",
      "type": "function"
    },
    {
      "inputs": [],
      "name": "goldToken",
      "outputs": [
        {
          "internalType": "contract IERC20",
          "name": "",
          "type": "address"
        }
      ],
      "stateMutability": "view",
      "type": "function"
    },
    {
      "inputs": [],
      "name": "goldTools",
      "outputs": [
        {
          "internalType": "contract ITools",
          "name": "",
          "type": "address"
        }
      ],
      "stateMutability": "view",
      "type": "function"
    },
    {
      "inputs": [
        {
          "internalType": "contract ITools",
          "name": "_toolContract",
          "type": "address"
        },
        {
          "internalType": "uint256",
          "name": "id",
          "type": "uint256"
        }
      ],
      "name": "harvest",
      "outputs": [],
      "stateMutability": "nonpayable",
      "type": "function"
    },
    {
      "inputs": [],
      "name": "owner",
      "outputs": [
        {
          "internalType": "address",
          "name": "",
          "type": "address"
        }
      ],
      "stateMutability": "view",
      "type": "function"
    },
    {
      "inputs": [],
      "name": "permit2",
      "outputs": [
        {
          "internalType": "contract ISignatureTransfer",
          "name": "",
          "type": "address"
        }
      ],
      "stateMutability": "view",
      "type": "function"
    },
    {
      "inputs": [
        {
          "internalType": "contract ITools",
          "name": "_toolContract",
          "type": "address"
        },
        {
          "internalType": "uint256",
          "name": "id",
          "type": "uint256"
        },
        {
          "components": [
            {
              "components": [
                {
                  "internalType": "address",
                  "name": "token",
                  "type": "address"
                },
                {
                  "internalType": "uint256",
                  "name": "amount",
                  "type": "uint256"
                }
              ],
              "internalType": "struct ISignatureTransfer.TokenPermissions",
              "name": "permitted",
              "type": "tuple"
            },
            {
              "internalType": "uint256",
              "name": "nonce",
              "type": "uint256"
            },
            {
              "internalType": "uint256",
              "name": "deadline",
              "type": "uint256"
            }
          ],
          "internalType": "struct ISignatureTransfer.PermitTransferFrom",
          "name": "permit",
          "type": "tuple"
        },
        {
          "components": [
            {
              "internalType": "address",
              "name": "to",
              "type": "address"
            },
            {
              "internalType": "uint256",
              "name": "requestedAmount",
              "type": "uint256"
            }
          ],
          "internalType": "struct ISignatureTransfer.SignatureTransferDetails",
          "name": "transferDetails",
          "type": "tuple"
        },
        {
          "internalType": "bytes",
          "name": "signature",
          "type": "bytes"
        }
      ],
      "name": "repair",
      "outputs": [],
      "stateMutability": "nonpayable",
      "type": "function"
    },
    {
      "inputs": [
        {
          "internalType": "address",
          "name": "_contractCaller",
          "type": "address"
        }
      ],
      "name": "setContractCaller",
      "outputs": [],
      "stateMutability": "nonpayable",
      "type": "function"
    },
    {
      "inputs": [
        {
          "internalType": "address",
          "name": "_owner",
          "type": "address"
        }
      ],
      "name": "setOwner",
      "outputs": [],
      "stateMutability": "nonpayable",
      "type": "function"
    },
    {
      "inputs": [
        {
          "internalType": "address",
          "name": "_woodTools",
          "type": "address"
        },
        {
          "internalType": "address",
          "name": "_goldTools",
          "type": "address"
        },
        {
          "internalType": "address",
          "name": "_foodTools",
          "type": "address"
        }
      ],
      "name": "setTools",
      "outputs": [],
      "stateMutability": "nonpayable",
      "type": "function"
    },
    {
      "inputs": [],
      "name": "tokenRelation",
      "outputs": [
        {
          "internalType": "uint256",
          "name": "foodToEnergy",
          "type": "uint256"
        },
        {
          "internalType": "uint256",
          "name": "goldToEndurance",
          "type": "uint256"
        }
      ],
      "stateMutability": "view",
      "type": "function"
    },
    {
      "inputs": [
        {
          "internalType": "address",
          "name": "user",
          "type": "address"
        }
      ],
      "name": "users",
      "outputs": [
        {
          "internalType": "uint256",
          "name": "woodBalance",
          "type": "uint256"
        },
        {
          "internalType": "uint256",
          "name": "goldBalance",
          "type": "uint256"
        },
        {
          "internalType": "uint256",
          "name": "foodBalance",
          "type": "uint256"
        },
        {
          "internalType": "uint256",
          "name": "energy",
          "type": "uint256"
        },
        {
          "internalType": "uint256",
          "name": "maxEnergy",
          "type": "uint256"
        },
        {
          "internalType": "bool",
          "name": "freeClaimed",
          "type": "bool"
        }
      ],
      "stateMutability": "view",
      "type": "function"
    },
    {
      "inputs": [],
      "name": "woodToken",
      "outputs": [
        {
          "internalType": "contract IERC20",
          "name": "",
          "type": "address"
        }
      ],
      "stateMutability": "view",
      "type": "function"
    },
    {
      "inputs": [],
      "name": "woodTools",
      "outputs": [
        {
          "internalType": "contract ITools",
          "name": "",
          "type": "address"
        }
      ],
      "stateMutability": "view",
      "type": "function"
    }
  ],
  "bytecode": "0x6080604052600080546001600160a01b0319166e22d473030f116ddee9f6b43ac78ba317905534801561003157600080fd5b506040516120b73803806120b7833981016040819052610050916100d7565b600480546001600160a01b03199081166001600160a01b0396871617909155600580548216948616949094179093556006805484169285169290921790915560078054909216921691821790556000908152600b60205260409020805460ff1916600117905561012b565b80516001600160a01b03811681146100d257600080fd5b919050565b600080600080608085870312156100ed57600080fd5b6100f6856100bb565b9350610104602086016100bb565b9250610112604086016100bb565b9150610120606086016100bb565b905092959194509250565b611f7d8061013a6000396000f3fe608060405234801561001057600080fd5b50600436106101585760003560e01c80638da5cb5b116100c3578063c1d942c11161007c578063c1d942c114610364578063d160aa0d14610377578063e7dd114a1461038a578063e864fd191461039d578063eaaa43e5146103b0578063f5d9676f146103c357600080fd5b80638da5cb5b1461029057806394002b57146102a35780639ba99eff146102b6578063a459a8f3146102c9578063a74af87a146102dc578063a87430ba146102ef57600080fd5b80632ddd99e4116101155780632ddd99e4146101fe57806336fd7e1b146102115780636cdc3c42146102245780637cde55aa14610237578063856a8ace1461024a5780638c0022dd1461027d57600080fd5b8063018ee9b71461015d57806312261ee71461017257806312eb9a6a146101a2578063132ec064146101b557806313af4035146101d85780632a94a9c8146101eb575b600080fd5b61017061016b3660046118c8565b6103d6565b005b600054610185906001600160a01b031681565b6040516001600160a01b0390911681526020015b60405180910390f35b600354610185906001600160a01b031681565b6008546009546101c3919082565b60408051928352602083019190915201610199565b6101706101e63660046118f4565b6108b3565b6101706101f93660046118f4565b61092f565b61017061020c366004611918565b6109b8565b61017061021f3660046118c8565b610a3c565b600454610185906001600160a01b031681565b61017061024536600461193a565b610b42565b61026d6102583660046118f4565b600b6020526000908152604090205460ff1681565b6040519015158152602001610199565b61017061028b366004611986565b610c3b565b600754610185906001600160a01b031681565b600554610185906001600160a01b031681565b600154610185906001600160a01b031681565b6101706102d73660046119d1565b610cd4565b6101706102ea366004611a08565b610f00565b6103356102fd3660046118f4565b600a60205260009081526040902080546001820154600283015460038401546004850154600590950154939492939192909160ff1686565b6040805196875260208701959095529385019290925260608401526080830152151560a082015260c001610199565b6101706103723660046118c8565b6110da565b610170610385366004611b52565b61126f565b600254610185906001600160a01b031681565b6101706103ab366004611bd7565b6115c8565b6101706103be366004611c30565b6116a5565b600654610185906001600160a01b031681565b60405163acd50aa160e01b8152336004820152602481018290526000906001600160a01b0384169063acd50aa190604401606060405180830381865afa158015610424573d6000803e3d6000fd5b505050506040513d601f19601f820116820180604052508101906104489190611c93565b805160405163bc60c31d60e01b815260048101919091529091506000906001600160a01b0385169063bc60c31d9060240160a060405180830381865afa158015610496573d6000803e3d6000fd5b505050506040513d601f19601f820116820180604052508101906104ba9190611ce7565b82519091506000036105045760405162461bcd60e51b815260206004820152600e60248201526d151bdbdb081b9bdd08199bdd5b9960921b60448201526064015b60405180910390fd5b806040015161ffff16826020015110156105515760405162461bcd60e51b815260206004820152600e60248201526d2a37b7b61034b990313937b5b2b760911b60448201526064016104fb565b836001600160a01b031663609738a733858560000151856040015161ffff16876020015161057f9190611da3565b426040518663ffffffff1660e01b81526004016105a0959493929190611dbc565b600060405180830381600087803b1580156105ba57600080fd5b505af11580156105ce573d6000803e3d6000fd5b50505050806040015161ffff168260200151036105f0576105f0848433610cd4565b815160405163bc60c31d60e01b81526000916001600160a01b0387169163bc60c31d916106239160040190815260200190565b60a060405180830381865afa158015610640573d6000803e3d6000fd5b505050506040513d601f19601f820116820180604052508101906106649190611ce7565b51336000908152600a602052604090206003015461ffff90911691508111156106c35760405162461bcd60e51b81526020600482015260116024820152704e6f7420656e6f75676820656e6572677960781b60448201526064016104fb565b336000908152600a6020526040812060030180548392906106e5908490611da3565b909155505060408301516000906106fc9042611da3565b606084015190915063ffffffff16600081831061071e5750608084015161073c565b8183866080015161072f9190611dea565b6107399190611e01565b90505b6001546001600160a01b03908116908916036107ce5760065460405163a9059cbb60e01b8152336004820152602481018390526001600160a01b039091169063a9059cbb906044015b6020604051808303816000875af11580156107a4573d6000803e3d6000fd5b505050506040513d601f19601f820116820180604052508101906107c89190611e23565b506108a9565b6002546001600160a01b039081169089160361081b5760055460405163a9059cbb60e01b8152336004820152602481018390526001600160a01b039091169063a9059cbb90604401610785565b6003546001600160a01b03908116908916036108a9576004805460405163a9059cbb60e01b81523392810192909252602482018390526001600160a01b03169063a9059cbb906044016020604051808303816000875af1158015610883573d6000803e3d6000fd5b505050506040513d601f19601f820116820180604052508101906108a79190611e23565b505b5050505050505050565b6007546001600160a01b0316331461090d5760405162461bcd60e51b815260206004820152601860248201527f4f6e6c79206f776e65722063616e20736574206f776e6572000000000000000060448201526064016104fb565b600780546001600160a01b0319166001600160a01b0392909216919091179055565b6007546001600160a01b031633146109945760405162461bcd60e51b815260206004820152602260248201527f4f6e6c79206f776e65722063616e2073657420636f6e74726163742063616c6c60448201526132b960f11b60648201526084016104fb565b6001600160a01b03166000908152600b60205260409020805460ff19166001179055565b336000908152600b602052604090205460ff16610a315760405162461bcd60e51b815260206004820152603160248201527f4f6e6c7920636f6e74726163742063616c6c65722063616e206564697420676160448201527036b2903a37b5b2b7103932b630ba34b7b760791b60648201526084016104fb565b600891909155600955565b6001600160a01b0382166000908152600a6020526040902060010154811115610a995760405162461bcd60e51b815260206004820152600f60248201526e139bdd08195b9bdd59da0819dbdb19608a1b60448201526064016104fb565b600854600090610aa99083611dea565b6001600160a01b0384166000908152600a6020526040902060040154909150808211610ad55781610ad7565b805b6001600160a01b0385166000908152600a6020526040812060030180549294508492909190610b07908490611e45565b90915550506001600160a01b0384166000908152600a602052604081206001018054859290610b37908490611da3565b909155505050505050565b336000908152600b602052604090205460ff16610bac5760405162461bcd60e51b815260206004820152602260248201527f4f6e6c7920636f6e74726163742063616c6c65722063616e206564697420757360448201526132b960f11b60648201526084016104fb565b6001600160a01b039095166000818152600a60208181526040808420600581018054835160c0810185529b8c528b85019a8b52928b0198895260608b0197885260808b019b8c5260ff8316151560a08c0190815296909552929091529651815594516001860155925160028501559051600384015593516004909201919091559151151560ff19909116179055565b6007546001600160a01b03163314610c955760405162461bcd60e51b815260206004820152601860248201527f4f6e6c79206f776e65722063616e2073657420746f6f6c73000000000000000060448201526064016104fb565b600180546001600160a01b039485166001600160a01b031991821617909155600280549385169382169390931790925560038054919093169116179055565b60405163298d4b4560e21b81526001600160a01b0382811660048301526000919085169063a6352d1490602401602060405180830381865afa158015610d1e573d6000803e3d6000fd5b505050506040513d601f19601f82011682018060405250810190610d429190611e58565b9050808310610d855760405162461bcd60e51b815260206004820152600f60248201526e125b9d985b1a59081d1bdbdb081251608a1b60448201526064016104fb565b610d90600182611da3565b831015610e925760006001600160a01b03851663acd50aa184610db4600186611da3565b6040516001600160e01b031960e085901b1681526001600160a01b0390921660048301526024820152604401606060405180830381865afa158015610dfd573d6000803e3d6000fd5b505050506040513d601f19601f82011682018060405250810190610e219190611c93565b80516020820151604080840151905163609738a760e01b81529394506001600160a01b0389169363609738a793610e5e9389938b93600401611dbc565b600060405180830381600087803b158015610e7857600080fd5b505af1158015610e8c573d6000803e3d6000fd5b50505050505b6001600160a01b03841663609738a783610ead600185611da3565b60008060006040518663ffffffff1660e01b8152600401610ed2959493929190611dbc565b600060405180830381600087803b158015610eec57600080fd5b505af11580156108a9573d6000803e3d6000fd5b336000908152600a602052604090206005015460ff1615610f635760405162461bcd60e51b815260206004820152601a60248201527f4672656520636c61696d20616c726561647920636c61696d656400000000000060448201526064016104fb565b604051632bc91fed60e01b81523360048201819052600091632bc91fed90602401602060405180830381865afa158015610fa1573d6000803e3d6000fd5b505050506040513d601f19601f82011682018060405250810190610fc59190611e58565b116110095760405162461bcd60e51b81526020600482015260146024820152731059191c995cdcc81b9bdd081d995c9a599a595960621b60448201526064016104fb565b336000908152600a6020526040902060058101805460ff19166001179055600481015460039091015580156110a057600180546040516362bc227560e01b815233600482015260248101929092526001600160a01b0316906362bc2275906044015b600060405180830381600087803b15801561108557600080fd5b505af1158015611099573d6000803e3d6000fd5b5050505050565b6003546040516362bc227560e01b8152336004820152600160248201526001600160a01b03909116906362bc22759060440161106b565b50565b6040516319a5289160e21b81526004810182905260009081906001600160a01b03851690636694a244906024016040805180830381865afa158015611123573d6000803e3d6000fd5b505050506040513d601f19601f820116820180604052508101906111479190611e71565b336000908152600a6020526040902054919350915082111561119d5760405162461bcd60e51b815260206004820152600f60248201526e139bdd08195b9bdd59da081ddbdbd9608a1b60448201526064016104fb565b336000908152600a60205260409020600101548111156111f15760405162461bcd60e51b815260206004820152600f60248201526e139bdd08195b9bdd59da0819dbdb19608a1b60448201526064016104fb565b336000908152600a602052604081208054849290611210908490611da3565b9091555050336000908152600a602052604081206001018054839290611237908490611da3565b90915550506040516362bc227560e01b8152336004820152602481018490526001600160a01b038516906362bc227590604401610ed2565b8351516020840135806112c45760405162461bcd60e51b815260206004820152601d60248201527f416d6f756e74206d7573742062652067726561746572207468616e203000000060448201526064016104fb565b306112d260208701876118f4565b6001600160a01b03161461131d5760405162461bcd60e51b8152602060048201526012602482015271496e76616c696420746f206164647265737360701b60448201526064016104fb565b6005546001600160a01b0383811691161461137a5760405162461bcd60e51b815260206004820152601c60248201527f4f6e6c7920676f6c6420746f6b656e20697320737570706f727465640000000060448201526064016104fb565b60005460405163187945bd60e11b81526001600160a01b03909116906330f28b7a906113b2908990899033908a908a90600401611ebe565b600060405180830381600087803b1580156113cc57600080fd5b505af11580156113e0573d6000803e3d6000fd5b505060405163acd50aa160e01b8152336004820152602481018a9052600092506001600160a01b038b16915063acd50aa190604401606060405180830381865afa158015611432573d6000803e3d6000fd5b505050506040513d601f19601f820116820180604052508101906114569190611c93565b805160405163bc60c31d60e01b815260048101919091529091506000906001600160a01b038b169063bc60c31d9060240160a060405180830381865afa1580156114a4573d6000803e3d6000fd5b505050506040513d601f19601f820116820180604052508101906114c89190611ce7565b825190915060000361150d5760405162461bcd60e51b815260206004820152600e60248201526d151bdbdb081b9bdd08199bdd5b9960921b60448201526064016104fb565b60095460009061151d9085611dea565b90506000826020015161ffff169050600082856020015161153e9190611e45565b90508181111561154b5750805b8c6001600160a01b031663609738a7338e8860000151858a604001516040518663ffffffff1660e01b8152600401611587959493929190611dbc565b600060405180830381600087803b1580156115a157600080fd5b505af11580156115b5573d6000803e3d6000fd5b5050505050505050505050505050505050565b336000908152600b602052604090205460ff166116375760405162461bcd60e51b815260206004820152602760248201527f4f6e6c7920636f6e74726163742063616c6c65722063616e2065646974207573604482015266195c881d1bdbdb60ca1b60648201526084016104fb565b60405163609738a760e01b81526001600160a01b0387169063609738a79061166b9088908890889088908890600401611dbc565b600060405180830381600087803b15801561168557600080fd5b505af1158015611699573d6000803e3d6000fd5b50505050505050505050565b8351516020840135806116fa5760405162461bcd60e51b815260206004820152601d60248201527f416d6f756e74206d7573742062652067726561746572207468616e203000000060448201526064016104fb565b3061170860208701876118f4565b6001600160a01b0316146117535760405162461bcd60e51b8152602060048201526012602482015271496e76616c696420746f206164647265737360701b60448201526064016104fb565b60005460405163187945bd60e11b81526001600160a01b03909116906330f28b7a9061178b908990899033908a908a90600401611ebe565b600060405180830381600087803b1580156117a557600080fd5b505af11580156117b9573d6000803e3d6000fd5b50506006546001600160a01b039081169085160391506117ff905057336000908152600a6020526040812080548392906117f4908490611e45565b909155506118ab9050565b6005546001600160a01b039081169083160361183757336000908152600a6020526040812060010180548392906117f4908490611e45565b6004546001600160a01b039081169083160361186f57336000908152600a6020526040812060020180548392906117f4908490611e45565b60405162461bcd60e51b81526020600482015260116024820152702ab739bab83837b93a32b2103a37b5b2b760791b60448201526064016104fb565b505050505050565b6001600160a01b03811681146110d757600080fd5b600080604083850312156118db57600080fd5b82356118e6816118b3565b946020939093013593505050565b60006020828403121561190657600080fd5b8135611911816118b3565b9392505050565b6000806040838503121561192b57600080fd5b50508035926020909101359150565b60008060008060008060c0878903121561195357600080fd5b863561195e816118b3565b9860208801359850604088013597606081013597506080810135965060a00135945092505050565b60008060006060848603121561199b57600080fd5b83356119a6816118b3565b925060208401356119b6816118b3565b915060408401356119c6816118b3565b809150509250925092565b6000806000606084860312156119e657600080fd5b83356119f1816118b3565b92506020840135915060408401356119c6816118b3565b600060208284031215611a1a57600080fd5b5035919050565b6040516060810167ffffffffffffffff81118282101715611a5257634e487b7160e01b600052604160045260246000fd5b60405290565b60008183036080811215611a6b57600080fd5b611a73611a21565b91506040811215611a8357600080fd5b506040805190810167ffffffffffffffff81118282101715611ab557634e487b7160e01b600052604160045260246000fd5b6040528235611ac3816118b3565b8152602083810135818301529082526040808401359183019190915260609092013591810191909152919050565b600060408284031215611b0357600080fd5b50919050565b60008083601f840112611b1b57600080fd5b50813567ffffffffffffffff811115611b3357600080fd5b602083019150836020828501011115611b4b57600080fd5b9250929050565b6000806000806000806101208789031215611b6c57600080fd5b8635611b77816118b3565b955060208701359450611b8d8860408901611a58565b9350611b9c8860c08901611af1565b925061010087013567ffffffffffffffff811115611bb957600080fd5b611bc589828a01611b09565b979a9699509497509295939492505050565b60008060008060008060c08789031215611bf057600080fd5b8635611bfb816118b3565b95506020870135611c0b816118b3565b95989597505050506040840135936060810135936080820135935060a0909101359150565b60008060008060e08587031215611c4657600080fd5b611c508686611a58565b9350611c5f8660808701611af1565b925060c085013567ffffffffffffffff811115611c7b57600080fd5b611c8787828801611b09565b95989497509550505050565b60006060828403128015611ca657600080fd5b50611caf611a21565b82518152602080840151908201526040928301519281019290925250919050565b805161ffff81168114611ce257600080fd5b919050565b600060a0828403128015611cfa57600080fd5b5060405160009060a0810167ffffffffffffffff81118282101715611d2d57634e487b7160e01b83526041600452602483fd5b604052611d3984611cd0565b8152611d4760208501611cd0565b6020820152611d5860408501611cd0565b6040820152606084015163ffffffff81168114611d73578283fd5b606082015260809384015193810193909352509092915050565b634e487b7160e01b600052601160045260246000fd5b81810381811115611db657611db6611d8d565b92915050565b6001600160a01b03959095168552602085019390935260408401919091526060830152608082015260a00190565b8082028115828204841417611db657611db6611d8d565b600082611e1e57634e487b7160e01b600052601260045260246000fd5b500490565b600060208284031215611e3557600080fd5b8151801515811461191157600080fd5b80820180821115611db657611db6611d8d565b600060208284031215611e6a57600080fd5b5051919050565b60008060408385031215611e8457600080fd5b505080516020909101519092909150565b81835281816020850137506000828201602090810191909152601f909101601f19169091010190565b855180516001600160a01b0316825260209081015181830152860151604080830191909152860151606082015260008535611ef8816118b3565b6001600160a01b03166080830152602086013560a0830152611f2560c08301866001600160a01b03169052565b61010060e0830152611f3c61010083018486611e95565b97965050505050505056fea26469706673582212204b744958b769fdc3bb7e562381adca166bd321f85d24da7a79176f1e4152e74164736f6c634300081c0033",
  "linkReferences": {},
  "deployedLinkReferences": {}
}