{
  "_format": "hh-sol-artifact-1",
  "contractName": "FarmerWorld",
  "sourceName": "contracts/FarmerWorld.sol",
  "abi": [
    {
      "inputs": [
        {
          "internalType": "address",
          "name": "_woodTools",
          "type": "address"
        },
        {
          "internalType": "address",
          "name": "_goldTools",
          "type": "address"
        },
        {
          "internalType": "address",
          "name": "_foodTools",
          "type": "address"
        },
        {
          "internalType": "address",
          "name": "_foodToken",
          "type": "address"
        },
        {
          "internalType": "address",
          "name": "_goldToken",
          "type": "address"
        },
        {
          "internalType": "address",
          "name": "_woodToken",
          "type": "address"
        }
      ],
      "stateMutability": "nonpayable",
      "type": "constructor"
    },
    {
      "inputs": [
        {
          "internalType": "address",
          "name": "user",
          "type": "address"
        },
        {
          "internalType": "uint256",
          "name": "goldAmount",
          "type": "uint256"
        }
      ],
      "name": "buyEnergy",
      "outputs": [],
      "stateMutability": "nonpayable",
      "type": "function"
    },
    {
      "inputs": [
        {
          "internalType": "address",
          "name": "contractCallers",
          "type": "address"
        }
      ],
      "name": "contractCallers",
      "outputs": [
        {
          "internalType": "bool",
          "name": "",
          "type": "bool"
        }
      ],
      "stateMutability": "view",
      "type": "function"
    },
    {
      "inputs": [
        {
          "internalType": "contract ITools",
          "name": "_toolContract",
          "type": "address"
        },
        {
          "internalType": "uint256",
          "name": "_toolLvl",
          "type": "uint256"
        }
      ],
      "name": "craft",
      "outputs": [],
      "stateMutability": "nonpayable",
      "type": "function"
    },
    {
      "inputs": [
        {
          "internalType": "contract ITools",
          "name": "_toolContract",
          "type": "address"
        },
        {
          "internalType": "uint256",
          "name": "id",
          "type": "uint256"
        }
      ],
      "name": "deleteTool",
      "outputs": [],
      "stateMutability": "nonpayable",
      "type": "function"
    },
    {
      "inputs": [
        {
          "components": [
            {
              "components": [
                {
                  "internalType": "address",
                  "name": "token",
                  "type": "address"
                },
                {
                  "internalType": "uint256",
                  "name": "amount",
                  "type": "uint256"
                }
              ],
              "internalType": "struct ISignatureTransfer.TokenPermissions",
              "name": "permitted",
              "type": "tuple"
            },
            {
              "internalType": "uint256",
              "name": "nonce",
              "type": "uint256"
            },
            {
              "internalType": "uint256",
              "name": "deadline",
              "type": "uint256"
            }
          ],
          "internalType": "struct ISignatureTransfer.PermitTransferFrom",
          "name": "permit",
          "type": "tuple"
        },
        {
          "components": [
            {
              "internalType": "address",
              "name": "to",
              "type": "address"
            },
            {
              "internalType": "uint256",
              "name": "requestedAmount",
              "type": "uint256"
            }
          ],
          "internalType": "struct ISignatureTransfer.SignatureTransferDetails",
          "name": "transferDetails",
          "type": "tuple"
        },
        {
          "internalType": "bytes",
          "name": "signature",
          "type": "bytes"
        }
      ],
      "name": "deposit",
      "outputs": [],
      "stateMutability": "nonpayable",
      "type": "function"
    },
    {
      "inputs": [
        {
          "internalType": "uint256",
          "name": "_foodToEnergy",
          "type": "uint256"
        },
        {
          "internalType": "uint256",
          "name": "_goldToEndurance",
          "type": "uint256"
        }
      ],
      "name": "editGameTokenRelation",
      "outputs": [],
      "stateMutability": "nonpayable",
      "type": "function"
    },
    {
      "inputs": [
        {
          "internalType": "address",
          "name": "user",
          "type": "address"
        },
        {
          "internalType": "uint256",
          "name": "woodBalance",
          "type": "uint256"
        },
        {
          "internalType": "uint256",
          "name": "goldBalance",
          "type": "uint256"
        },
        {
          "internalType": "uint256",
          "name": "foodBalance",
          "type": "uint256"
        },
        {
          "internalType": "uint256",
          "name": "energy",
          "type": "uint256"
        },
        {
          "internalType": "uint256",
          "name": "maxEnergy",
          "type": "uint256"
        }
      ],
      "name": "editUser",
      "outputs": [],
      "stateMutability": "nonpayable",
      "type": "function"
    },
    {
      "inputs": [
        {
          "internalType": "contract ITools",
          "name": "_toolContract",
          "type": "address"
        },
        {
          "internalType": "address",
          "name": "user",
          "type": "address"
        },
        {
          "internalType": "uint256",
          "name": "id",
          "type": "uint256"
        },
        {
          "internalType": "uint256",
          "name": "lvl",
          "type": "uint256"
        },
        {
          "internalType": "uint256",
          "name": "durability",
          "type": "uint256"
        },
        {
          "internalType": "uint256",
          "name": "lastHarvest",
          "type": "uint256"
        }
      ],
      "name": "editUserTool",
      "outputs": [],
      "stateMutability": "nonpayable",
      "type": "function"
    },
    {
      "inputs": [],
      "name": "foodToken",
      "outputs": [
        {
          "internalType": "contract IERC20",
          "name": "",
          "type": "address"
        }
      ],
      "stateMutability": "view",
      "type": "function"
    },
    {
      "inputs": [],
      "name": "foodTools",
      "outputs": [
        {
          "internalType": "contract ITools",
          "name": "",
          "type": "address"
        }
      ],
      "stateMutability": "view",
      "type": "function"
    },
    {
      "inputs": [],
      "name": "goldToken",
      "outputs": [
        {
          "internalType": "contract IERC20",
          "name": "",
          "type": "address"
        }
      ],
      "stateMutability": "view",
      "type": "function"
    },
    {
      "inputs": [],
      "name": "goldTools",
      "outputs": [
        {
          "internalType": "contract ITools",
          "name": "",
          "type": "address"
        }
      ],
      "stateMutability": "view",
      "type": "function"
    },
    {
      "inputs": [
        {
          "internalType": "contract ITools",
          "name": "_toolContract",
          "type": "address"
        },
        {
          "internalType": "uint256",
          "name": "id",
          "type": "uint256"
        }
      ],
      "name": "harvest",
      "outputs": [],
      "stateMutability": "nonpayable",
      "type": "function"
    },
    {
      "inputs": [],
      "name": "owner",
      "outputs": [
        {
          "internalType": "address",
          "name": "",
          "type": "address"
        }
      ],
      "stateMutability": "view",
      "type": "function"
    },
    {
      "inputs": [],
      "name": "permit2",
      "outputs": [
        {
          "internalType": "contract ISignatureTransfer",
          "name": "",
          "type": "address"
        }
      ],
      "stateMutability": "view",
      "type": "function"
    },
    {
      "inputs": [
        {
          "internalType": "contract ITools",
          "name": "_toolContract",
          "type": "address"
        },
        {
          "internalType": "uint256",
          "name": "id",
          "type": "uint256"
        },
        {
          "internalType": "uint256",
          "name": "goldAmount",
          "type": "uint256"
        }
      ],
      "name": "repair",
      "outputs": [],
      "stateMutability": "nonpayable",
      "type": "function"
    },
    {
      "inputs": [
        {
          "internalType": "address",
          "name": "_contractCaller",
          "type": "address"
        }
      ],
      "name": "setContractCaller",
      "outputs": [],
      "stateMutability": "nonpayable",
      "type": "function"
    },
    {
      "inputs": [
        {
          "internalType": "address",
          "name": "_owner",
          "type": "address"
        }
      ],
      "name": "setOwner",
      "outputs": [],
      "stateMutability": "nonpayable",
      "type": "function"
    },
    {
      "inputs": [],
      "name": "tokenRelation",
      "outputs": [
        {
          "internalType": "uint256",
          "name": "foodToEnergy",
          "type": "uint256"
        },
        {
          "internalType": "uint256",
          "name": "goldToEndurance",
          "type": "uint256"
        }
      ],
      "stateMutability": "view",
      "type": "function"
    },
    {
      "inputs": [
        {
          "internalType": "address",
          "name": "user",
          "type": "address"
        }
      ],
      "name": "users",
      "outputs": [
        {
          "internalType": "uint256",
          "name": "woodBalance",
          "type": "uint256"
        },
        {
          "internalType": "uint256",
          "name": "goldBalance",
          "type": "uint256"
        },
        {
          "internalType": "uint256",
          "name": "foodBalance",
          "type": "uint256"
        },
        {
          "internalType": "uint256",
          "name": "energy",
          "type": "uint256"
        },
        {
          "internalType": "uint256",
          "name": "maxEnergy",
          "type": "uint256"
        }
      ],
      "stateMutability": "view",
      "type": "function"
    },
    {
      "inputs": [
        {
          "internalType": "contract IERC20",
          "name": "_tokenContract",
          "type": "address"
        },
        {
          "internalType": "uint256",
          "name": "amount",
          "type": "uint256"
        }
      ],
      "name": "withdraw",
      "outputs": [],
      "stateMutability": "nonpayable",
      "type": "function"
    },
    {
      "inputs": [],
      "name": "woodToken",
      "outputs": [
        {
          "internalType": "contract IERC20",
          "name": "",
          "type": "address"
        }
      ],
      "stateMutability": "view",
      "type": "function"
    },
    {
      "inputs": [],
      "name": "woodTools",
      "outputs": [
        {
          "internalType": "contract ITools",
          "name": "",
          "type": "address"
        }
      ],
      "stateMutability": "view",
      "type": "function"
    }
  ],
  "bytecode": "0x6080604052600080546001600160a01b0319166e22d473030f116ddee9f6b43ac78ba317905534801561003157600080fd5b50604051611dc7380380611dc7833981016040819052610050916100de565b600180546001600160a01b03199081166001600160a01b0398891617909155600280548216968816969096179095556003805486169487169490941790935560048054851692861692909217909155600580548416918516919091179055600680549092169216919091179055610152565b80516001600160a01b03811681146100d957600080fd5b919050565b60008060008060008060c087890312156100f757600080fd5b610100876100c2565b955061010e602088016100c2565b945061011c604088016100c2565b935061012a606088016100c2565b9250610138608088016100c2565b915061014660a088016100c2565b90509295509295509295565b611c66806101616000396000f3fe608060405234801561001057600080fd5b506004361061014d5760003560e01c80638da5cb5b116100c3578063e7dd114a1161007c578063e7dd114a14610336578063e864fd1914610349578063ea5057fd1461035c578063eaaa43e51461036f578063f3fef3a314610382578063f5d9676f1461039557600080fd5b80638da5cb5b1461027257806394002b57146102855780639ba99eff14610298578063a87430ba146102ab578063c1d942c114610310578063dd6d059f1461032357600080fd5b80632a94a9c8116101155780632a94a9c8146101e05780632ddd99e4146101f357806336fd7e1b146102065780636cdc3c42146102195780637cde55aa1461022c578063856a8ace1461023f57600080fd5b8063018ee9b71461015257806312261ee71461016757806312eb9a6a14610197578063132ec064146101aa57806313af4035146101cd575b600080fd5b610165610160366004611683565b6103a8565b005b60005461017a906001600160a01b031681565b6040516001600160a01b0390911681526020015b60405180910390f35b60035461017a906001600160a01b031681565b6008546009546101b8919082565b6040805192835260208301919091520161018e565b6101656101db3660046116af565b6107af565b6101656101ee3660046116af565b61082b565b6101656102013660046116d3565b6108b4565b610165610214366004611683565b610938565b60045461017a906001600160a01b031681565b61016561023a3660046116f5565b610a1c565b61026261024d3660046116af565b600b6020526000908152604090205460ff1681565b604051901515815260200161018e565b60075461017a906001600160a01b031681565b60055461017a906001600160a01b031681565b60015461017a906001600160a01b031681565b6102e86102b93660046116af565b600a60205260009081526040902080546001820154600283015460038401546004909401549293919290919085565b604080519586526020860194909452928401919091526060830152608082015260a00161018e565b61016561031e366004611683565b610ae8565b610165610331366004611741565b610d1c565b60025461017a906001600160a01b031681565b610165610357366004611776565b610f4e565b61016561036a366004611683565b61102b565b61016561037d366004611898565b61125d565b610165610390366004611683565b61146b565b60065461017a906001600160a01b031681565b60405163acd50aa160e01b8152336004820152602481018290526000906001600160a01b0384169063acd50aa190604401606060405180830381865afa1580156103f6573d6000803e3d6000fd5b505050506040513d601f19601f8201168201806040525081019061041a9190611953565b805160405163bc60c31d60e01b815260048101919091529091506000906001600160a01b0385169063bc60c31d9060240160a060405180830381865afa158015610468573d6000803e3d6000fd5b505050506040513d601f19601f8201168201806040525081019061048c91906119a7565b82519091506000036104d65760405162461bcd60e51b815260206004820152600e60248201526d151bdbdb081b9bdd08199bdd5b9960921b60448201526064015b60405180910390fd5b806040015161ffff168260200151116105225760405162461bcd60e51b815260206004820152600e60248201526d2a37b7b61034b990313937b5b2b760911b60448201526064016104cd565b836001600160a01b031663609738a733858560000151856040015161ffff1687602001516105509190611a63565b426040518663ffffffff1660e01b8152600401610571959493929190611a7c565b600060405180830381600087803b15801561058b57600080fd5b505af115801561059f573d6000803e3d6000fd5b5050835160405163bc60c31d60e01b8152600093506001600160a01b038816925063bc60c31d916105d69160040190815260200190565b60a060405180830381865afa1580156105f3573d6000803e3d6000fd5b505050506040513d601f19601f8201168201806040525081019061061791906119a7565b51336000908152600a602052604090206003015461ffff90911691508111156106765760405162461bcd60e51b81526020600482015260116024820152704e6f7420656e6f75676820656e6572677960781b60448201526064016104cd565b336000908152600a602052604081206003018054839290610698908490611a63565b909155505060408301516000906106af9042611a63565b606084015190915063ffffffff1660008183106106d1575060808401516106ef565b818386608001516106e29190611aaa565b6106ec9190611ac1565b90505b6001546001600160a01b039081169089160361072f57336000908152600a602052604081208054839290610724908490611ae3565b909155506107a59050565b6002546001600160a01b039081169089160361076757336000908152600a602052604081206001018054839290610724908490611ae3565b6003546001600160a01b03908116908916036107a557336000908152600a60205260408120600201805483929061079f908490611ae3565b90915550505b5050505050505050565b6007546001600160a01b031633146108095760405162461bcd60e51b815260206004820152601860248201527f4f6e6c79206f776e65722063616e20736574206f776e6572000000000000000060448201526064016104cd565b600780546001600160a01b0319166001600160a01b0392909216919091179055565b6007546001600160a01b031633146108905760405162461bcd60e51b815260206004820152602260248201527f4f6e6c79206f776e65722063616e2073657420636f6e74726163742063616c6c60448201526132b960f11b60648201526084016104cd565b6001600160a01b03166000908152600b60205260409020805460ff19166001179055565b336000908152600b602052604090205460ff1661092d5760405162461bcd60e51b815260206004820152603160248201527f4f6e6c7920636f6e74726163742063616c6c65722063616e206564697420676160448201527036b2903a37b5b2b7103932b630ba34b7b760791b60648201526084016104cd565b600891909155600955565b6001600160a01b0382166000908152600a60205260409020600101548111156109735760405162461bcd60e51b81526004016104cd90611af6565b6008546000906109839083611aaa565b6001600160a01b0384166000908152600a60205260409020600401549091508082116109af57816109b1565b805b6001600160a01b0385166000908152600a60205260408120600301805492945084929091906109e1908490611ae3565b90915550506001600160a01b0384166000908152600a602052604081206001018054859290610a11908490611a63565b909155505050505050565b336000908152600b602052604090205460ff16610a865760405162461bcd60e51b815260206004820152602260248201527f4f6e6c7920636f6e74726163742063616c6c65722063616e206564697420757360448201526132b960f11b60648201526084016104cd565b6040805160a081018252958652602080870195865286820194855260608701938452608087019283526001600160a01b039097166000908152600a90975290952093518455915160018401555160028301555160038201559051600490910155565b6040516319a5289160e21b81526004810182905260009081906001600160a01b03851690636694a244906024016040805180830381865afa158015610b31573d6000803e3d6000fd5b505050506040513d601f19601f82011682018060405250810190610b559190611b1f565b336000908152600a60205260409020549193509150821115610bab5760405162461bcd60e51b815260206004820152600f60248201526e139bdd08195b9bdd59da081ddbdbd9608a1b60448201526064016104cd565b336000908152600a6020526040902060010154811115610bdd5760405162461bcd60e51b81526004016104cd90611af6565b336000908152600a602052604081208054849290610bfc908490611a63565b9091555050336000908152600a602052604081206001018054839290610c23908490611a63565b909155505060405163298d4b4560e21b81523360048201526000906001600160a01b0386169063a6352d1490602401602060405180830381865afa158015610c6f573d6000803e3d6000fd5b505050506040513d601f19601f82011682018060405250810190610c939190611b43565b90506001600160a01b038516637493fe5533610cb0846001611ae3565b6040516001600160e01b031960e085901b1681526001600160a01b039092166004830152602482015260448101879052606401600060405180830381600087803b158015610cfd57600080fd5b505af1158015610d11573d6000803e3d6000fd5b505050505050505050565b336000908152600a6020526040902060010154811115610d4e5760405162461bcd60e51b81526004016104cd90611af6565b60405163acd50aa160e01b8152336004820152602481018390526000906001600160a01b0385169063acd50aa190604401606060405180830381865afa158015610d9c573d6000803e3d6000fd5b505050506040513d601f19601f82011682018060405250810190610dc09190611953565b805160405163bc60c31d60e01b815260048101919091529091506000906001600160a01b0386169063bc60c31d9060240160a060405180830381865afa158015610e0e573d6000803e3d6000fd5b505050506040513d601f19601f82011682018060405250810190610e3291906119a7565b8251909150600003610e775760405162461bcd60e51b815260206004820152600e60248201526d151bdbdb081b9bdd08199bdd5b9960921b60448201526064016104cd565b600954600090610e879085611aaa565b602083015190915061ffff16808211610ea05781610ea2565b805b9150866001600160a01b031663609738a733888760000151868960200151610eca9190611ae3565b426040518663ffffffff1660e01b8152600401610eeb959493929190611a7c565b600060405180830381600087803b158015610f0557600080fd5b505af1158015610f19573d6000803e3d6000fd5b5050336000908152600a602052604081206001018054899450909250610f40908490611a63565b909155505050505050505050565b336000908152600b602052604090205460ff16610fbd5760405162461bcd60e51b815260206004820152602760248201527f4f6e6c7920636f6e74726163742063616c6c65722063616e2065646974207573604482015266195c881d1bdbdb60ca1b60648201526084016104cd565b60405163609738a760e01b81526001600160a01b0387169063609738a790610ff19088908890889088908890600401611a7c565b600060405180830381600087803b15801561100b57600080fd5b505af115801561101f573d6000803e3d6000fd5b50505050505050505050565b60405163298d4b4560e21b81523360048201526000906001600160a01b0384169063a6352d1490602401602060405180830381865afa158015611072573d6000803e3d6000fd5b505050506040513d601f19601f820116820180604052508101906110969190611b43565b90508082106110d95760405162461bcd60e51b815260206004820152600f60248201526e125b9d985b1a59081d1bdbdb081251608a1b60448201526064016104cd565b6110e4600182611a63565b8210156111e65760006001600160a01b03841663acd50aa133611108600186611a63565b6040516001600160e01b031960e085901b1681526001600160a01b0390921660048301526024820152604401606060405180830381865afa158015611151573d6000803e3d6000fd5b505050506040513d601f19601f820116820180604052508101906111759190611953565b80516020820151604080840151905163609738a760e01b81529394506001600160a01b0388169363609738a7936111b29333938a93600401611a7c565b600060405180830381600087803b1580156111cc57600080fd5b505af11580156111e0573d6000803e3d6000fd5b50505050505b6001600160a01b03831663609738a733611201600185611a63565b60008060006040518663ffffffff1660e01b8152600401611226959493929190611a7c565b600060405180830381600087803b15801561124057600080fd5b505af1158015611254573d6000803e3d6000fd5b50505050505050565b8351516020840135806112b25760405162461bcd60e51b815260206004820152601d60248201527f416d6f756e74206d7573742062652067726561746572207468616e203000000060448201526064016104cd565b306112c060208701876116af565b6001600160a01b03161461130b5760405162461bcd60e51b8152602060048201526012602482015271496e76616c696420746f206164647265737360701b60448201526064016104cd565b60005460405163187945bd60e11b81526001600160a01b03909116906330f28b7a90611343908990899033908a908a90600401611b85565b600060405180830381600087803b15801561135d57600080fd5b505af1158015611371573d6000803e3d6000fd5b50506006546001600160a01b039081169085160391506113b7905057336000908152600a6020526040812080548392906113ac908490611ae3565b909155506114639050565b6005546001600160a01b03908116908316036113ef57336000908152600a6020526040812060010180548392906113ac908490611ae3565b6004546001600160a01b039081169083160361142757336000908152600a6020526040812060020180548392906113ac908490611ae3565b60405162461bcd60e51b81526020600482015260116024820152702ab739bab83837b93a32b2103a37b5b2b760791b60448201526064016104cd565b505050505050565b60065482906001600160a01b03908116908216036114fe57336000908152600a60205260409020548211156114d45760405162461bcd60e51b815260206004820152600f60248201526e139bdd08195b9bdd59da081ddbdbd9608a1b60448201526064016104cd565b336000908152600a6020526040812080548492906114f3908490611a63565b909155506115f49050565b6005546001600160a01b039081169082160361156857336000908152600a60205260409020600101548211156115465760405162461bcd60e51b81526004016104cd90611af6565b336000908152600a6020526040812060010180548492906114f3908490611a63565b6004546001600160a01b039081169082160361142757336000908152600a60205260409020600201548211156115d25760405162461bcd60e51b815260206004820152600f60248201526e139bdd08195b9bdd59da08199bdbd9608a1b60448201526064016104cd565b336000908152600a6020526040812060020180548492906114f3908490611a63565b60405163a9059cbb60e01b8152336004820152602481018390526001600160a01b0384169063a9059cbb906044016020604051808303816000875af1158015611641573d6000803e3d6000fd5b505050506040513d601f19601f820116820180604052508101906116659190611c0e565b50505050565b6001600160a01b038116811461168057600080fd5b50565b6000806040838503121561169657600080fd5b82356116a18161166b565b946020939093013593505050565b6000602082840312156116c157600080fd5b81356116cc8161166b565b9392505050565b600080604083850312156116e657600080fd5b50508035926020909101359150565b60008060008060008060c0878903121561170e57600080fd5b86356117198161166b565b9860208801359850604088013597606081013597506080810135965060a00135945092505050565b60008060006060848603121561175657600080fd5b83356117618161166b565b95602085013595506040909401359392505050565b60008060008060008060c0878903121561178f57600080fd5b863561179a8161166b565b955060208701356117aa8161166b565b95989597505050506040840135936060810135936080820135935060a0909101359150565b6040516060810167ffffffffffffffff8111828210171561180057634e487b7160e01b600052604160045260246000fd5b60405290565b6040805190810167ffffffffffffffff8111828210171561180057634e487b7160e01b600052604160045260246000fd5b60006040828403121561184957600080fd5b50919050565b60008083601f84011261186157600080fd5b50813567ffffffffffffffff81111561187957600080fd5b60208301915083602082850101111561189157600080fd5b9250929050565b60008060008084860360e08112156118af57600080fd5b60808112156118bd57600080fd5b6118c56117cf565b60408212156118d357600080fd5b6118db611806565b915086356118e88161166b565b82526020878101358184015291815260408088013592820192909252606087013591810191909152935061191f8660808701611837565b925060c085013567ffffffffffffffff81111561193b57600080fd5b6119478782880161184f565b95989497509550505050565b6000606082840312801561196657600080fd5b5061196f6117cf565b82518152602080840151908201526040928301519281019290925250919050565b805161ffff811681146119a257600080fd5b919050565b600060a08284031280156119ba57600080fd5b5060405160009060a0810167ffffffffffffffff811182821017156119ed57634e487b7160e01b83526041600452602483fd5b6040526119f984611990565b8152611a0760208501611990565b6020820152611a1860408501611990565b6040820152606084015163ffffffff81168114611a33578283fd5b606082015260809384015193810193909352509092915050565b634e487b7160e01b600052601160045260246000fd5b81810381811115611a7657611a76611a4d565b92915050565b6001600160a01b03959095168552602085019390935260408401919091526060830152608082015260a00190565b8082028115828204841417611a7657611a76611a4d565b600082611ade57634e487b7160e01b600052601260045260246000fd5b500490565b80820180821115611a7657611a76611a4d565b6020808252600f908201526e139bdd08195b9bdd59da0819dbdb19608a1b604082015260600190565b60008060408385031215611b3257600080fd5b505080516020909101519092909150565b600060208284031215611b5557600080fd5b5051919050565b81835281816020850137506000828201602090810191909152601f909101601f19169091010190565b855180516001600160a01b0316825260209081015181830152860151604080830191909152860151606082015260008535611bbf8161166b565b6001600160a01b03166080830152602086013560a0830152611bec60c08301866001600160a01b03169052565b61010060e0830152611c0361010083018486611b5c565b979650505050505050565b600060208284031215611c2057600080fd5b815180151581146116cc57600080fdfea26469706673582212203a7ecea0bde56fe574c1c6925eadb390c3be83f9a124a5020fe3a16e23dac30464736f6c634300081c0033",
  "linkReferences": {},
  "deployedLinkReferences": {}
}