{
  "_format": "hh-sol-artifact-1",
  "contractName": "Tools",
  "sourceName": "contracts/Tools.sol",
  "abi": [
    {
      "inputs": [
        {
          "internalType": "address",
          "name": "_rewardToken",
          "type": "address"
        },
        {
          "internalType": "uint256[]",
          "name": "lvls",
          "type": "uint256[]"
        },
        {
          "components": [
            {
              "internalType": "uint16",
              "name": "energyConsumption",
              "type": "uint16"
            },
            {
              "internalType": "uint16",
              "name": "durability",
              "type": "uint16"
            },
            {
              "internalType": "uint16",
              "name": "durabilityConsumption",
              "type": "uint16"
            },
            {
              "internalType": "uint32",
              "name": "chargeTime",
              "type": "uint32"
            },
            {
              "internalType": "uint256",
              "name": "rewardRate",
              "type": "uint256"
            }
          ],
          "internalType": "struct Tools.Tool[]",
          "name": "_tools",
          "type": "tuple[]"
        },
        {
          "components": [
            {
              "internalType": "uint256",
              "name": "woodCost",
              "type": "uint256"
            },
            {
              "internalType": "uint256",
              "name": "goldCost",
              "type": "uint256"
            },
            {
              "internalType": "uint256",
              "name": "repayCost",
              "type": "uint256"
            }
          ],
          "internalType": "struct Tools.ToolCost[]",
          "name": "_toolCosts",
          "type": "tuple[]"
        },
        {
          "internalType": "address",
          "name": "farmerManager",
          "type": "address"
        }
      ],
      "stateMutability": "nonpayable",
      "type": "constructor"
    },
    {
      "inputs": [],
      "name": "RewardToken",
      "outputs": [
        {
          "internalType": "address",
          "name": "",
          "type": "address"
        }
      ],
      "stateMutability": "view",
      "type": "function"
    },
    {
      "inputs": [
        {
          "internalType": "uint256",
          "name": "lvl",
          "type": "uint256"
        },
        {
          "components": [
            {
              "internalType": "uint16",
              "name": "energyConsumption",
              "type": "uint16"
            },
            {
              "internalType": "uint16",
              "name": "durability",
              "type": "uint16"
            },
            {
              "internalType": "uint16",
              "name": "durabilityConsumption",
              "type": "uint16"
            },
            {
              "internalType": "uint32",
              "name": "chargeTime",
              "type": "uint32"
            },
            {
              "internalType": "uint256",
              "name": "rewardRate",
              "type": "uint256"
            }
          ],
          "internalType": "struct Tools.Tool",
          "name": "tool",
          "type": "tuple"
        },
        {
          "components": [
            {
              "internalType": "uint256",
              "name": "woodCost",
              "type": "uint256"
            },
            {
              "internalType": "uint256",
              "name": "goldCost",
              "type": "uint256"
            },
            {
              "internalType": "uint256",
              "name": "repayCost",
              "type": "uint256"
            }
          ],
          "internalType": "struct Tools.ToolCost",
          "name": "_toolCost",
          "type": "tuple"
        }
      ],
      "name": "addTool",
      "outputs": [],
      "stateMutability": "nonpayable",
      "type": "function"
    },
    {
      "inputs": [
        {
          "internalType": "uint256[]",
          "name": "lvls",
          "type": "uint256[]"
        },
        {
          "components": [
            {
              "internalType": "uint16",
              "name": "energyConsumption",
              "type": "uint16"
            },
            {
              "internalType": "uint16",
              "name": "durability",
              "type": "uint16"
            },
            {
              "internalType": "uint16",
              "name": "durabilityConsumption",
              "type": "uint16"
            },
            {
              "internalType": "uint32",
              "name": "chargeTime",
              "type": "uint32"
            },
            {
              "internalType": "uint256",
              "name": "rewardRate",
              "type": "uint256"
            }
          ],
          "internalType": "struct Tools.Tool[]",
          "name": "_tools",
          "type": "tuple[]"
        },
        {
          "components": [
            {
              "internalType": "uint256",
              "name": "woodCost",
              "type": "uint256"
            },
            {
              "internalType": "uint256",
              "name": "goldCost",
              "type": "uint256"
            },
            {
              "internalType": "uint256",
              "name": "repayCost",
              "type": "uint256"
            }
          ],
          "internalType": "struct Tools.ToolCost[]",
          "name": "_toolCosts",
          "type": "tuple[]"
        }
      ],
      "name": "addTools",
      "outputs": [],
      "stateMutability": "nonpayable",
      "type": "function"
    },
    {
      "inputs": [
        {
          "internalType": "address",
          "name": "user",
          "type": "address"
        },
        {
          "internalType": "uint256",
          "name": "lvl",
          "type": "uint256"
        }
      ],
      "name": "addUserTool",
      "outputs": [],
      "stateMutability": "nonpayable",
      "type": "function"
    },
    {
      "inputs": [
        {
          "internalType": "address",
          "name": "contractCallers",
          "type": "address"
        }
      ],
      "name": "contractCallers",
      "outputs": [
        {
          "internalType": "bool",
          "name": "",
          "type": "bool"
        }
      ],
      "stateMutability": "view",
      "type": "function"
    },
    {
      "inputs": [
        {
          "internalType": "uint256",
          "name": "lvl",
          "type": "uint256"
        },
        {
          "components": [
            {
              "internalType": "uint16",
              "name": "energyConsumption",
              "type": "uint16"
            },
            {
              "internalType": "uint16",
              "name": "durability",
              "type": "uint16"
            },
            {
              "internalType": "uint16",
              "name": "durabilityConsumption",
              "type": "uint16"
            },
            {
              "internalType": "uint32",
              "name": "chargeTime",
              "type": "uint32"
            },
            {
              "internalType": "uint256",
              "name": "rewardRate",
              "type": "uint256"
            }
          ],
          "internalType": "struct Tools.Tool",
          "name": "tool",
          "type": "tuple"
        }
      ],
      "name": "editTool",
      "outputs": [],
      "stateMutability": "nonpayable",
      "type": "function"
    },
    {
      "inputs": [
        {
          "internalType": "address",
          "name": "user",
          "type": "address"
        },
        {
          "internalType": "uint256",
          "name": "id",
          "type": "uint256"
        },
        {
          "internalType": "uint256",
          "name": "lvl",
          "type": "uint256"
        },
        {
          "internalType": "uint256",
          "name": "durability",
          "type": "uint256"
        },
        {
          "internalType": "uint256",
          "name": "lastHarvest",
          "type": "uint256"
        }
      ],
      "name": "editUserTool",
      "outputs": [],
      "stateMutability": "nonpayable",
      "type": "function"
    },
    {
      "inputs": [
        {
          "internalType": "address",
          "name": "user",
          "type": "address"
        }
      ],
      "name": "getAllUserTools",
      "outputs": [
        {
          "components": [
            {
              "internalType": "uint256",
              "name": "lvl",
              "type": "uint256"
            },
            {
              "internalType": "uint256",
              "name": "durability",
              "type": "uint256"
            },
            {
              "internalType": "uint256",
              "name": "lastHarvest",
              "type": "uint256"
            }
          ],
          "internalType": "struct Tools.UserTools[]",
          "name": "",
          "type": "tuple[]"
        }
      ],
      "stateMutability": "view",
      "type": "function"
    },
    {
      "inputs": [
        {
          "internalType": "uint256",
          "name": "lvl",
          "type": "uint256"
        }
      ],
      "name": "getTool",
      "outputs": [
        {
          "components": [
            {
              "internalType": "uint16",
              "name": "energyConsumption",
              "type": "uint16"
            },
            {
              "internalType": "uint16",
              "name": "durability",
              "type": "uint16"
            },
            {
              "internalType": "uint16",
              "name": "durabilityConsumption",
              "type": "uint16"
            },
            {
              "internalType": "uint32",
              "name": "chargeTime",
              "type": "uint32"
            },
            {
              "internalType": "uint256",
              "name": "rewardRate",
              "type": "uint256"
            }
          ],
          "internalType": "struct Tools.Tool",
          "name": "",
          "type": "tuple"
        }
      ],
      "stateMutability": "view",
      "type": "function"
    },
    {
      "inputs": [
        {
          "internalType": "uint256",
          "name": "lvl",
          "type": "uint256"
        }
      ],
      "name": "getToolCost",
      "outputs": [
        {
          "internalType": "uint256",
          "name": "",
          "type": "uint256"
        },
        {
          "internalType": "uint256",
          "name": "",
          "type": "uint256"
        }
      ],
      "stateMutability": "view",
      "type": "function"
    },
    {
      "inputs": [
        {
          "internalType": "address",
          "name": "user",
          "type": "address"
        }
      ],
      "name": "getTotalUserTools",
      "outputs": [
        {
          "internalType": "uint256",
          "name": "",
          "type": "uint256"
        }
      ],
      "stateMutability": "view",
      "type": "function"
    },
    {
      "inputs": [
        {
          "internalType": "address",
          "name": "user",
          "type": "address"
        },
        {
          "internalType": "uint256",
          "name": "id",
          "type": "uint256"
        }
      ],
      "name": "getUserTool",
      "outputs": [
        {
          "components": [
            {
              "internalType": "uint256",
              "name": "lvl",
              "type": "uint256"
            },
            {
              "internalType": "uint256",
              "name": "durability",
              "type": "uint256"
            },
            {
              "internalType": "uint256",
              "name": "lastHarvest",
              "type": "uint256"
            }
          ],
          "internalType": "struct Tools.UserTools",
          "name": "",
          "type": "tuple"
        }
      ],
      "stateMutability": "view",
      "type": "function"
    },
    {
      "inputs": [],
      "name": "owner",
      "outputs": [
        {
          "internalType": "address",
          "name": "",
          "type": "address"
        }
      ],
      "stateMutability": "view",
      "type": "function"
    },
    {
      "inputs": [
        {
          "internalType": "address",
          "name": "_contractCaller",
          "type": "address"
        }
      ],
      "name": "setContractCaller",
      "outputs": [],
      "stateMutability": "nonpayable",
      "type": "function"
    },
    {
      "inputs": [
        {
          "internalType": "address",
          "name": "_owner",
          "type": "address"
        }
      ],
      "name": "setOwner",
      "outputs": [],
      "stateMutability": "nonpayable",
      "type": "function"
    },
    {
      "inputs": [
        {
          "internalType": "uint256",
          "name": "lvl",
          "type": "uint256"
        }
      ],
      "name": "toolCost",
      "outputs": [
        {
          "internalType": "uint256",
          "name": "woodCost",
          "type": "uint256"
        },
        {
          "internalType": "uint256",
          "name": "goldCost",
          "type": "uint256"
        },
        {
          "internalType": "uint256",
          "name": "repayCost",
          "type": "uint256"
        }
      ],
      "stateMutability": "view",
      "type": "function"
    },
    {
      "inputs": [
        {
          "internalType": "uint256",
          "name": "lvl",
          "type": "uint256"
        }
      ],
      "name": "tools",
      "outputs": [
        {
          "internalType": "uint16",
          "name": "energyConsumption",
          "type": "uint16"
        },
        {
          "internalType": "uint16",
          "name": "durability",
          "type": "uint16"
        },
        {
          "internalType": "uint16",
          "name": "durabilityConsumption",
          "type": "uint16"
        },
        {
          "internalType": "uint32",
          "name": "chargeTime",
          "type": "uint32"
        },
        {
          "internalType": "uint256",
          "name": "rewardRate",
          "type": "uint256"
        }
      ],
      "stateMutability": "view",
      "type": "function"
    },
    {
      "inputs": [
        {
          "internalType": "address",
          "name": "user",
          "type": "address"
        }
      ],
      "name": "totalUserTools",
      "outputs": [
        {
          "internalType": "uint256",
          "name": "totalTools",
          "type": "uint256"
        }
      ],
      "stateMutability": "view",
      "type": "function"
    },
    {
      "inputs": [
        {
          "internalType": "address",
          "name": "user",
          "type": "address"
        },
        {
          "internalType": "uint256",
          "name": "id",
          "type": "uint256"
        }
      ],
      "name": "userTools",
      "outputs": [
        {
          "internalType": "uint256",
          "name": "lvl",
          "type": "uint256"
        },
        {
          "internalType": "uint256",
          "name": "durability",
          "type": "uint256"
        },
        {
          "internalType": "uint256",
          "name": "lastHarvest",
          "type": "uint256"
        }
      ],
      "stateMutability": "view",
      "type": "function"
    }
  ],
  "bytecode": "0x608060405234801561001057600080fd5b5060405161188d38038061188d83398101604081905261002f916104f2565b600080546001600160a01b0319908116339081178355825260066020526040808320805460ff1990811660019081179092556001600160a01b03868116865292909420805490941681179093558254908816911617905561009184848461009b565b5050505050610619565b3360009081526006602052604090205460ff166100ff5760405162461bcd60e51b815260206004820152601860248201527f4f6e6c79206f776e65722063616e2061646420746f6f6c73000000000000000060448201526064015b60405180910390fd5b81518351148015610111575080518251145b61015d5760405162461bcd60e51b815260206004820152601660248201527f417272617973206c656e677468206d69736d617463680000000000000000000060448201526064016100f6565b60005b83518110156102a55782818151811061017b5761017b610603565b60200260200101516002600086848151811061019957610199610603565b6020908102919091018101518252818101929092526040908101600020835181549385015192850151606086015163ffffffff1666010000000000000263ffffffff60301b1961ffff928316640100000000021665ffffffffffff60201b19958316620100000263ffffffff199097169290931691909117949094179290921691909117919091178155608090910151600190910155815182908290811061024357610243610603565b60200260200101516003600086848151811061026157610261610603565b602002602001015181526020019081526020016000206000820151816000015560208201518160010155604082015181600201559050508080600101915050610160565b50505050565b80516001600160a01b03811681146102c257600080fd5b919050565b634e487b7160e01b600052604160045260246000fd5b60405160a081016001600160401b03811182821017156102ff576102ff6102c7565b60405290565b604051606081016001600160401b03811182821017156102ff576102ff6102c7565b604051601f8201601f191681016001600160401b038111828210171561034f5761034f6102c7565b604052919050565b60006001600160401b03821115610370576103706102c7565b5060051b60200190565b805161ffff811681146102c257600080fd5b600082601f83011261039d57600080fd5b81516103b06103ab82610357565b610327565b80828252602082019150602060a084028601019250858311156103d257600080fd5b602085015b8381101561045a5760a081880312156103ef57600080fd5b6103f76102dd565b6104008261037a565b815261040e6020830161037a565b602082015261041f6040830161037a565b6040820152606082015163ffffffff8116811461043b57600080fd5b606082015260808281015190820152835260209092019160a0016103d7565b5095945050505050565b600082601f83011261047557600080fd5b81516104836103ab82610357565b808282526020820191506020606084028601019250858311156104a557600080fd5b602085015b8381101561045a57606081880312156104c257600080fd5b6104ca610305565b81518152602080830151818301526040808401519083015290845292909201916060016104aa565b600080600080600060a0868803121561050a57600080fd5b610513866102ab565b60208701519095506001600160401b0381111561052f57600080fd5b8601601f8101881361054057600080fd5b805161054e6103ab82610357565b8082825260208201915060208360051b85010192508a83111561057057600080fd5b6020840193505b82841015610592578351825260209384019390910190610577565b60408a0151909750925050506001600160401b038111156105b257600080fd5b6105be8882890161038c565b606088015190945090506001600160401b038111156105dc57600080fd5b6105e888828901610464565b9250506105f7608087016102ab565b90509295509295909350565b634e487b7160e01b600052603260045260246000fd5b611265806106286000396000f3fe608060405234801561001057600080fd5b50600436106101215760003560e01c806376784f97116100ad578063a6352d1411610071578063a6352d141461030e578063acd50aa11461032e578063bc60c31d14610368578063d285af53146103f4578063f1e9f1e5146104e657600080fd5b806376784f971461024657806383ec2e901461027d578063856a8ace146102905780638da5cb5b146102c357806391ff75a9146102ee57600080fd5b80634631c878116100f45780634631c878146101b0578063609738a7146101d057806362bc2275146101e35780636694a244146101f65780636be1e0d61461023357600080fd5b806313af4035146101265780632a24b5091461013b5780632a94a9c81461018a57806331a27c121461019d575b600080fd5b610139610134366004610d25565b6104f9565b005b61016a610149366004610d47565b60036020526000908152604090208054600182015460029092015490919083565b604080519384526020840192909252908201526060015b60405180910390f35b610139610198366004610d25565b61057a565b6101396101ab366004610e4e565b610603565b6101c36101be366004610e7b565b6106e8565b6040516101819190610ea5565b6101396101de366004610ec6565b61075b565b6101396101f1366004610e7b565b61080c565b61021e610204366004610d47565b600090815260036020526040902080546001909101549091565b60408051928352602083019190915201610181565b610139610241366004611064565b6108f9565b61026f610254366004610d25565b6001600160a01b031660009081526005602052604090205490565b604051908152602001610181565b61013961028b366004611151565b610afb565b6102b361029e366004610d25565b60066020526000908152604090205460ff1681565b6040519015158152602001610181565b6000546102d6906001600160a01b031681565b6040516001600160a01b039091168152602001610181565b6103016102fc366004610d25565b610bfb565b6040516101819190611190565b61026f61031c366004610d25565b60056020526000908152604090205481565b61016a61033c366004610e7b565b600460209081526000928352604080842090915290825290208054600182015460029092015490919083565b6103ba610376366004610d47565b6002602052600090815260409020805460019091015461ffff80831692620100008104821692640100000000820490921691600160301b90910463ffffffff169085565b6040805161ffff96871681529486166020860152929094169183019190915263ffffffff166060820152608081019190915260a001610181565b610492610402366004610d47565b6040805160a08101825260008082526020820181905291810182905260608101829052608081019190915250600090815260026020908152604091829020825160a081018452815461ffff8082168352620100008204811694830194909452640100000000810490931693810193909352600160301b90910463ffffffff16606083015260010154608082015290565b6040516101819190600060a08201905061ffff835116825261ffff602084015116602083015261ffff604084015116604083015263ffffffff60608401511660608301526080830151608083015292915050565b6001546102d6906001600160a01b031681565b6000546001600160a01b031633146105585760405162461bcd60e51b815260206004820152601860248201527f4f6e6c79206f776e65722063616e20736574206f776e6572000000000000000060448201526064015b60405180910390fd5b600080546001600160a01b0319166001600160a01b0392909216919091179055565b6000546001600160a01b031633146105df5760405162461bcd60e51b815260206004820152602260248201527f4f6e6c79206f776e65722063616e2073657420636f6e74726163742063616c6c60448201526132b960f11b606482015260840161054f565b6001600160a01b03166000908152600660205260409020805460ff19166001179055565b3360009081526006602052604090205460ff166106625760405162461bcd60e51b815260206004820152601860248201527f4f6e6c79206f776e65722063616e206564697420746f6f6c0000000000000000604482015260640161054f565b600091825260026020908152604092839020825181549284015194840151606085015163ffffffff16600160301b0263ffffffff60301b1961ffff928316640100000000021669ffffffffffff0000000019978316620100000263ffffffff19909616929093169190911793909317949094169390931717825560800151600190910155565b61070c60405180606001604052806000815260200160008152602001600081525090565b506001600160a01b038216600090815260046020908152604080832084845282529182902082516060810184528154815260018201549281019290925260020154918101919091525b92915050565b3360009081526006602052604090205460ff166107ba5760405162461bcd60e51b815260206004820152601d60248201527f4f6e6c79206f776e65722063616e2065646974207573657220746f6f6c000000604482015260640161054f565b6040805160608101825293845260208085019384528482019283526001600160a01b03909616600090815260048752818120958152949095529390922090518155905160018201559051600290910155565b3360009081526006602052604090205460ff1661086b5760405162461bcd60e51b815260206004820152601c60248201527f4f6e6c79206f776e65722063616e20616464207573657220746f6f6c00000000604482015260640161054f565b6001600160a01b03821660008181526005602081815260408084208054825160608101845288815288875260028086528488205462010000900461ffff16828701908152428387019081528a8a5260048852868a20858b5288529589209251835551600183015593519301929092559484529190528254909290916108ef836111f2565b9190505550505050565b3360009081526006602052604090205460ff166109585760405162461bcd60e51b815260206004820152601860248201527f4f6e6c79206f776e65722063616e2061646420746f6f6c730000000000000000604482015260640161054f565b8151835114801561096a575080518251145b6109af5760405162461bcd60e51b8152602060048201526016602482015275082e4e4c2f2e640d8cadccee8d040dad2e6dac2e8c6d60531b604482015260640161054f565b60005b8351811015610af5578281815181106109cd576109cd611219565b6020026020010151600260008684815181106109eb576109eb611219565b6020908102919091018101518252818101929092526040908101600020835181549385015192850151606086015163ffffffff16600160301b0263ffffffff60301b1961ffff928316640100000000021669ffffffffffff0000000019958316620100000263ffffffff1990971692909316919091179490941792909216919091179190911781556080909101516001909101558151829082908110610a9357610a93611219565b602002602001015160036000868481518110610ab157610ab1611219565b6020026020010151815260200190815260200160002060008201518160000155602082015181600101556040820151816002015590505080806001019150506109b2565b50505050565b3360009081526006602052604090205460ff16610b5a5760405162461bcd60e51b815260206004820152601760248201527f4f6e6c79206f776e65722063616e2061646420746f6f6c000000000000000000604482015260640161054f565b600092835260026020818152604080862085518154848801518489015160608a015163ffffffff16600160301b0263ffffffff60301b1961ffff928316640100000000021669ffffffffffff0000000019938316620100000263ffffffff1990951692909516919091179290921716919091171781556080909501516001958601556003825294859020835181559083015193810193909355920151910155565b6001600160a01b0381166000908152600560205260408120546060918167ffffffffffffffff811115610c3057610c30610d60565b604051908082528060200260200182016040528015610c8557816020015b610c7260405180606001604052806000815260200160008152602001600081525090565b815260200190600190039081610c4e5790505b50905060005b82811015610d01576001600160a01b038516600090815260046020908152604080832084845282529182902082516060810184528154815260018201549281019290925260020154918101919091528251839083908110610cee57610cee611219565b6020908102919091010152600101610c8b565b509392505050565b80356001600160a01b0381168114610d2057600080fd5b919050565b600060208284031215610d3757600080fd5b610d4082610d09565b9392505050565b600060208284031215610d5957600080fd5b5035919050565b634e487b7160e01b600052604160045260246000fd5b604051601f8201601f1916810167ffffffffffffffff81118282101715610d9f57610d9f610d60565b604052919050565b803561ffff81168114610d2057600080fd5b600060a08284031215610dcb57600080fd5b60405160a0810167ffffffffffffffff81118282101715610dee57610dee610d60565b604052905080610dfd83610da7565b8152610e0b60208401610da7565b6020820152610e1c60408401610da7565b6040820152606083013563ffffffff81168114610e3857600080fd5b6060820152608092830135920191909152919050565b60008060c08385031215610e6157600080fd5b82359150610e728460208501610db9565b90509250929050565b60008060408385031215610e8e57600080fd5b610e9783610d09565b946020939093013593505050565b81518152602080830151908201526040808301519082015260608101610755565b600080600080600060a08688031215610ede57600080fd5b610ee786610d09565b97602087013597506040870135966060810135965060800135945092505050565b600067ffffffffffffffff821115610f2257610f22610d60565b5060051b60200190565b600082601f830112610f3d57600080fd5b8135610f50610f4b82610f08565b610d76565b80828252602082019150602060a08402860101925085831115610f7257600080fd5b602085015b83811015610f9957610f898782610db9565b835260209092019160a001610f77565b5095945050505050565b600060608284031215610fb557600080fd5b6040516060810167ffffffffffffffff81118282101715610fd857610fd8610d60565b60409081528335825260208085013590830152928301359281019290925250919050565b600082601f83011261100d57600080fd5b813561101b610f4b82610f08565b8082825260208201915060206060840286010192508583111561103d57600080fd5b602085015b83811015610f99576110548782610fa3565b8352602090920191606001611042565b60008060006060848603121561107957600080fd5b833567ffffffffffffffff81111561109057600080fd5b8401601f810186136110a157600080fd5b80356110af610f4b82610f08565b8082825260208201915060208360051b8501019250888311156110d157600080fd5b6020840193505b828410156110f35783358252602093840193909101906110d8565b9550505050602084013567ffffffffffffffff81111561111257600080fd5b61111e86828701610f2c565b925050604084013567ffffffffffffffff81111561113b57600080fd5b61114786828701610ffc565b9150509250925092565b6000806000610120848603121561116757600080fd5b833592506111788560208601610db9565b91506111878560c08601610fa3565b90509250925092565b602080825282518282018190526000918401906040840190835b818110156111e7576111d18385518051825260208082015190830152604090810151910152565b60209390930192606092909201916001016111aa565b509095945050505050565b60006001820161121257634e487b7160e01b600052601160045260246000fd5b5060010190565b634e487b7160e01b600052603260045260246000fdfea2646970667358221220415bab4abc65bf496abd163e1749f39870bf1ac270fba6ff00fe0a4561796ee464736f6c634300081c0033",
  "linkReferences": {},
  "deployedLinkReferences": {}
}