{
  "_format": "hh-sol-artifact-1",
  "contractName": "Tools",
  "sourceName": "contracts/Tools.sol",
  "abi": [
    {
      "inputs": [
        {
          "internalType": "address",
          "name": "_rewardToken",
          "type": "address"
        }
      ],
      "stateMutability": "nonpayable",
      "type": "constructor"
    },
    {
      "inputs": [],
      "name": "RewardToken",
      "outputs": [
        {
          "internalType": "address",
          "name": "",
          "type": "address"
        }
      ],
      "stateMutability": "view",
      "type": "function"
    },
    {
      "inputs": [
        {
          "internalType": "uint256",
          "name": "lvl",
          "type": "uint256"
        },
        {
          "components": [
            {
              "internalType": "uint16",
              "name": "energyConsumption",
              "type": "uint16"
            },
            {
              "internalType": "uint16",
              "name": "durability",
              "type": "uint16"
            },
            {
              "internalType": "uint16",
              "name": "durabilityConsumption",
              "type": "uint16"
            },
            {
              "internalType": "uint32",
              "name": "chargeTime",
              "type": "uint32"
            },
            {
              "internalType": "uint256",
              "name": "rewardRate",
              "type": "uint256"
            }
          ],
          "internalType": "struct Tools.Tool",
          "name": "tool",
          "type": "tuple"
        },
        {
          "components": [
            {
              "internalType": "uint256",
              "name": "woodCost",
              "type": "uint256"
            },
            {
              "internalType": "uint256",
              "name": "goldCost",
              "type": "uint256"
            },
            {
              "internalType": "uint256",
              "name": "repayCost",
              "type": "uint256"
            }
          ],
          "internalType": "struct Tools.ToolCost",
          "name": "_toolCost",
          "type": "tuple"
        }
      ],
      "name": "addTool",
      "outputs": [],
      "stateMutability": "nonpayable",
      "type": "function"
    },
    {
      "inputs": [
        {
          "internalType": "address",
          "name": "user",
          "type": "address"
        },
        {
          "internalType": "uint256",
          "name": "id",
          "type": "uint256"
        },
        {
          "internalType": "uint256",
          "name": "lvl",
          "type": "uint256"
        }
      ],
      "name": "addUserTool",
      "outputs": [],
      "stateMutability": "nonpayable",
      "type": "function"
    },
    {
      "inputs": [
        {
          "internalType": "address",
          "name": "contractCallers",
          "type": "address"
        }
      ],
      "name": "contractCallers",
      "outputs": [
        {
          "internalType": "bool",
          "name": "",
          "type": "bool"
        }
      ],
      "stateMutability": "view",
      "type": "function"
    },
    {
      "inputs": [
        {
          "internalType": "uint256",
          "name": "lvl",
          "type": "uint256"
        },
        {
          "components": [
            {
              "internalType": "uint16",
              "name": "energyConsumption",
              "type": "uint16"
            },
            {
              "internalType": "uint16",
              "name": "durability",
              "type": "uint16"
            },
            {
              "internalType": "uint16",
              "name": "durabilityConsumption",
              "type": "uint16"
            },
            {
              "internalType": "uint32",
              "name": "chargeTime",
              "type": "uint32"
            },
            {
              "internalType": "uint256",
              "name": "rewardRate",
              "type": "uint256"
            }
          ],
          "internalType": "struct Tools.Tool",
          "name": "tool",
          "type": "tuple"
        }
      ],
      "name": "editTool",
      "outputs": [],
      "stateMutability": "nonpayable",
      "type": "function"
    },
    {
      "inputs": [
        {
          "internalType": "address",
          "name": "user",
          "type": "address"
        },
        {
          "internalType": "uint256",
          "name": "id",
          "type": "uint256"
        },
        {
          "internalType": "uint256",
          "name": "lvl",
          "type": "uint256"
        },
        {
          "internalType": "uint256",
          "name": "durability",
          "type": "uint256"
        },
        {
          "internalType": "uint256",
          "name": "lastHarvest",
          "type": "uint256"
        }
      ],
      "name": "editUserTool",
      "outputs": [],
      "stateMutability": "nonpayable",
      "type": "function"
    },
    {
      "inputs": [
        {
          "internalType": "address",
          "name": "user",
          "type": "address"
        }
      ],
      "name": "getAllUserTools",
      "outputs": [
        {
          "components": [
            {
              "internalType": "uint256",
              "name": "lvl",
              "type": "uint256"
            },
            {
              "internalType": "uint256",
              "name": "durability",
              "type": "uint256"
            },
            {
              "internalType": "uint256",
              "name": "lastHarvest",
              "type": "uint256"
            }
          ],
          "internalType": "struct Tools.UserTools[]",
          "name": "",
          "type": "tuple[]"
        }
      ],
      "stateMutability": "view",
      "type": "function"
    },
    {
      "inputs": [
        {
          "internalType": "uint256",
          "name": "lvl",
          "type": "uint256"
        }
      ],
      "name": "getTool",
      "outputs": [
        {
          "components": [
            {
              "internalType": "uint16",
              "name": "energyConsumption",
              "type": "uint16"
            },
            {
              "internalType": "uint16",
              "name": "durability",
              "type": "uint16"
            },
            {
              "internalType": "uint16",
              "name": "durabilityConsumption",
              "type": "uint16"
            },
            {
              "internalType": "uint32",
              "name": "chargeTime",
              "type": "uint32"
            },
            {
              "internalType": "uint256",
              "name": "rewardRate",
              "type": "uint256"
            }
          ],
          "internalType": "struct Tools.Tool",
          "name": "",
          "type": "tuple"
        }
      ],
      "stateMutability": "view",
      "type": "function"
    },
    {
      "inputs": [
        {
          "internalType": "uint256",
          "name": "lvl",
          "type": "uint256"
        }
      ],
      "name": "getToolCost",
      "outputs": [
        {
          "internalType": "uint256",
          "name": "",
          "type": "uint256"
        },
        {
          "internalType": "uint256",
          "name": "",
          "type": "uint256"
        }
      ],
      "stateMutability": "view",
      "type": "function"
    },
    {
      "inputs": [
        {
          "internalType": "address",
          "name": "user",
          "type": "address"
        },
        {
          "internalType": "uint256",
          "name": "id",
          "type": "uint256"
        }
      ],
      "name": "getUserTool",
      "outputs": [
        {
          "components": [
            {
              "internalType": "uint256",
              "name": "lvl",
              "type": "uint256"
            },
            {
              "internalType": "uint256",
              "name": "durability",
              "type": "uint256"
            },
            {
              "internalType": "uint256",
              "name": "lastHarvest",
              "type": "uint256"
            }
          ],
          "internalType": "struct Tools.UserTools",
          "name": "",
          "type": "tuple"
        }
      ],
      "stateMutability": "view",
      "type": "function"
    },
    {
      "inputs": [],
      "name": "owner",
      "outputs": [
        {
          "internalType": "address",
          "name": "",
          "type": "address"
        }
      ],
      "stateMutability": "view",
      "type": "function"
    },
    {
      "inputs": [
        {
          "internalType": "address",
          "name": "_contractCaller",
          "type": "address"
        }
      ],
      "name": "setContractCaller",
      "outputs": [],
      "stateMutability": "nonpayable",
      "type": "function"
    },
    {
      "inputs": [
        {
          "internalType": "address",
          "name": "_owner",
          "type": "address"
        }
      ],
      "name": "setOwner",
      "outputs": [],
      "stateMutability": "nonpayable",
      "type": "function"
    },
    {
      "inputs": [
        {
          "internalType": "uint256",
          "name": "lvl",
          "type": "uint256"
        }
      ],
      "name": "toolCost",
      "outputs": [
        {
          "internalType": "uint256",
          "name": "woodCost",
          "type": "uint256"
        },
        {
          "internalType": "uint256",
          "name": "goldCost",
          "type": "uint256"
        },
        {
          "internalType": "uint256",
          "name": "repayCost",
          "type": "uint256"
        }
      ],
      "stateMutability": "view",
      "type": "function"
    },
    {
      "inputs": [
        {
          "internalType": "uint256",
          "name": "lvl",
          "type": "uint256"
        }
      ],
      "name": "tools",
      "outputs": [
        {
          "internalType": "uint16",
          "name": "energyConsumption",
          "type": "uint16"
        },
        {
          "internalType": "uint16",
          "name": "durability",
          "type": "uint16"
        },
        {
          "internalType": "uint16",
          "name": "durabilityConsumption",
          "type": "uint16"
        },
        {
          "internalType": "uint32",
          "name": "chargeTime",
          "type": "uint32"
        },
        {
          "internalType": "uint256",
          "name": "rewardRate",
          "type": "uint256"
        }
      ],
      "stateMutability": "view",
      "type": "function"
    },
    {
      "inputs": [
        {
          "internalType": "address",
          "name": "user",
          "type": "address"
        }
      ],
      "name": "totalUserTools",
      "outputs": [
        {
          "internalType": "uint256",
          "name": "",
          "type": "uint256"
        }
      ],
      "stateMutability": "view",
      "type": "function"
    },
    {
      "inputs": [
        {
          "internalType": "address",
          "name": "user",
          "type": "address"
        },
        {
          "internalType": "uint256",
          "name": "id",
          "type": "uint256"
        }
      ],
      "name": "userTools",
      "outputs": [
        {
          "internalType": "uint256",
          "name": "lvl",
          "type": "uint256"
        },
        {
          "internalType": "uint256",
          "name": "durability",
          "type": "uint256"
        },
        {
          "internalType": "uint256",
          "name": "lastHarvest",
          "type": "uint256"
        }
      ],
      "stateMutability": "view",
      "type": "function"
    }
  ],
  "bytecode": "0x6080604052348015600f57600080fd5b50604051610ecb380380610ecb833981016040819052602c916076565b60008054336001600160a01b031991821681178355825260056020526040909120805460ff1916600190811790915580549091166001600160a01b039290921691909117905560a4565b600060208284031215608757600080fd5b81516001600160a01b0381168114609d57600080fd5b9392505050565b610e18806100b36000396000f3fe608060405234801561001057600080fd5b506004361061010b5760003560e01c806383ec2e90116100a2578063a6352d1411610071578063a6352d14146102ae578063acd50aa1146102cf578063bc60c31d14610309578063d285af5314610395578063f1e9f1e51461048757600080fd5b806383ec2e901461021d578063856a8ace146102305780638da5cb5b1461026357806391ff75a91461028e57600080fd5b80634631c878116100de5780634631c8781461019a578063609738a7146101ba5780636694a244146101cd5780637493fe551461020a57600080fd5b806313af4035146101105780632a24b509146101255780632a94a9c81461017457806331a27c1214610187575b600080fd5b61012361011e366004610ad3565b61049a565b005b610154610133366004610aee565b60036020526000908152604090208054600182015460029092015490919083565b604080519384526020840192909252908201526060015b60405180910390f35b610123610182366004610ad3565b61051b565b610123610195366004610bbc565b6105a4565b6101ad6101a8366004610be9565b61068c565b60405161016b9190610c13565b6101236101c8366004610c34565b6106ff565b6101f56101db366004610aee565b600090815260036020526040902080546001909101549091565b6040805192835260208301919091520161016b565b610123610218366004610c76565b6107b0565b61012361022b366004610ca9565b610874565b61025361023e366004610ad3565b60056020526000908152604090205460ff1681565b604051901515815260200161016b565b600054610276906001600160a01b031681565b6040516001600160a01b03909116815260200161016b565b6102a161029c366004610ad3565b610977565b60405161016b9190610d43565b6102c16102bc366004610ad3565b610a78565b60405190815260200161016b565b6101546102dd366004610be9565b600460209081526000928352604080842090915290825290208054600182015460029092015490919083565b61035b610317366004610aee565b6002602052600090815260409020805460019091015461ffff80831692620100008104821692640100000000820490921691600160301b90910463ffffffff169085565b6040805161ffff96871681529486166020860152929094169183019190915263ffffffff166060820152608081019190915260a00161016b565b6104336103a3366004610aee565b6040805160a08101825260008082526020820181905291810182905260608101829052608081019190915250600090815260026020908152604091829020825160a081018452815461ffff8082168352620100008204811694830194909452640100000000810490931693810193909352600160301b90910463ffffffff16606083015260010154608082015290565b60405161016b9190600060a08201905061ffff835116825261ffff602084015116602083015261ffff604084015116604083015263ffffffff60608401511660608301526080830151608083015292915050565b600154610276906001600160a01b031681565b6000546001600160a01b031633146104f95760405162461bcd60e51b815260206004820152601860248201527f4f6e6c79206f776e65722063616e20736574206f776e6572000000000000000060448201526064015b60405180910390fd5b600080546001600160a01b0319166001600160a01b0392909216919091179055565b6000546001600160a01b031633146105805760405162461bcd60e51b815260206004820152602260248201527f4f6e6c79206f776e65722063616e2073657420636f6e74726163742063616c6c60448201526132b960f11b60648201526084016104f0565b6001600160a01b03166000908152600560205260409020805460ff19166001179055565b3360009081526005602052604090205460ff166106035760405162461bcd60e51b815260206004820152601860248201527f4f6e6c79206f776e65722063616e206564697420746f6f6c000000000000000060448201526064016104f0565b600091825260026020908152604092839020825181549284015194840151606085015163ffffffff16600160301b0269ffffffff0000000000001961ffff928316640100000000021669ffffffffffff0000000019978316620100000263ffffffff19909616929093169190911793909317949094169390931717825560800151600190910155565b6106b060405180606001604052806000815260200160008152602001600081525090565b506001600160a01b038216600090815260046020908152604080832084845282529182902082516060810184528154815260018201549281019290925260020154918101919091525b92915050565b3360009081526005602052604090205460ff1661075e5760405162461bcd60e51b815260206004820152601d60248201527f4f6e6c79206f776e65722063616e2065646974207573657220746f6f6c00000060448201526064016104f0565b6040805160608101825293845260208085019384528482019283526001600160a01b03909616600090815260048752818120958152949095529390922090518155905160018201559051600290910155565b3360009081526005602052604090205460ff1661080f5760405162461bcd60e51b815260206004820152601c60248201527f4f6e6c79206f776e65722063616e20616464207573657220746f6f6c0000000060448201526064016104f0565b604080516060810182528281526000928352600260208181528385205461ffff6201000090910416818401908152428486019081526001600160a01b039098168652600482528486209686529590529190922091518255915160018201559151910155565b3360009081526005602052604090205460ff166108d35760405162461bcd60e51b815260206004820152601760248201527f4f6e6c79206f776e65722063616e2061646420746f6f6c00000000000000000060448201526064016104f0565b600092835260026020818152604080862085518154848801518489015160608a015163ffffffff16600160301b0269ffffffff0000000000001961ffff928316640100000000021669ffffffffffff0000000019938316620100000263ffffffff1990951692909516919091179290921716919091171781556080909501516001958601556003825294859020835181559083015193810193909355920151910155565b60408051600a80825261016082019092526060916000918291816020015b6109b960405180606001604052806000815260200160008152602001600081525090565b8152602001906001900390816109955790505090505b6001600160a01b038416600090815260046020908152604080832085845290915290205415610a71576001600160a01b038416600090815260046020908152604080832085845282529182902082516060810184528154815260018201549281019290925260020154918101919091528151829084908110610a5357610a53610da5565b60200260200101819052508180610a6990610dbb565b9250506109cf565b9392505050565b6000805b6001600160a01b0383166000908152600460209081526040808320848452909152902054156106f95780610aaf81610dbb565b915050610a7c565b80356001600160a01b0381168114610ace57600080fd5b919050565b600060208284031215610ae557600080fd5b610a7182610ab7565b600060208284031215610b0057600080fd5b5035919050565b803561ffff81168114610ace57600080fd5b600060a08284031215610b2b57600080fd5b60405160a0810167ffffffffffffffff81118282101715610b5c57634e487b7160e01b600052604160045260246000fd5b604052905080610b6b83610b07565b8152610b7960208401610b07565b6020820152610b8a60408401610b07565b6040820152606083013563ffffffff81168114610ba657600080fd5b6060820152608092830135920191909152919050565b60008060c08385031215610bcf57600080fd5b82359150610be08460208501610b19565b90509250929050565b60008060408385031215610bfc57600080fd5b610c0583610ab7565b946020939093013593505050565b815181526020808301519082015260408083015190820152606081016106f9565b600080600080600060a08688031215610c4c57600080fd5b610c5586610ab7565b97602087013597506040870135966060810135965060800135945092505050565b600080600060608486031215610c8b57600080fd5b610c9484610ab7565b95602085013595506040909401359392505050565b6000806000838503610120811215610cc057600080fd5b84359350610cd18660208701610b19565b9250606060bf1982011215610ce557600080fd5b506040516060810167ffffffffffffffff81118282101715610d1757634e487b7160e01b600052604160045260246000fd5b604090815260c0860135825260e086013560208301526101009095013594810194909452509093909250565b602080825282518282018190526000918401906040840190835b81811015610d9a57610d848385518051825260208082015190830152604090810151910152565b6020939093019260609290920191600101610d5d565b509095945050505050565b634e487b7160e01b600052603260045260246000fd5b600060018201610ddb57634e487b7160e01b600052601160045260246000fd5b506001019056fea26469706673582212203cafa2edd73ebe26a77591fdc1fb65e3164d2e2d31194e45ae347dbfe7b7a4b864736f6c634300081c0033",
  "linkReferences": {},
  "deployedLinkReferences": {}
}