{
  "contracts/FarmerWorld.sol": {
    "FarmerWorld": {
      "abi": [
        {
          "inputs": [
            {
              "internalType": "address",
              "name": "_woodTools",
              "type": "address"
            },
            {
              "internalType": "address",
              "name": "_goldTools",
              "type": "address"
            },
            {
              "internalType": "address",
              "name": "_foodTools",
              "type": "address"
            },
            {
              "internalType": "address",
              "name": "_foodToken",
              "type": "address"
            },
            {
              "internalType": "address",
              "name": "_goldToken",
              "type": "address"
            },
            {
              "internalType": "address",
              "name": "_woodToken",
              "type": "address"
            }
          ],
          "stateMutability": "nonpayable",
          "type": "constructor"
        },
        {
          "inputs": [
            {
              "internalType": "address",
              "name": "user",
              "type": "address"
            },
            {
              "internalType": "uint256",
              "name": "goldAmount",
              "type": "uint256"
            }
          ],
          "name": "buyEnergy",
          "outputs": [],
          "stateMutability": "nonpayable",
          "type": "function"
        },
        {
          "inputs": [
            {
              "internalType": "address",
              "name": "contractCallers",
              "type": "address"
            }
          ],
          "name": "contractCallers",
          "outputs": [
            {
              "internalType": "bool",
              "name": "",
              "type": "bool"
            }
          ],
          "stateMutability": "view",
          "type": "function"
        },
        {
          "inputs": [
            {
              "internalType": "contract ITools",
              "name": "_toolContract",
              "type": "address"
            },
            {
              "internalType": "uint256",
              "name": "_toolLvl",
              "type": "uint256"
            }
          ],
          "name": "craft",
          "outputs": [],
          "stateMutability": "nonpayable",
          "type": "function"
        },
        {
          "inputs": [
            {
              "internalType": "contract ITools",
              "name": "_toolContract",
              "type": "address"
            },
            {
              "internalType": "uint256",
              "name": "id",
              "type": "uint256"
            },
            {
              "internalType": "address",
              "name": "user",
              "type": "address"
            }
          ],
          "name": "deleteTool",
          "outputs": [],
          "stateMutability": "nonpayable",
          "type": "function"
        },
        {
          "inputs": [
            {
              "components": [
                {
                  "components": [
                    {
                      "internalType": "address",
                      "name": "token",
                      "type": "address"
                    },
                    {
                      "internalType": "uint256",
                      "name": "amount",
                      "type": "uint256"
                    }
                  ],
                  "internalType": "struct ISignatureTransfer.TokenPermissions",
                  "name": "permitted",
                  "type": "tuple"
                },
                {
                  "internalType": "uint256",
                  "name": "nonce",
                  "type": "uint256"
                },
                {
                  "internalType": "uint256",
                  "name": "deadline",
                  "type": "uint256"
                }
              ],
              "internalType": "struct ISignatureTransfer.PermitTransferFrom",
              "name": "permit",
              "type": "tuple"
            },
            {
              "components": [
                {
                  "internalType": "address",
                  "name": "to",
                  "type": "address"
                },
                {
                  "internalType": "uint256",
                  "name": "requestedAmount",
                  "type": "uint256"
                }
              ],
              "internalType": "struct ISignatureTransfer.SignatureTransferDetails",
              "name": "transferDetails",
              "type": "tuple"
            },
            {
              "internalType": "bytes",
              "name": "signature",
              "type": "bytes"
            }
          ],
          "name": "deposit",
          "outputs": [],
          "stateMutability": "nonpayable",
          "type": "function"
        },
        {
          "inputs": [
            {
              "internalType": "uint256",
              "name": "_foodToEnergy",
              "type": "uint256"
            },
            {
              "internalType": "uint256",
              "name": "_goldToEndurance",
              "type": "uint256"
            }
          ],
          "name": "editGameTokenRelation",
          "outputs": [],
          "stateMutability": "nonpayable",
          "type": "function"
        },
        {
          "inputs": [
            {
              "internalType": "address",
              "name": "user",
              "type": "address"
            },
            {
              "internalType": "uint256",
              "name": "woodBalance",
              "type": "uint256"
            },
            {
              "internalType": "uint256",
              "name": "goldBalance",
              "type": "uint256"
            },
            {
              "internalType": "uint256",
              "name": "foodBalance",
              "type": "uint256"
            },
            {
              "internalType": "uint256",
              "name": "energy",
              "type": "uint256"
            },
            {
              "internalType": "uint256",
              "name": "maxEnergy",
              "type": "uint256"
            }
          ],
          "name": "editUser",
          "outputs": [],
          "stateMutability": "nonpayable",
          "type": "function"
        },
        {
          "inputs": [
            {
              "internalType": "contract ITools",
              "name": "_toolContract",
              "type": "address"
            },
            {
              "internalType": "address",
              "name": "user",
              "type": "address"
            },
            {
              "internalType": "uint256",
              "name": "id",
              "type": "uint256"
            },
            {
              "internalType": "uint256",
              "name": "lvl",
              "type": "uint256"
            },
            {
              "internalType": "uint256",
              "name": "durability",
              "type": "uint256"
            },
            {
              "internalType": "uint256",
              "name": "lastHarvest",
              "type": "uint256"
            }
          ],
          "name": "editUserTool",
          "outputs": [],
          "stateMutability": "nonpayable",
          "type": "function"
        },
        {
          "inputs": [],
          "name": "foodToken",
          "outputs": [
            {
              "internalType": "contract IERC20",
              "name": "",
              "type": "address"
            }
          ],
          "stateMutability": "view",
          "type": "function"
        },
        {
          "inputs": [],
          "name": "foodTools",
          "outputs": [
            {
              "internalType": "contract ITools",
              "name": "",
              "type": "address"
            }
          ],
          "stateMutability": "view",
          "type": "function"
        },
        {
          "inputs": [],
          "name": "goldToken",
          "outputs": [
            {
              "internalType": "contract IERC20",
              "name": "",
              "type": "address"
            }
          ],
          "stateMutability": "view",
          "type": "function"
        },
        {
          "inputs": [],
          "name": "goldTools",
          "outputs": [
            {
              "internalType": "contract ITools",
              "name": "",
              "type": "address"
            }
          ],
          "stateMutability": "view",
          "type": "function"
        },
        {
          "inputs": [
            {
              "internalType": "contract ITools",
              "name": "_toolContract",
              "type": "address"
            },
            {
              "internalType": "uint256",
              "name": "id",
              "type": "uint256"
            }
          ],
          "name": "harvest",
          "outputs": [],
          "stateMutability": "nonpayable",
          "type": "function"
        },
        {
          "inputs": [],
          "name": "owner",
          "outputs": [
            {
              "internalType": "address",
              "name": "",
              "type": "address"
            }
          ],
          "stateMutability": "view",
          "type": "function"
        },
        {
          "inputs": [],
          "name": "permit2",
          "outputs": [
            {
              "internalType": "contract ISignatureTransfer",
              "name": "",
              "type": "address"
            }
          ],
          "stateMutability": "view",
          "type": "function"
        },
        {
          "inputs": [
            {
              "internalType": "contract ITools",
              "name": "_toolContract",
              "type": "address"
            },
            {
              "internalType": "uint256",
              "name": "id",
              "type": "uint256"
            },
            {
              "components": [
                {
                  "components": [
                    {
                      "internalType": "address",
                      "name": "token",
                      "type": "address"
                    },
                    {
                      "internalType": "uint256",
                      "name": "amount",
                      "type": "uint256"
                    }
                  ],
                  "internalType": "struct ISignatureTransfer.TokenPermissions",
                  "name": "permitted",
                  "type": "tuple"
                },
                {
                  "internalType": "uint256",
                  "name": "nonce",
                  "type": "uint256"
                },
                {
                  "internalType": "uint256",
                  "name": "deadline",
                  "type": "uint256"
                }
              ],
              "internalType": "struct ISignatureTransfer.PermitTransferFrom",
              "name": "permit",
              "type": "tuple"
            },
            {
              "components": [
                {
                  "internalType": "address",
                  "name": "to",
                  "type": "address"
                },
                {
                  "internalType": "uint256",
                  "name": "requestedAmount",
                  "type": "uint256"
                }
              ],
              "internalType": "struct ISignatureTransfer.SignatureTransferDetails",
              "name": "transferDetails",
              "type": "tuple"
            },
            {
              "internalType": "bytes",
              "name": "signature",
              "type": "bytes"
            }
          ],
          "name": "repair",
          "outputs": [],
          "stateMutability": "nonpayable",
          "type": "function"
        },
        {
          "inputs": [
            {
              "internalType": "address",
              "name": "_contractCaller",
              "type": "address"
            }
          ],
          "name": "setContractCaller",
          "outputs": [],
          "stateMutability": "nonpayable",
          "type": "function"
        },
        {
          "inputs": [
            {
              "internalType": "address",
              "name": "_owner",
              "type": "address"
            }
          ],
          "name": "setOwner",
          "outputs": [],
          "stateMutability": "nonpayable",
          "type": "function"
        },
        {
          "inputs": [],
          "name": "tokenRelation",
          "outputs": [
            {
              "internalType": "uint256",
              "name": "foodToEnergy",
              "type": "uint256"
            },
            {
              "internalType": "uint256",
              "name": "goldToEndurance",
              "type": "uint256"
            }
          ],
          "stateMutability": "view",
          "type": "function"
        },
        {
          "inputs": [
            {
              "internalType": "address",
              "name": "user",
              "type": "address"
            }
          ],
          "name": "users",
          "outputs": [
            {
              "internalType": "uint256",
              "name": "woodBalance",
              "type": "uint256"
            },
            {
              "internalType": "uint256",
              "name": "goldBalance",
              "type": "uint256"
            },
            {
              "internalType": "uint256",
              "name": "foodBalance",
              "type": "uint256"
            },
            {
              "internalType": "uint256",
              "name": "energy",
              "type": "uint256"
            },
            {
              "internalType": "uint256",
              "name": "maxEnergy",
              "type": "uint256"
            }
          ],
          "stateMutability": "view",
          "type": "function"
        },
        {
          "inputs": [],
          "name": "woodToken",
          "outputs": [
            {
              "internalType": "contract IERC20",
              "name": "",
              "type": "address"
            }
          ],
          "stateMutability": "view",
          "type": "function"
        },
        {
          "inputs": [],
          "name": "woodTools",
          "outputs": [
            {
              "internalType": "contract ITools",
              "name": "",
              "type": "address"
            }
          ],
          "stateMutability": "view",
          "type": "function"
        }
      ],
      "evm": {
        "bytecode": {
          "linkReferences": {},
          "object": "6080604052600080546001600160a01b0319166e22d473030f116ddee9f6b43ac78ba317905534801561003157600080fd5b50604051611e52380380611e52833981016040819052610050916100de565b600180546001600160a01b03199081166001600160a01b0398891617909155600280548216968816969096179095556003805486169487169490941790935560048054851692861692909217909155600580548416918516919091179055600680549092169216919091179055610152565b80516001600160a01b03811681146100d957600080fd5b919050565b60008060008060008060c087890312156100f757600080fd5b610100876100c2565b955061010e602088016100c2565b945061011c604088016100c2565b935061012a606088016100c2565b9250610138608088016100c2565b915061014660a088016100c2565b90509295509295509295565b611cf1806101616000396000f3fe608060405234801561001057600080fd5b50600436106101425760003560e01c80638da5cb5b116100b8578063c1d942c11161007c578063c1d942c114610318578063d160aa0d1461032b578063e7dd114a1461033e578063e864fd1914610351578063eaaa43e514610364578063f5d9676f1461037757600080fd5b80638da5cb5b1461026757806394002b571461027a5780639ba99eff1461028d578063a459a8f3146102a0578063a87430ba146102b357600080fd5b80632a94a9c81161010a5780632a94a9c8146101d55780632ddd99e4146101e857806336fd7e1b146101fb5780636cdc3c421461020e5780637cde55aa14610221578063856a8ace1461023457600080fd5b8063018ee9b71461014757806312261ee71461015c57806312eb9a6a1461018c578063132ec0641461019f57806313af4035146101c2575b600080fd5b61015a610155366004611695565b61038a565b005b60005461016f906001600160a01b031681565b6040516001600160a01b0390911681526020015b60405180910390f35b60035461016f906001600160a01b031681565b6008546009546101ad919082565b60408051928352602083019190915201610183565b61015a6101d03660046116c1565b610867565b61015a6101e33660046116c1565b6108e3565b61015a6101f63660046116e5565b61096c565b61015a610209366004611695565b6109f0565b60045461016f906001600160a01b031681565b61015a61022f366004611707565b610af6565b6102576102423660046116c1565b600b6020526000908152604090205460ff1681565b6040519015158152602001610183565b60075461016f906001600160a01b031681565b60055461016f906001600160a01b031681565b60015461016f906001600160a01b031681565b61015a6102ae366004611753565b610bc2565b6102f06102c13660046116c1565b600a60205260009081526040902080546001820154600283015460038401546004909401549293919290919085565b604080519586526020860194909452928401919091526060830152608082015260a001610183565b61015a610326366004611695565b610dee565b61015a6103393660046118c6565b611039565b60025461016f906001600160a01b031681565b61015a61035f36600461194b565b611392565b61015a6103723660046119a4565b61146f565b60065461016f906001600160a01b031681565b60405163acd50aa160e01b8152336004820152602481018290526000906001600160a01b0384169063acd50aa190604401606060405180830381865afa1580156103d8573d6000803e3d6000fd5b505050506040513d601f19601f820116820180604052508101906103fc9190611a07565b805160405163bc60c31d60e01b815260048101919091529091506000906001600160a01b0385169063bc60c31d9060240160a060405180830381865afa15801561044a573d6000803e3d6000fd5b505050506040513d601f19601f8201168201806040525081019061046e9190611a5b565b82519091506000036104b85760405162461bcd60e51b815260206004820152600e60248201526d151bdbdb081b9bdd08199bdd5b9960921b60448201526064015b60405180910390fd5b806040015161ffff16826020015110156105055760405162461bcd60e51b815260206004820152600e60248201526d2a37b7b61034b990313937b5b2b760911b60448201526064016104af565b836001600160a01b031663609738a733858560000151856040015161ffff1687602001516105339190611b17565b426040518663ffffffff1660e01b8152600401610554959493929190611b30565b600060405180830381600087803b15801561056e57600080fd5b505af1158015610582573d6000803e3d6000fd5b50505050806040015161ffff168260200151036105a4576105a4848433610bc2565b815160405163bc60c31d60e01b81526000916001600160a01b0387169163bc60c31d916105d79160040190815260200190565b60a060405180830381865afa1580156105f4573d6000803e3d6000fd5b505050506040513d601f19601f820116820180604052508101906106189190611a5b565b51336000908152600a602052604090206003015461ffff90911691508111156106775760405162461bcd60e51b81526020600482015260116024820152704e6f7420656e6f75676820656e6572677960781b60448201526064016104af565b336000908152600a602052604081206003018054839290610699908490611b17565b909155505060408301516000906106b09042611b17565b606084015190915063ffffffff1660008183106106d2575060808401516106f0565b818386608001516106e39190611b5e565b6106ed9190611b75565b90505b6001546001600160a01b03908116908916036107825760065460405163a9059cbb60e01b8152336004820152602481018390526001600160a01b039091169063a9059cbb906044015b6020604051808303816000875af1158015610758573d6000803e3d6000fd5b505050506040513d601f19601f8201168201806040525081019061077c9190611b97565b5061085d565b6002546001600160a01b03908116908916036107cf5760055460405163a9059cbb60e01b8152336004820152602481018390526001600160a01b039091169063a9059cbb90604401610739565b6003546001600160a01b039081169089160361085d576004805460405163a9059cbb60e01b81523392810192909252602482018390526001600160a01b03169063a9059cbb906044016020604051808303816000875af1158015610837573d6000803e3d6000fd5b505050506040513d601f19601f8201168201806040525081019061085b9190611b97565b505b5050505050505050565b6007546001600160a01b031633146108c15760405162461bcd60e51b815260206004820152601860248201527f4f6e6c79206f776e65722063616e20736574206f776e6572000000000000000060448201526064016104af565b600780546001600160a01b0319166001600160a01b0392909216919091179055565b6007546001600160a01b031633146109485760405162461bcd60e51b815260206004820152602260248201527f4f6e6c79206f776e65722063616e2073657420636f6e74726163742063616c6c60448201526132b960f11b60648201526084016104af565b6001600160a01b03166000908152600b60205260409020805460ff19166001179055565b336000908152600b602052604090205460ff166109e55760405162461bcd60e51b815260206004820152603160248201527f4f6e6c7920636f6e74726163742063616c6c65722063616e206564697420676160448201527036b2903a37b5b2b7103932b630ba34b7b760791b60648201526084016104af565b600891909155600955565b6001600160a01b0382166000908152600a6020526040902060010154811115610a4d5760405162461bcd60e51b815260206004820152600f60248201526e139bdd08195b9bdd59da0819dbdb19608a1b60448201526064016104af565b600854600090610a5d9083611b5e565b6001600160a01b0384166000908152600a6020526040902060040154909150808211610a895781610a8b565b805b6001600160a01b0385166000908152600a6020526040812060030180549294508492909190610abb908490611bb9565b90915550506001600160a01b0384166000908152600a602052604081206001018054859290610aeb908490611b17565b909155505050505050565b336000908152600b602052604090205460ff16610b605760405162461bcd60e51b815260206004820152602260248201527f4f6e6c7920636f6e74726163742063616c6c65722063616e206564697420757360448201526132b960f11b60648201526084016104af565b6040805160a081018252958652602080870195865286820194855260608701938452608087019283526001600160a01b039097166000908152600a90975290952093518455915160018401555160028301555160038201559051600490910155565b60405163298d4b4560e21b81526001600160a01b0382811660048301526000919085169063a6352d1490602401602060405180830381865afa158015610c0c573d6000803e3d6000fd5b505050506040513d601f19601f82011682018060405250810190610c309190611bcc565b9050808310610c735760405162461bcd60e51b815260206004820152600f60248201526e125b9d985b1a59081d1bdbdb081251608a1b60448201526064016104af565b610c7e600182611b17565b831015610d805760006001600160a01b03851663acd50aa184610ca2600186611b17565b6040516001600160e01b031960e085901b1681526001600160a01b0390921660048301526024820152604401606060405180830381865afa158015610ceb573d6000803e3d6000fd5b505050506040513d601f19601f82011682018060405250810190610d0f9190611a07565b80516020820151604080840151905163609738a760e01b81529394506001600160a01b0389169363609738a793610d4c9389938b93600401611b30565b600060405180830381600087803b158015610d6657600080fd5b505af1158015610d7a573d6000803e3d6000fd5b50505050505b6001600160a01b03841663609738a783610d9b600185611b17565b60008060006040518663ffffffff1660e01b8152600401610dc0959493929190611b30565b600060405180830381600087803b158015610dda57600080fd5b505af115801561085d573d6000803e3d6000fd5b6040516319a5289160e21b81526004810182905260009081906001600160a01b03851690636694a244906024016040805180830381865afa158015610e37573d6000803e3d6000fd5b505050506040513d601f19601f82011682018060405250810190610e5b9190611be5565b336000908152600a60205260409020549193509150821115610eb15760405162461bcd60e51b815260206004820152600f60248201526e139bdd08195b9bdd59da081ddbdbd9608a1b60448201526064016104af565b336000908152600a6020526040902060010154811115610f055760405162461bcd60e51b815260206004820152600f60248201526e139bdd08195b9bdd59da0819dbdb19608a1b60448201526064016104af565b336000908152600a602052604081208054849290610f24908490611b17565b9091555050336000908152600a602052604081206001018054839290610f4b908490611b17565b909155505060405163298d4b4560e21b81523360048201526000906001600160a01b0386169063a6352d1490602401602060405180830381865afa158015610f97573d6000803e3d6000fd5b505050506040513d601f19601f82011682018060405250810190610fbb9190611bcc565b90506001600160a01b038516637493fe5533610fd8846001611bb9565b6040516001600160e01b031960e085901b1681526001600160a01b039092166004830152602482015260448101879052606401600060405180830381600087803b15801561102557600080fd5b505af115801561085b573d6000803e3d6000fd5b83515160208401358061108e5760405162461bcd60e51b815260206004820152601d60248201527f416d6f756e74206d7573742062652067726561746572207468616e203000000060448201526064016104af565b3061109c60208701876116c1565b6001600160a01b0316146110e75760405162461bcd60e51b8152602060048201526012602482015271496e76616c696420746f206164647265737360701b60448201526064016104af565b6005546001600160a01b038381169116146111445760405162461bcd60e51b815260206004820152601c60248201527f4f6e6c7920676f6c6420746f6b656e20697320737570706f727465640000000060448201526064016104af565b60005460405163187945bd60e11b81526001600160a01b03909116906330f28b7a9061117c908990899033908a908a90600401611c32565b600060405180830381600087803b15801561119657600080fd5b505af11580156111aa573d6000803e3d6000fd5b505060405163acd50aa160e01b8152336004820152602481018a9052600092506001600160a01b038b16915063acd50aa190604401606060405180830381865afa1580156111fc573d6000803e3d6000fd5b505050506040513d601f19601f820116820180604052508101906112209190611a07565b805160405163bc60c31d60e01b815260048101919091529091506000906001600160a01b038b169063bc60c31d9060240160a060405180830381865afa15801561126e573d6000803e3d6000fd5b505050506040513d601f19601f820116820180604052508101906112929190611a5b565b82519091506000036112d75760405162461bcd60e51b815260206004820152600e60248201526d151bdbdb081b9bdd08199bdd5b9960921b60448201526064016104af565b6009546000906112e79085611b5e565b90506000826020015161ffff16905060008285602001516113089190611bb9565b9050818111156113155750805b8c6001600160a01b031663609738a7338e8860000151858a604001516040518663ffffffff1660e01b8152600401611351959493929190611b30565b600060405180830381600087803b15801561136b57600080fd5b505af115801561137f573d6000803e3d6000fd5b5050505050505050505050505050505050565b336000908152600b602052604090205460ff166114015760405162461bcd60e51b815260206004820152602760248201527f4f6e6c7920636f6e74726163742063616c6c65722063616e2065646974207573604482015266195c881d1bdbdb60ca1b60648201526084016104af565b60405163609738a760e01b81526001600160a01b0387169063609738a7906114359088908890889088908890600401611b30565b600060405180830381600087803b15801561144f57600080fd5b505af1158015611463573d6000803e3d6000fd5b50505050505050505050565b8351516020840135806114c45760405162461bcd60e51b815260206004820152601d60248201527f416d6f756e74206d7573742062652067726561746572207468616e203000000060448201526064016104af565b306114d260208701876116c1565b6001600160a01b03161461151d5760405162461bcd60e51b8152602060048201526012602482015271496e76616c696420746f206164647265737360701b60448201526064016104af565b60005460405163187945bd60e11b81526001600160a01b03909116906330f28b7a90611555908990899033908a908a90600401611c32565b600060405180830381600087803b15801561156f57600080fd5b505af1158015611583573d6000803e3d6000fd5b50506006546001600160a01b039081169085160391506115c9905057336000908152600a6020526040812080548392906115be908490611bb9565b909155506116759050565b6005546001600160a01b039081169083160361160157336000908152600a6020526040812060010180548392906115be908490611bb9565b6004546001600160a01b039081169083160361163957336000908152600a6020526040812060020180548392906115be908490611bb9565b60405162461bcd60e51b81526020600482015260116024820152702ab739bab83837b93a32b2103a37b5b2b760791b60448201526064016104af565b505050505050565b6001600160a01b038116811461169257600080fd5b50565b600080604083850312156116a857600080fd5b82356116b38161167d565b946020939093013593505050565b6000602082840312156116d357600080fd5b81356116de8161167d565b9392505050565b600080604083850312156116f857600080fd5b50508035926020909101359150565b60008060008060008060c0878903121561172057600080fd5b863561172b8161167d565b9860208801359850604088013597606081013597506080810135965060a00135945092505050565b60008060006060848603121561176857600080fd5b83356117738161167d565b925060208401359150604084013561178a8161167d565b809150509250925092565b6040516060810167ffffffffffffffff811182821017156117c657634e487b7160e01b600052604160045260246000fd5b60405290565b600081830360808112156117df57600080fd5b6117e7611795565b915060408112156117f757600080fd5b506040805190810167ffffffffffffffff8111828210171561182957634e487b7160e01b600052604160045260246000fd5b60405282356118378161167d565b8152602083810135818301529082526040808401359183019190915260609092013591810191909152919050565b60006040828403121561187757600080fd5b50919050565b60008083601f84011261188f57600080fd5b50813567ffffffffffffffff8111156118a757600080fd5b6020830191508360208285010111156118bf57600080fd5b9250929050565b60008060008060008061012087890312156118e057600080fd5b86356118eb8161167d565b95506020870135945061190188604089016117cc565b93506119108860c08901611865565b925061010087013567ffffffffffffffff81111561192d57600080fd5b61193989828a0161187d565b979a9699509497509295939492505050565b60008060008060008060c0878903121561196457600080fd5b863561196f8161167d565b9550602087013561197f8161167d565b95989597505050506040840135936060810135936080820135935060a0909101359150565b60008060008060e085870312156119ba57600080fd5b6119c486866117cc565b93506119d38660808701611865565b925060c085013567ffffffffffffffff8111156119ef57600080fd5b6119fb8782880161187d565b95989497509550505050565b60006060828403128015611a1a57600080fd5b50611a23611795565b82518152602080840151908201526040928301519281019290925250919050565b805161ffff81168114611a5657600080fd5b919050565b600060a0828403128015611a6e57600080fd5b5060405160009060a0810167ffffffffffffffff81118282101715611aa157634e487b7160e01b83526041600452602483fd5b604052611aad84611a44565b8152611abb60208501611a44565b6020820152611acc60408501611a44565b6040820152606084015163ffffffff81168114611ae7578283fd5b606082015260809384015193810193909352509092915050565b634e487b7160e01b600052601160045260246000fd5b81810381811115611b2a57611b2a611b01565b92915050565b6001600160a01b03959095168552602085019390935260408401919091526060830152608082015260a00190565b8082028115828204841417611b2a57611b2a611b01565b600082611b9257634e487b7160e01b600052601260045260246000fd5b500490565b600060208284031215611ba957600080fd5b815180151581146116de57600080fd5b80820180821115611b2a57611b2a611b01565b600060208284031215611bde57600080fd5b5051919050565b60008060408385031215611bf857600080fd5b505080516020909101519092909150565b81835281816020850137506000828201602090810191909152601f909101601f19169091010190565b855180516001600160a01b0316825260209081015181830152860151604080830191909152860151606082015260008535611c6c8161167d565b6001600160a01b03166080830152602086013560a0830152611c9960c08301866001600160a01b03169052565b61010060e0830152611cb061010083018486611c09565b97965050505050505056fea26469706673582212208d0f29ba1d69d4cfe9a79745954b64af83c4c666f5e4f90ef5f98587d84f081764736f6c634300081c0033",
          "opcodes": "PUSH1 0x80 PUSH1 0x40 MSTORE PUSH1 0x0 DUP1 SLOAD PUSH1 0x1 PUSH1 0x1 PUSH1 0xA0 SHL SUB NOT AND PUSH15 0x22D473030F116DDEE9F6B43AC78BA3 OR SWAP1 SSTORE CALLVALUE DUP1 ISZERO PUSH2 0x31 JUMPI PUSH1 0x0 DUP1 REVERT JUMPDEST POP PUSH1 0x40 MLOAD PUSH2 0x1E52 CODESIZE SUB DUP1 PUSH2 0x1E52 DUP4 CODECOPY DUP2 ADD PUSH1 0x40 DUP2 SWAP1 MSTORE PUSH2 0x50 SWAP2 PUSH2 0xDE JUMP JUMPDEST PUSH1 0x1 DUP1 SLOAD PUSH1 0x1 PUSH1 0x1 PUSH1 0xA0 SHL SUB NOT SWAP1 DUP2 AND PUSH1 0x1 PUSH1 0x1 PUSH1 0xA0 SHL SUB SWAP9 DUP10 AND OR SWAP1 SWAP2 SSTORE PUSH1 0x2 DUP1 SLOAD DUP3 AND SWAP7 DUP9 AND SWAP7 SWAP1 SWAP7 OR SWAP1 SWAP6 SSTORE PUSH1 0x3 DUP1 SLOAD DUP7 AND SWAP5 DUP8 AND SWAP5 SWAP1 SWAP5 OR SWAP1 SWAP4 SSTORE PUSH1 0x4 DUP1 SLOAD DUP6 AND SWAP3 DUP7 AND SWAP3 SWAP1 SWAP3 OR SWAP1 SWAP2 SSTORE PUSH1 0x5 DUP1 SLOAD DUP5 AND SWAP2 DUP6 AND SWAP2 SWAP1 SWAP2 OR SWAP1 SSTORE PUSH1 0x6 DUP1 SLOAD SWAP1 SWAP3 AND SWAP3 AND SWAP2 SWAP1 SWAP2 OR SWAP1 SSTORE PUSH2 0x152 JUMP JUMPDEST DUP1 MLOAD PUSH1 0x1 PUSH1 0x1 PUSH1 0xA0 SHL SUB DUP2 AND DUP2 EQ PUSH2 0xD9 JUMPI PUSH1 0x0 DUP1 REVERT JUMPDEST SWAP2 SWAP1 POP JUMP JUMPDEST PUSH1 0x0 DUP1 PUSH1 0x0 DUP1 PUSH1 0x0 DUP1 PUSH1 0xC0 DUP8 DUP10 SUB SLT ISZERO PUSH2 0xF7 JUMPI PUSH1 0x0 DUP1 REVERT JUMPDEST PUSH2 0x100 DUP8 PUSH2 0xC2 JUMP JUMPDEST SWAP6 POP PUSH2 0x10E PUSH1 0x20 DUP9 ADD PUSH2 0xC2 JUMP JUMPDEST SWAP5 POP PUSH2 0x11C PUSH1 0x40 DUP9 ADD PUSH2 0xC2 JUMP JUMPDEST SWAP4 POP PUSH2 0x12A PUSH1 0x60 DUP9 ADD PUSH2 0xC2 JUMP JUMPDEST SWAP3 POP PUSH2 0x138 PUSH1 0x80 DUP9 ADD PUSH2 0xC2 JUMP JUMPDEST SWAP2 POP PUSH2 0x146 PUSH1 0xA0 DUP9 ADD PUSH2 0xC2 JUMP JUMPDEST SWAP1 POP SWAP3 SWAP6 POP SWAP3 SWAP6 POP SWAP3 SWAP6 JUMP JUMPDEST PUSH2 0x1CF1 DUP1 PUSH2 0x161 PUSH1 0x0 CODECOPY PUSH1 0x0 RETURN INVALID PUSH1 0x80 PUSH1 0x40 MSTORE CALLVALUE DUP1 ISZERO PUSH2 0x10 JUMPI PUSH1 0x0 DUP1 REVERT JUMPDEST POP PUSH1 0x4 CALLDATASIZE LT PUSH2 0x142 JUMPI PUSH1 0x0 CALLDATALOAD PUSH1 0xE0 SHR DUP1 PUSH4 0x8DA5CB5B GT PUSH2 0xB8 JUMPI DUP1 PUSH4 0xC1D942C1 GT PUSH2 0x7C JUMPI DUP1 PUSH4 0xC1D942C1 EQ PUSH2 0x318 JUMPI DUP1 PUSH4 0xD160AA0D EQ PUSH2 0x32B JUMPI DUP1 PUSH4 0xE7DD114A EQ PUSH2 0x33E JUMPI DUP1 PUSH4 0xE864FD19 EQ PUSH2 0x351 JUMPI DUP1 PUSH4 0xEAAA43E5 EQ PUSH2 0x364 JUMPI DUP1 PUSH4 0xF5D9676F EQ PUSH2 0x377 JUMPI PUSH1 0x0 DUP1 REVERT JUMPDEST DUP1 PUSH4 0x8DA5CB5B EQ PUSH2 0x267 JUMPI DUP1 PUSH4 0x94002B57 EQ PUSH2 0x27A JUMPI DUP1 PUSH4 0x9BA99EFF EQ PUSH2 0x28D JUMPI DUP1 PUSH4 0xA459A8F3 EQ PUSH2 0x2A0 JUMPI DUP1 PUSH4 0xA87430BA EQ PUSH2 0x2B3 JUMPI PUSH1 0x0 DUP1 REVERT JUMPDEST DUP1 PUSH4 0x2A94A9C8 GT PUSH2 0x10A JUMPI DUP1 PUSH4 0x2A94A9C8 EQ PUSH2 0x1D5 JUMPI DUP1 PUSH4 0x2DDD99E4 EQ PUSH2 0x1E8 JUMPI DUP1 PUSH4 0x36FD7E1B EQ PUSH2 0x1FB JUMPI DUP1 PUSH4 0x6CDC3C42 EQ PUSH2 0x20E JUMPI DUP1 PUSH4 0x7CDE55AA EQ PUSH2 0x221 JUMPI DUP1 PUSH4 0x856A8ACE EQ PUSH2 0x234 JUMPI PUSH1 0x0 DUP1 REVERT JUMPDEST DUP1 PUSH4 0x18EE9B7 EQ PUSH2 0x147 JUMPI DUP1 PUSH4 0x12261EE7 EQ PUSH2 0x15C JUMPI DUP1 PUSH4 0x12EB9A6A EQ PUSH2 0x18C JUMPI DUP1 PUSH4 0x132EC064 EQ PUSH2 0x19F JUMPI DUP1 PUSH4 0x13AF4035 EQ PUSH2 0x1C2 JUMPI JUMPDEST PUSH1 0x0 DUP1 REVERT JUMPDEST PUSH2 0x15A PUSH2 0x155 CALLDATASIZE PUSH1 0x4 PUSH2 0x1695 JUMP JUMPDEST PUSH2 0x38A JUMP JUMPDEST STOP JUMPDEST PUSH1 0x0 SLOAD PUSH2 0x16F SWAP1 PUSH1 0x1 PUSH1 0x1 PUSH1 0xA0 SHL SUB AND DUP2 JUMP JUMPDEST PUSH1 0x40 MLOAD PUSH1 0x1 PUSH1 0x1 PUSH1 0xA0 SHL SUB SWAP1 SWAP2 AND DUP2 MSTORE PUSH1 0x20 ADD JUMPDEST PUSH1 0x40 MLOAD DUP1 SWAP2 SUB SWAP1 RETURN JUMPDEST PUSH1 0x3 SLOAD PUSH2 0x16F SWAP1 PUSH1 0x1 PUSH1 0x1 PUSH1 0xA0 SHL SUB AND DUP2 JUMP JUMPDEST PUSH1 0x8 SLOAD PUSH1 0x9 SLOAD PUSH2 0x1AD SWAP2 SWAP1 DUP3 JUMP JUMPDEST PUSH1 0x40 DUP1 MLOAD SWAP3 DUP4 MSTORE PUSH1 0x20 DUP4 ADD SWAP2 SWAP1 SWAP2 MSTORE ADD PUSH2 0x183 JUMP JUMPDEST PUSH2 0x15A PUSH2 0x1D0 CALLDATASIZE PUSH1 0x4 PUSH2 0x16C1 JUMP JUMPDEST PUSH2 0x867 JUMP JUMPDEST PUSH2 0x15A PUSH2 0x1E3 CALLDATASIZE PUSH1 0x4 PUSH2 0x16C1 JUMP JUMPDEST PUSH2 0x8E3 JUMP JUMPDEST PUSH2 0x15A PUSH2 0x1F6 CALLDATASIZE PUSH1 0x4 PUSH2 0x16E5 JUMP JUMPDEST PUSH2 0x96C JUMP JUMPDEST PUSH2 0x15A PUSH2 0x209 CALLDATASIZE PUSH1 0x4 PUSH2 0x1695 JUMP JUMPDEST PUSH2 0x9F0 JUMP JUMPDEST PUSH1 0x4 SLOAD PUSH2 0x16F SWAP1 PUSH1 0x1 PUSH1 0x1 PUSH1 0xA0 SHL SUB AND DUP2 JUMP JUMPDEST PUSH2 0x15A PUSH2 0x22F CALLDATASIZE PUSH1 0x4 PUSH2 0x1707 JUMP JUMPDEST PUSH2 0xAF6 JUMP JUMPDEST PUSH2 0x257 PUSH2 0x242 CALLDATASIZE PUSH1 0x4 PUSH2 0x16C1 JUMP JUMPDEST PUSH1 0xB PUSH1 0x20 MSTORE PUSH1 0x0 SWAP1 DUP2 MSTORE PUSH1 0x40 SWAP1 KECCAK256 SLOAD PUSH1 0xFF AND DUP2 JUMP JUMPDEST PUSH1 0x40 MLOAD SWAP1 ISZERO ISZERO DUP2 MSTORE PUSH1 0x20 ADD PUSH2 0x183 JUMP JUMPDEST PUSH1 0x7 SLOAD PUSH2 0x16F SWAP1 PUSH1 0x1 PUSH1 0x1 PUSH1 0xA0 SHL SUB AND DUP2 JUMP JUMPDEST PUSH1 0x5 SLOAD PUSH2 0x16F SWAP1 PUSH1 0x1 PUSH1 0x1 PUSH1 0xA0 SHL SUB AND DUP2 JUMP JUMPDEST PUSH1 0x1 SLOAD PUSH2 0x16F SWAP1 PUSH1 0x1 PUSH1 0x1 PUSH1 0xA0 SHL SUB AND DUP2 JUMP JUMPDEST PUSH2 0x15A PUSH2 0x2AE CALLDATASIZE PUSH1 0x4 PUSH2 0x1753 JUMP JUMPDEST PUSH2 0xBC2 JUMP JUMPDEST PUSH2 0x2F0 PUSH2 0x2C1 CALLDATASIZE PUSH1 0x4 PUSH2 0x16C1 JUMP JUMPDEST PUSH1 0xA PUSH1 0x20 MSTORE PUSH1 0x0 SWAP1 DUP2 MSTORE PUSH1 0x40 SWAP1 KECCAK256 DUP1 SLOAD PUSH1 0x1 DUP3 ADD SLOAD PUSH1 0x2 DUP4 ADD SLOAD PUSH1 0x3 DUP5 ADD SLOAD PUSH1 0x4 SWAP1 SWAP5 ADD SLOAD SWAP3 SWAP4 SWAP2 SWAP3 SWAP1 SWAP2 SWAP1 DUP6 JUMP JUMPDEST PUSH1 0x40 DUP1 MLOAD SWAP6 DUP7 MSTORE PUSH1 0x20 DUP7 ADD SWAP5 SWAP1 SWAP5 MSTORE SWAP3 DUP5 ADD SWAP2 SWAP1 SWAP2 MSTORE PUSH1 0x60 DUP4 ADD MSTORE PUSH1 0x80 DUP3 ADD MSTORE PUSH1 0xA0 ADD PUSH2 0x183 JUMP JUMPDEST PUSH2 0x15A PUSH2 0x326 CALLDATASIZE PUSH1 0x4 PUSH2 0x1695 JUMP JUMPDEST PUSH2 0xDEE JUMP JUMPDEST PUSH2 0x15A PUSH2 0x339 CALLDATASIZE PUSH1 0x4 PUSH2 0x18C6 JUMP JUMPDEST PUSH2 0x1039 JUMP JUMPDEST PUSH1 0x2 SLOAD PUSH2 0x16F SWAP1 PUSH1 0x1 PUSH1 0x1 PUSH1 0xA0 SHL SUB AND DUP2 JUMP JUMPDEST PUSH2 0x15A PUSH2 0x35F CALLDATASIZE PUSH1 0x4 PUSH2 0x194B JUMP JUMPDEST PUSH2 0x1392 JUMP JUMPDEST PUSH2 0x15A PUSH2 0x372 CALLDATASIZE PUSH1 0x4 PUSH2 0x19A4 JUMP JUMPDEST PUSH2 0x146F JUMP JUMPDEST PUSH1 0x6 SLOAD PUSH2 0x16F SWAP1 PUSH1 0x1 PUSH1 0x1 PUSH1 0xA0 SHL SUB AND DUP2 JUMP JUMPDEST PUSH1 0x40 MLOAD PUSH4 0xACD50AA1 PUSH1 0xE0 SHL DUP2 MSTORE CALLER PUSH1 0x4 DUP3 ADD MSTORE PUSH1 0x24 DUP2 ADD DUP3 SWAP1 MSTORE PUSH1 0x0 SWAP1 PUSH1 0x1 PUSH1 0x1 PUSH1 0xA0 SHL SUB DUP5 AND SWAP1 PUSH4 0xACD50AA1 SWAP1 PUSH1 0x44 ADD PUSH1 0x60 PUSH1 0x40 MLOAD DUP1 DUP4 SUB DUP2 DUP7 GAS STATICCALL ISZERO DUP1 ISZERO PUSH2 0x3D8 JUMPI RETURNDATASIZE PUSH1 0x0 DUP1 RETURNDATACOPY RETURNDATASIZE PUSH1 0x0 REVERT JUMPDEST POP POP POP POP PUSH1 0x40 MLOAD RETURNDATASIZE PUSH1 0x1F NOT PUSH1 0x1F DUP3 ADD AND DUP3 ADD DUP1 PUSH1 0x40 MSTORE POP DUP2 ADD SWAP1 PUSH2 0x3FC SWAP2 SWAP1 PUSH2 0x1A07 JUMP JUMPDEST DUP1 MLOAD PUSH1 0x40 MLOAD PUSH4 0xBC60C31D PUSH1 0xE0 SHL DUP2 MSTORE PUSH1 0x4 DUP2 ADD SWAP2 SWAP1 SWAP2 MSTORE SWAP1 SWAP2 POP PUSH1 0x0 SWAP1 PUSH1 0x1 PUSH1 0x1 PUSH1 0xA0 SHL SUB DUP6 AND SWAP1 PUSH4 0xBC60C31D SWAP1 PUSH1 0x24 ADD PUSH1 0xA0 PUSH1 0x40 MLOAD DUP1 DUP4 SUB DUP2 DUP7 GAS STATICCALL ISZERO DUP1 ISZERO PUSH2 0x44A JUMPI RETURNDATASIZE PUSH1 0x0 DUP1 RETURNDATACOPY RETURNDATASIZE PUSH1 0x0 REVERT JUMPDEST POP POP POP POP PUSH1 0x40 MLOAD RETURNDATASIZE PUSH1 0x1F NOT PUSH1 0x1F DUP3 ADD AND DUP3 ADD DUP1 PUSH1 0x40 MSTORE POP DUP2 ADD SWAP1 PUSH2 0x46E SWAP2 SWAP1 PUSH2 0x1A5B JUMP JUMPDEST DUP3 MLOAD SWAP1 SWAP2 POP PUSH1 0x0 SUB PUSH2 0x4B8 JUMPI PUSH1 0x40 MLOAD PUSH3 0x461BCD PUSH1 0xE5 SHL DUP2 MSTORE PUSH1 0x20 PUSH1 0x4 DUP3 ADD MSTORE PUSH1 0xE PUSH1 0x24 DUP3 ADD MSTORE PUSH14 0x151BDBDB081B9BDD08199BDD5B99 PUSH1 0x92 SHL PUSH1 0x44 DUP3 ADD MSTORE PUSH1 0x64 ADD JUMPDEST PUSH1 0x40 MLOAD DUP1 SWAP2 SUB SWAP1 REVERT JUMPDEST DUP1 PUSH1 0x40 ADD MLOAD PUSH2 0xFFFF AND DUP3 PUSH1 0x20 ADD MLOAD LT ISZERO PUSH2 0x505 JUMPI PUSH1 0x40 MLOAD PUSH3 0x461BCD PUSH1 0xE5 SHL DUP2 MSTORE PUSH1 0x20 PUSH1 0x4 DUP3 ADD MSTORE PUSH1 0xE PUSH1 0x24 DUP3 ADD MSTORE PUSH14 0x2A37B7B61034B990313937B5B2B7 PUSH1 0x91 SHL PUSH1 0x44 DUP3 ADD MSTORE PUSH1 0x64 ADD PUSH2 0x4AF JUMP JUMPDEST DUP4 PUSH1 0x1 PUSH1 0x1 PUSH1 0xA0 SHL SUB AND PUSH4 0x609738A7 CALLER DUP6 DUP6 PUSH1 0x0 ADD MLOAD DUP6 PUSH1 0x40 ADD MLOAD PUSH2 0xFFFF AND DUP8 PUSH1 0x20 ADD MLOAD PUSH2 0x533 SWAP2 SWAP1 PUSH2 0x1B17 JUMP JUMPDEST TIMESTAMP PUSH1 0x40 MLOAD DUP7 PUSH4 0xFFFFFFFF AND PUSH1 0xE0 SHL DUP2 MSTORE PUSH1 0x4 ADD PUSH2 0x554 SWAP6 SWAP5 SWAP4 SWAP3 SWAP2 SWAP1 PUSH2 0x1B30 JUMP JUMPDEST PUSH1 0x0 PUSH1 0x40 MLOAD DUP1 DUP4 SUB DUP2 PUSH1 0x0 DUP8 DUP1 EXTCODESIZE ISZERO DUP1 ISZERO PUSH2 0x56E JUMPI PUSH1 0x0 DUP1 REVERT JUMPDEST POP GAS CALL ISZERO DUP1 ISZERO PUSH2 0x582 JUMPI RETURNDATASIZE PUSH1 0x0 DUP1 RETURNDATACOPY RETURNDATASIZE PUSH1 0x0 REVERT JUMPDEST POP POP POP POP DUP1 PUSH1 0x40 ADD MLOAD PUSH2 0xFFFF AND DUP3 PUSH1 0x20 ADD MLOAD SUB PUSH2 0x5A4 JUMPI PUSH2 0x5A4 DUP5 DUP5 CALLER PUSH2 0xBC2 JUMP JUMPDEST DUP2 MLOAD PUSH1 0x40 MLOAD PUSH4 0xBC60C31D PUSH1 0xE0 SHL DUP2 MSTORE PUSH1 0x0 SWAP2 PUSH1 0x1 PUSH1 0x1 PUSH1 0xA0 SHL SUB DUP8 AND SWAP2 PUSH4 0xBC60C31D SWAP2 PUSH2 0x5D7 SWAP2 PUSH1 0x4 ADD SWAP1 DUP2 MSTORE PUSH1 0x20 ADD SWAP1 JUMP JUMPDEST PUSH1 0xA0 PUSH1 0x40 MLOAD DUP1 DUP4 SUB DUP2 DUP7 GAS STATICCALL ISZERO DUP1 ISZERO PUSH2 0x5F4 JUMPI RETURNDATASIZE PUSH1 0x0 DUP1 RETURNDATACOPY RETURNDATASIZE PUSH1 0x0 REVERT JUMPDEST POP POP POP POP PUSH1 0x40 MLOAD RETURNDATASIZE PUSH1 0x1F NOT PUSH1 0x1F DUP3 ADD AND DUP3 ADD DUP1 PUSH1 0x40 MSTORE POP DUP2 ADD SWAP1 PUSH2 0x618 SWAP2 SWAP1 PUSH2 0x1A5B JUMP JUMPDEST MLOAD CALLER PUSH1 0x0 SWAP1 DUP2 MSTORE PUSH1 0xA PUSH1 0x20 MSTORE PUSH1 0x40 SWAP1 KECCAK256 PUSH1 0x3 ADD SLOAD PUSH2 0xFFFF SWAP1 SWAP2 AND SWAP2 POP DUP2 GT ISZERO PUSH2 0x677 JUMPI PUSH1 0x40 MLOAD PUSH3 0x461BCD PUSH1 0xE5 SHL DUP2 MSTORE PUSH1 0x20 PUSH1 0x4 DUP3 ADD MSTORE PUSH1 0x11 PUSH1 0x24 DUP3 ADD MSTORE PUSH17 0x4E6F7420656E6F75676820656E65726779 PUSH1 0x78 SHL PUSH1 0x44 DUP3 ADD MSTORE PUSH1 0x64 ADD PUSH2 0x4AF JUMP JUMPDEST CALLER PUSH1 0x0 SWAP1 DUP2 MSTORE PUSH1 0xA PUSH1 0x20 MSTORE PUSH1 0x40 DUP2 KECCAK256 PUSH1 0x3 ADD DUP1 SLOAD DUP4 SWAP3 SWAP1 PUSH2 0x699 SWAP1 DUP5 SWAP1 PUSH2 0x1B17 JUMP JUMPDEST SWAP1 SWAP2 SSTORE POP POP PUSH1 0x40 DUP4 ADD MLOAD PUSH1 0x0 SWAP1 PUSH2 0x6B0 SWAP1 TIMESTAMP PUSH2 0x1B17 JUMP JUMPDEST PUSH1 0x60 DUP5 ADD MLOAD SWAP1 SWAP2 POP PUSH4 0xFFFFFFFF AND PUSH1 0x0 DUP2 DUP4 LT PUSH2 0x6D2 JUMPI POP PUSH1 0x80 DUP5 ADD MLOAD PUSH2 0x6F0 JUMP JUMPDEST DUP2 DUP4 DUP7 PUSH1 0x80 ADD MLOAD PUSH2 0x6E3 SWAP2 SWAP1 PUSH2 0x1B5E JUMP JUMPDEST PUSH2 0x6ED SWAP2 SWAP1 PUSH2 0x1B75 JUMP JUMPDEST SWAP1 POP JUMPDEST PUSH1 0x1 SLOAD PUSH1 0x1 PUSH1 0x1 PUSH1 0xA0 SHL SUB SWAP1 DUP2 AND SWAP1 DUP10 AND SUB PUSH2 0x782 JUMPI PUSH1 0x6 SLOAD PUSH1 0x40 MLOAD PUSH4 0xA9059CBB PUSH1 0xE0 SHL DUP2 MSTORE CALLER PUSH1 0x4 DUP3 ADD MSTORE PUSH1 0x24 DUP2 ADD DUP4 SWAP1 MSTORE PUSH1 0x1 PUSH1 0x1 PUSH1 0xA0 SHL SUB SWAP1 SWAP2 AND SWAP1 PUSH4 0xA9059CBB SWAP1 PUSH1 0x44 ADD JUMPDEST PUSH1 0x20 PUSH1 0x40 MLOAD DUP1 DUP4 SUB DUP2 PUSH1 0x0 DUP8 GAS CALL ISZERO DUP1 ISZERO PUSH2 0x758 JUMPI RETURNDATASIZE PUSH1 0x0 DUP1 RETURNDATACOPY RETURNDATASIZE PUSH1 0x0 REVERT JUMPDEST POP POP POP POP PUSH1 0x40 MLOAD RETURNDATASIZE PUSH1 0x1F NOT PUSH1 0x1F DUP3 ADD AND DUP3 ADD DUP1 PUSH1 0x40 MSTORE POP DUP2 ADD SWAP1 PUSH2 0x77C SWAP2 SWAP1 PUSH2 0x1B97 JUMP JUMPDEST POP PUSH2 0x85D JUMP JUMPDEST PUSH1 0x2 SLOAD PUSH1 0x1 PUSH1 0x1 PUSH1 0xA0 SHL SUB SWAP1 DUP2 AND SWAP1 DUP10 AND SUB PUSH2 0x7CF JUMPI PUSH1 0x5 SLOAD PUSH1 0x40 MLOAD PUSH4 0xA9059CBB PUSH1 0xE0 SHL DUP2 MSTORE CALLER PUSH1 0x4 DUP3 ADD MSTORE PUSH1 0x24 DUP2 ADD DUP4 SWAP1 MSTORE PUSH1 0x1 PUSH1 0x1 PUSH1 0xA0 SHL SUB SWAP1 SWAP2 AND SWAP1 PUSH4 0xA9059CBB SWAP1 PUSH1 0x44 ADD PUSH2 0x739 JUMP JUMPDEST PUSH1 0x3 SLOAD PUSH1 0x1 PUSH1 0x1 PUSH1 0xA0 SHL SUB SWAP1 DUP2 AND SWAP1 DUP10 AND SUB PUSH2 0x85D JUMPI PUSH1 0x4 DUP1 SLOAD PUSH1 0x40 MLOAD PUSH4 0xA9059CBB PUSH1 0xE0 SHL DUP2 MSTORE CALLER SWAP3 DUP2 ADD SWAP3 SWAP1 SWAP3 MSTORE PUSH1 0x24 DUP3 ADD DUP4 SWAP1 MSTORE PUSH1 0x1 PUSH1 0x1 PUSH1 0xA0 SHL SUB AND SWAP1 PUSH4 0xA9059CBB SWAP1 PUSH1 0x44 ADD PUSH1 0x20 PUSH1 0x40 MLOAD DUP1 DUP4 SUB DUP2 PUSH1 0x0 DUP8 GAS CALL ISZERO DUP1 ISZERO PUSH2 0x837 JUMPI RETURNDATASIZE PUSH1 0x0 DUP1 RETURNDATACOPY RETURNDATASIZE PUSH1 0x0 REVERT JUMPDEST POP POP POP POP PUSH1 0x40 MLOAD RETURNDATASIZE PUSH1 0x1F NOT PUSH1 0x1F DUP3 ADD AND DUP3 ADD DUP1 PUSH1 0x40 MSTORE POP DUP2 ADD SWAP1 PUSH2 0x85B SWAP2 SWAP1 PUSH2 0x1B97 JUMP JUMPDEST POP JUMPDEST POP POP POP POP POP POP POP POP JUMP JUMPDEST PUSH1 0x7 SLOAD PUSH1 0x1 PUSH1 0x1 PUSH1 0xA0 SHL SUB AND CALLER EQ PUSH2 0x8C1 JUMPI PUSH1 0x40 MLOAD PUSH3 0x461BCD PUSH1 0xE5 SHL DUP2 MSTORE PUSH1 0x20 PUSH1 0x4 DUP3 ADD MSTORE PUSH1 0x18 PUSH1 0x24 DUP3 ADD MSTORE PUSH32 0x4F6E6C79206F776E65722063616E20736574206F776E65720000000000000000 PUSH1 0x44 DUP3 ADD MSTORE PUSH1 0x64 ADD PUSH2 0x4AF JUMP JUMPDEST PUSH1 0x7 DUP1 SLOAD PUSH1 0x1 PUSH1 0x1 PUSH1 0xA0 SHL SUB NOT AND PUSH1 0x1 PUSH1 0x1 PUSH1 0xA0 SHL SUB SWAP3 SWAP1 SWAP3 AND SWAP2 SWAP1 SWAP2 OR SWAP1 SSTORE JUMP JUMPDEST PUSH1 0x7 SLOAD PUSH1 0x1 PUSH1 0x1 PUSH1 0xA0 SHL SUB AND CALLER EQ PUSH2 0x948 JUMPI PUSH1 0x40 MLOAD PUSH3 0x461BCD PUSH1 0xE5 SHL DUP2 MSTORE PUSH1 0x20 PUSH1 0x4 DUP3 ADD MSTORE PUSH1 0x22 PUSH1 0x24 DUP3 ADD MSTORE PUSH32 0x4F6E6C79206F776E65722063616E2073657420636F6E74726163742063616C6C PUSH1 0x44 DUP3 ADD MSTORE PUSH2 0x32B9 PUSH1 0xF1 SHL PUSH1 0x64 DUP3 ADD MSTORE PUSH1 0x84 ADD PUSH2 0x4AF JUMP JUMPDEST PUSH1 0x1 PUSH1 0x1 PUSH1 0xA0 SHL SUB AND PUSH1 0x0 SWAP1 DUP2 MSTORE PUSH1 0xB PUSH1 0x20 MSTORE PUSH1 0x40 SWAP1 KECCAK256 DUP1 SLOAD PUSH1 0xFF NOT AND PUSH1 0x1 OR SWAP1 SSTORE JUMP JUMPDEST CALLER PUSH1 0x0 SWAP1 DUP2 MSTORE PUSH1 0xB PUSH1 0x20 MSTORE PUSH1 0x40 SWAP1 KECCAK256 SLOAD PUSH1 0xFF AND PUSH2 0x9E5 JUMPI PUSH1 0x40 MLOAD PUSH3 0x461BCD PUSH1 0xE5 SHL DUP2 MSTORE PUSH1 0x20 PUSH1 0x4 DUP3 ADD MSTORE PUSH1 0x31 PUSH1 0x24 DUP3 ADD MSTORE PUSH32 0x4F6E6C7920636F6E74726163742063616C6C65722063616E2065646974206761 PUSH1 0x44 DUP3 ADD MSTORE PUSH17 0x36B2903A37B5B2B7103932B630BA34B7B7 PUSH1 0x79 SHL PUSH1 0x64 DUP3 ADD MSTORE PUSH1 0x84 ADD PUSH2 0x4AF JUMP JUMPDEST PUSH1 0x8 SWAP2 SWAP1 SWAP2 SSTORE PUSH1 0x9 SSTORE JUMP JUMPDEST PUSH1 0x1 PUSH1 0x1 PUSH1 0xA0 SHL SUB DUP3 AND PUSH1 0x0 SWAP1 DUP2 MSTORE PUSH1 0xA PUSH1 0x20 MSTORE PUSH1 0x40 SWAP1 KECCAK256 PUSH1 0x1 ADD SLOAD DUP2 GT ISZERO PUSH2 0xA4D JUMPI PUSH1 0x40 MLOAD PUSH3 0x461BCD PUSH1 0xE5 SHL DUP2 MSTORE PUSH1 0x20 PUSH1 0x4 DUP3 ADD MSTORE PUSH1 0xF PUSH1 0x24 DUP3 ADD MSTORE PUSH15 0x139BDD08195B9BDD59DA0819DBDB19 PUSH1 0x8A SHL PUSH1 0x44 DUP3 ADD MSTORE PUSH1 0x64 ADD PUSH2 0x4AF JUMP JUMPDEST PUSH1 0x8 SLOAD PUSH1 0x0 SWAP1 PUSH2 0xA5D SWAP1 DUP4 PUSH2 0x1B5E JUMP JUMPDEST PUSH1 0x1 PUSH1 0x1 PUSH1 0xA0 SHL SUB DUP5 AND PUSH1 0x0 SWAP1 DUP2 MSTORE PUSH1 0xA PUSH1 0x20 MSTORE PUSH1 0x40 SWAP1 KECCAK256 PUSH1 0x4 ADD SLOAD SWAP1 SWAP2 POP DUP1 DUP3 GT PUSH2 0xA89 JUMPI DUP2 PUSH2 0xA8B JUMP JUMPDEST DUP1 JUMPDEST PUSH1 0x1 PUSH1 0x1 PUSH1 0xA0 SHL SUB DUP6 AND PUSH1 0x0 SWAP1 DUP2 MSTORE PUSH1 0xA PUSH1 0x20 MSTORE PUSH1 0x40 DUP2 KECCAK256 PUSH1 0x3 ADD DUP1 SLOAD SWAP3 SWAP5 POP DUP5 SWAP3 SWAP1 SWAP2 SWAP1 PUSH2 0xABB SWAP1 DUP5 SWAP1 PUSH2 0x1BB9 JUMP JUMPDEST SWAP1 SWAP2 SSTORE POP POP PUSH1 0x1 PUSH1 0x1 PUSH1 0xA0 SHL SUB DUP5 AND PUSH1 0x0 SWAP1 DUP2 MSTORE PUSH1 0xA PUSH1 0x20 MSTORE PUSH1 0x40 DUP2 KECCAK256 PUSH1 0x1 ADD DUP1 SLOAD DUP6 SWAP3 SWAP1 PUSH2 0xAEB SWAP1 DUP5 SWAP1 PUSH2 0x1B17 JUMP JUMPDEST SWAP1 SWAP2 SSTORE POP POP POP POP POP POP JUMP JUMPDEST CALLER PUSH1 0x0 SWAP1 DUP2 MSTORE PUSH1 0xB PUSH1 0x20 MSTORE PUSH1 0x40 SWAP1 KECCAK256 SLOAD PUSH1 0xFF AND PUSH2 0xB60 JUMPI PUSH1 0x40 MLOAD PUSH3 0x461BCD PUSH1 0xE5 SHL DUP2 MSTORE PUSH1 0x20 PUSH1 0x4 DUP3 ADD MSTORE PUSH1 0x22 PUSH1 0x24 DUP3 ADD MSTORE PUSH32 0x4F6E6C7920636F6E74726163742063616C6C65722063616E2065646974207573 PUSH1 0x44 DUP3 ADD MSTORE PUSH2 0x32B9 PUSH1 0xF1 SHL PUSH1 0x64 DUP3 ADD MSTORE PUSH1 0x84 ADD PUSH2 0x4AF JUMP JUMPDEST PUSH1 0x40 DUP1 MLOAD PUSH1 0xA0 DUP2 ADD DUP3 MSTORE SWAP6 DUP7 MSTORE PUSH1 0x20 DUP1 DUP8 ADD SWAP6 DUP7 MSTORE DUP7 DUP3 ADD SWAP5 DUP6 MSTORE PUSH1 0x60 DUP8 ADD SWAP4 DUP5 MSTORE PUSH1 0x80 DUP8 ADD SWAP3 DUP4 MSTORE PUSH1 0x1 PUSH1 0x1 PUSH1 0xA0 SHL SUB SWAP1 SWAP8 AND PUSH1 0x0 SWAP1 DUP2 MSTORE PUSH1 0xA SWAP1 SWAP8 MSTORE SWAP1 SWAP6 KECCAK256 SWAP4 MLOAD DUP5 SSTORE SWAP2 MLOAD PUSH1 0x1 DUP5 ADD SSTORE MLOAD PUSH1 0x2 DUP4 ADD SSTORE MLOAD PUSH1 0x3 DUP3 ADD SSTORE SWAP1 MLOAD PUSH1 0x4 SWAP1 SWAP2 ADD SSTORE JUMP JUMPDEST PUSH1 0x40 MLOAD PUSH4 0x298D4B45 PUSH1 0xE2 SHL DUP2 MSTORE PUSH1 0x1 PUSH1 0x1 PUSH1 0xA0 SHL SUB DUP3 DUP2 AND PUSH1 0x4 DUP4 ADD MSTORE PUSH1 0x0 SWAP2 SWAP1 DUP6 AND SWAP1 PUSH4 0xA6352D14 SWAP1 PUSH1 0x24 ADD PUSH1 0x20 PUSH1 0x40 MLOAD DUP1 DUP4 SUB DUP2 DUP7 GAS STATICCALL ISZERO DUP1 ISZERO PUSH2 0xC0C JUMPI RETURNDATASIZE PUSH1 0x0 DUP1 RETURNDATACOPY RETURNDATASIZE PUSH1 0x0 REVERT JUMPDEST POP POP POP POP PUSH1 0x40 MLOAD RETURNDATASIZE PUSH1 0x1F NOT PUSH1 0x1F DUP3 ADD AND DUP3 ADD DUP1 PUSH1 0x40 MSTORE POP DUP2 ADD SWAP1 PUSH2 0xC30 SWAP2 SWAP1 PUSH2 0x1BCC JUMP JUMPDEST SWAP1 POP DUP1 DUP4 LT PUSH2 0xC73 JUMPI PUSH1 0x40 MLOAD PUSH3 0x461BCD PUSH1 0xE5 SHL DUP2 MSTORE PUSH1 0x20 PUSH1 0x4 DUP3 ADD MSTORE PUSH1 0xF PUSH1 0x24 DUP3 ADD MSTORE PUSH15 0x125B9D985B1A59081D1BDBDB081251 PUSH1 0x8A SHL PUSH1 0x44 DUP3 ADD MSTORE PUSH1 0x64 ADD PUSH2 0x4AF JUMP JUMPDEST PUSH2 0xC7E PUSH1 0x1 DUP3 PUSH2 0x1B17 JUMP JUMPDEST DUP4 LT ISZERO PUSH2 0xD80 JUMPI PUSH1 0x0 PUSH1 0x1 PUSH1 0x1 PUSH1 0xA0 SHL SUB DUP6 AND PUSH4 0xACD50AA1 DUP5 PUSH2 0xCA2 PUSH1 0x1 DUP7 PUSH2 0x1B17 JUMP JUMPDEST PUSH1 0x40 MLOAD PUSH1 0x1 PUSH1 0x1 PUSH1 0xE0 SHL SUB NOT PUSH1 0xE0 DUP6 SWAP1 SHL AND DUP2 MSTORE PUSH1 0x1 PUSH1 0x1 PUSH1 0xA0 SHL SUB SWAP1 SWAP3 AND PUSH1 0x4 DUP4 ADD MSTORE PUSH1 0x24 DUP3 ADD MSTORE PUSH1 0x44 ADD PUSH1 0x60 PUSH1 0x40 MLOAD DUP1 DUP4 SUB DUP2 DUP7 GAS STATICCALL ISZERO DUP1 ISZERO PUSH2 0xCEB JUMPI RETURNDATASIZE PUSH1 0x0 DUP1 RETURNDATACOPY RETURNDATASIZE PUSH1 0x0 REVERT JUMPDEST POP POP POP POP PUSH1 0x40 MLOAD RETURNDATASIZE PUSH1 0x1F NOT PUSH1 0x1F DUP3 ADD AND DUP3 ADD DUP1 PUSH1 0x40 MSTORE POP DUP2 ADD SWAP1 PUSH2 0xD0F SWAP2 SWAP1 PUSH2 0x1A07 JUMP JUMPDEST DUP1 MLOAD PUSH1 0x20 DUP3 ADD MLOAD PUSH1 0x40 DUP1 DUP5 ADD MLOAD SWAP1 MLOAD PUSH4 0x609738A7 PUSH1 0xE0 SHL DUP2 MSTORE SWAP4 SWAP5 POP PUSH1 0x1 PUSH1 0x1 PUSH1 0xA0 SHL SUB DUP10 AND SWAP4 PUSH4 0x609738A7 SWAP4 PUSH2 0xD4C SWAP4 DUP10 SWAP4 DUP12 SWAP4 PUSH1 0x4 ADD PUSH2 0x1B30 JUMP JUMPDEST PUSH1 0x0 PUSH1 0x40 MLOAD DUP1 DUP4 SUB DUP2 PUSH1 0x0 DUP8 DUP1 EXTCODESIZE ISZERO DUP1 ISZERO PUSH2 0xD66 JUMPI PUSH1 0x0 DUP1 REVERT JUMPDEST POP GAS CALL ISZERO DUP1 ISZERO PUSH2 0xD7A JUMPI RETURNDATASIZE PUSH1 0x0 DUP1 RETURNDATACOPY RETURNDATASIZE PUSH1 0x0 REVERT JUMPDEST POP POP POP POP POP JUMPDEST PUSH1 0x1 PUSH1 0x1 PUSH1 0xA0 SHL SUB DUP5 AND PUSH4 0x609738A7 DUP4 PUSH2 0xD9B PUSH1 0x1 DUP6 PUSH2 0x1B17 JUMP JUMPDEST PUSH1 0x0 DUP1 PUSH1 0x0 PUSH1 0x40 MLOAD DUP7 PUSH4 0xFFFFFFFF AND PUSH1 0xE0 SHL DUP2 MSTORE PUSH1 0x4 ADD PUSH2 0xDC0 SWAP6 SWAP5 SWAP4 SWAP3 SWAP2 SWAP1 PUSH2 0x1B30 JUMP JUMPDEST PUSH1 0x0 PUSH1 0x40 MLOAD DUP1 DUP4 SUB DUP2 PUSH1 0x0 DUP8 DUP1 EXTCODESIZE ISZERO DUP1 ISZERO PUSH2 0xDDA JUMPI PUSH1 0x0 DUP1 REVERT JUMPDEST POP GAS CALL ISZERO DUP1 ISZERO PUSH2 0x85D JUMPI RETURNDATASIZE PUSH1 0x0 DUP1 RETURNDATACOPY RETURNDATASIZE PUSH1 0x0 REVERT JUMPDEST PUSH1 0x40 MLOAD PUSH4 0x19A52891 PUSH1 0xE2 SHL DUP2 MSTORE PUSH1 0x4 DUP2 ADD DUP3 SWAP1 MSTORE PUSH1 0x0 SWAP1 DUP2 SWAP1 PUSH1 0x1 PUSH1 0x1 PUSH1 0xA0 SHL SUB DUP6 AND SWAP1 PUSH4 0x6694A244 SWAP1 PUSH1 0x24 ADD PUSH1 0x40 DUP1 MLOAD DUP1 DUP4 SUB DUP2 DUP7 GAS STATICCALL ISZERO DUP1 ISZERO PUSH2 0xE37 JUMPI RETURNDATASIZE PUSH1 0x0 DUP1 RETURNDATACOPY RETURNDATASIZE PUSH1 0x0 REVERT JUMPDEST POP POP POP POP PUSH1 0x40 MLOAD RETURNDATASIZE PUSH1 0x1F NOT PUSH1 0x1F DUP3 ADD AND DUP3 ADD DUP1 PUSH1 0x40 MSTORE POP DUP2 ADD SWAP1 PUSH2 0xE5B SWAP2 SWAP1 PUSH2 0x1BE5 JUMP JUMPDEST CALLER PUSH1 0x0 SWAP1 DUP2 MSTORE PUSH1 0xA PUSH1 0x20 MSTORE PUSH1 0x40 SWAP1 KECCAK256 SLOAD SWAP2 SWAP4 POP SWAP2 POP DUP3 GT ISZERO PUSH2 0xEB1 JUMPI PUSH1 0x40 MLOAD PUSH3 0x461BCD PUSH1 0xE5 SHL DUP2 MSTORE PUSH1 0x20 PUSH1 0x4 DUP3 ADD MSTORE PUSH1 0xF PUSH1 0x24 DUP3 ADD MSTORE PUSH15 0x139BDD08195B9BDD59DA081DDBDBD9 PUSH1 0x8A SHL PUSH1 0x44 DUP3 ADD MSTORE PUSH1 0x64 ADD PUSH2 0x4AF JUMP JUMPDEST CALLER PUSH1 0x0 SWAP1 DUP2 MSTORE PUSH1 0xA PUSH1 0x20 MSTORE PUSH1 0x40 SWAP1 KECCAK256 PUSH1 0x1 ADD SLOAD DUP2 GT ISZERO PUSH2 0xF05 JUMPI PUSH1 0x40 MLOAD PUSH3 0x461BCD PUSH1 0xE5 SHL DUP2 MSTORE PUSH1 0x20 PUSH1 0x4 DUP3 ADD MSTORE PUSH1 0xF PUSH1 0x24 DUP3 ADD MSTORE PUSH15 0x139BDD08195B9BDD59DA0819DBDB19 PUSH1 0x8A SHL PUSH1 0x44 DUP3 ADD MSTORE PUSH1 0x64 ADD PUSH2 0x4AF JUMP JUMPDEST CALLER PUSH1 0x0 SWAP1 DUP2 MSTORE PUSH1 0xA PUSH1 0x20 MSTORE PUSH1 0x40 DUP2 KECCAK256 DUP1 SLOAD DUP5 SWAP3 SWAP1 PUSH2 0xF24 SWAP1 DUP5 SWAP1 PUSH2 0x1B17 JUMP JUMPDEST SWAP1 SWAP2 SSTORE POP POP CALLER PUSH1 0x0 SWAP1 DUP2 MSTORE PUSH1 0xA PUSH1 0x20 MSTORE PUSH1 0x40 DUP2 KECCAK256 PUSH1 0x1 ADD DUP1 SLOAD DUP4 SWAP3 SWAP1 PUSH2 0xF4B SWAP1 DUP5 SWAP1 PUSH2 0x1B17 JUMP JUMPDEST SWAP1 SWAP2 SSTORE POP POP PUSH1 0x40 MLOAD PUSH4 0x298D4B45 PUSH1 0xE2 SHL DUP2 MSTORE CALLER PUSH1 0x4 DUP3 ADD MSTORE PUSH1 0x0 SWAP1 PUSH1 0x1 PUSH1 0x1 PUSH1 0xA0 SHL SUB DUP7 AND SWAP1 PUSH4 0xA6352D14 SWAP1 PUSH1 0x24 ADD PUSH1 0x20 PUSH1 0x40 MLOAD DUP1 DUP4 SUB DUP2 DUP7 GAS STATICCALL ISZERO DUP1 ISZERO PUSH2 0xF97 JUMPI RETURNDATASIZE PUSH1 0x0 DUP1 RETURNDATACOPY RETURNDATASIZE PUSH1 0x0 REVERT JUMPDEST POP POP POP POP PUSH1 0x40 MLOAD RETURNDATASIZE PUSH1 0x1F NOT PUSH1 0x1F DUP3 ADD AND DUP3 ADD DUP1 PUSH1 0x40 MSTORE POP DUP2 ADD SWAP1 PUSH2 0xFBB SWAP2 SWAP1 PUSH2 0x1BCC JUMP JUMPDEST SWAP1 POP PUSH1 0x1 PUSH1 0x1 PUSH1 0xA0 SHL SUB DUP6 AND PUSH4 0x7493FE55 CALLER PUSH2 0xFD8 DUP5 PUSH1 0x1 PUSH2 0x1BB9 JUMP JUMPDEST PUSH1 0x40 MLOAD PUSH1 0x1 PUSH1 0x1 PUSH1 0xE0 SHL SUB NOT PUSH1 0xE0 DUP6 SWAP1 SHL AND DUP2 MSTORE PUSH1 0x1 PUSH1 0x1 PUSH1 0xA0 SHL SUB SWAP1 SWAP3 AND PUSH1 0x4 DUP4 ADD MSTORE PUSH1 0x24 DUP3 ADD MSTORE PUSH1 0x44 DUP2 ADD DUP8 SWAP1 MSTORE PUSH1 0x64 ADD PUSH1 0x0 PUSH1 0x40 MLOAD DUP1 DUP4 SUB DUP2 PUSH1 0x0 DUP8 DUP1 EXTCODESIZE ISZERO DUP1 ISZERO PUSH2 0x1025 JUMPI PUSH1 0x0 DUP1 REVERT JUMPDEST POP GAS CALL ISZERO DUP1 ISZERO PUSH2 0x85B JUMPI RETURNDATASIZE PUSH1 0x0 DUP1 RETURNDATACOPY RETURNDATASIZE PUSH1 0x0 REVERT JUMPDEST DUP4 MLOAD MLOAD PUSH1 0x20 DUP5 ADD CALLDATALOAD DUP1 PUSH2 0x108E JUMPI PUSH1 0x40 MLOAD PUSH3 0x461BCD PUSH1 0xE5 SHL DUP2 MSTORE PUSH1 0x20 PUSH1 0x4 DUP3 ADD MSTORE PUSH1 0x1D PUSH1 0x24 DUP3 ADD MSTORE PUSH32 0x416D6F756E74206D7573742062652067726561746572207468616E2030000000 PUSH1 0x44 DUP3 ADD MSTORE PUSH1 0x64 ADD PUSH2 0x4AF JUMP JUMPDEST ADDRESS PUSH2 0x109C PUSH1 0x20 DUP8 ADD DUP8 PUSH2 0x16C1 JUMP JUMPDEST PUSH1 0x1 PUSH1 0x1 PUSH1 0xA0 SHL SUB AND EQ PUSH2 0x10E7 JUMPI PUSH1 0x40 MLOAD PUSH3 0x461BCD PUSH1 0xE5 SHL DUP2 MSTORE PUSH1 0x20 PUSH1 0x4 DUP3 ADD MSTORE PUSH1 0x12 PUSH1 0x24 DUP3 ADD MSTORE PUSH18 0x496E76616C696420746F2061646472657373 PUSH1 0x70 SHL PUSH1 0x44 DUP3 ADD MSTORE PUSH1 0x64 ADD PUSH2 0x4AF JUMP JUMPDEST PUSH1 0x5 SLOAD PUSH1 0x1 PUSH1 0x1 PUSH1 0xA0 SHL SUB DUP4 DUP2 AND SWAP2 AND EQ PUSH2 0x1144 JUMPI PUSH1 0x40 MLOAD PUSH3 0x461BCD PUSH1 0xE5 SHL DUP2 MSTORE PUSH1 0x20 PUSH1 0x4 DUP3 ADD MSTORE PUSH1 0x1C PUSH1 0x24 DUP3 ADD MSTORE PUSH32 0x4F6E6C7920676F6C6420746F6B656E20697320737570706F7274656400000000 PUSH1 0x44 DUP3 ADD MSTORE PUSH1 0x64 ADD PUSH2 0x4AF JUMP JUMPDEST PUSH1 0x0 SLOAD PUSH1 0x40 MLOAD PUSH4 0x187945BD PUSH1 0xE1 SHL DUP2 MSTORE PUSH1 0x1 PUSH1 0x1 PUSH1 0xA0 SHL SUB SWAP1 SWAP2 AND SWAP1 PUSH4 0x30F28B7A SWAP1 PUSH2 0x117C SWAP1 DUP10 SWAP1 DUP10 SWAP1 CALLER SWAP1 DUP11 SWAP1 DUP11 SWAP1 PUSH1 0x4 ADD PUSH2 0x1C32 JUMP JUMPDEST PUSH1 0x0 PUSH1 0x40 MLOAD DUP1 DUP4 SUB DUP2 PUSH1 0x0 DUP8 DUP1 EXTCODESIZE ISZERO DUP1 ISZERO PUSH2 0x1196 JUMPI PUSH1 0x0 DUP1 REVERT JUMPDEST POP GAS CALL ISZERO DUP1 ISZERO PUSH2 0x11AA JUMPI RETURNDATASIZE PUSH1 0x0 DUP1 RETURNDATACOPY RETURNDATASIZE PUSH1 0x0 REVERT JUMPDEST POP POP PUSH1 0x40 MLOAD PUSH4 0xACD50AA1 PUSH1 0xE0 SHL DUP2 MSTORE CALLER PUSH1 0x4 DUP3 ADD MSTORE PUSH1 0x24 DUP2 ADD DUP11 SWAP1 MSTORE PUSH1 0x0 SWAP3 POP PUSH1 0x1 PUSH1 0x1 PUSH1 0xA0 SHL SUB DUP12 AND SWAP2 POP PUSH4 0xACD50AA1 SWAP1 PUSH1 0x44 ADD PUSH1 0x60 PUSH1 0x40 MLOAD DUP1 DUP4 SUB DUP2 DUP7 GAS STATICCALL ISZERO DUP1 ISZERO PUSH2 0x11FC JUMPI RETURNDATASIZE PUSH1 0x0 DUP1 RETURNDATACOPY RETURNDATASIZE PUSH1 0x0 REVERT JUMPDEST POP POP POP POP PUSH1 0x40 MLOAD RETURNDATASIZE PUSH1 0x1F NOT PUSH1 0x1F DUP3 ADD AND DUP3 ADD DUP1 PUSH1 0x40 MSTORE POP DUP2 ADD SWAP1 PUSH2 0x1220 SWAP2 SWAP1 PUSH2 0x1A07 JUMP JUMPDEST DUP1 MLOAD PUSH1 0x40 MLOAD PUSH4 0xBC60C31D PUSH1 0xE0 SHL DUP2 MSTORE PUSH1 0x4 DUP2 ADD SWAP2 SWAP1 SWAP2 MSTORE SWAP1 SWAP2 POP PUSH1 0x0 SWAP1 PUSH1 0x1 PUSH1 0x1 PUSH1 0xA0 SHL SUB DUP12 AND SWAP1 PUSH4 0xBC60C31D SWAP1 PUSH1 0x24 ADD PUSH1 0xA0 PUSH1 0x40 MLOAD DUP1 DUP4 SUB DUP2 DUP7 GAS STATICCALL ISZERO DUP1 ISZERO PUSH2 0x126E JUMPI RETURNDATASIZE PUSH1 0x0 DUP1 RETURNDATACOPY RETURNDATASIZE PUSH1 0x0 REVERT JUMPDEST POP POP POP POP PUSH1 0x40 MLOAD RETURNDATASIZE PUSH1 0x1F NOT PUSH1 0x1F DUP3 ADD AND DUP3 ADD DUP1 PUSH1 0x40 MSTORE POP DUP2 ADD SWAP1 PUSH2 0x1292 SWAP2 SWAP1 PUSH2 0x1A5B JUMP JUMPDEST DUP3 MLOAD SWAP1 SWAP2 POP PUSH1 0x0 SUB PUSH2 0x12D7 JUMPI PUSH1 0x40 MLOAD PUSH3 0x461BCD PUSH1 0xE5 SHL DUP2 MSTORE PUSH1 0x20 PUSH1 0x4 DUP3 ADD MSTORE PUSH1 0xE PUSH1 0x24 DUP3 ADD MSTORE PUSH14 0x151BDBDB081B9BDD08199BDD5B99 PUSH1 0x92 SHL PUSH1 0x44 DUP3 ADD MSTORE PUSH1 0x64 ADD PUSH2 0x4AF JUMP JUMPDEST PUSH1 0x9 SLOAD PUSH1 0x0 SWAP1 PUSH2 0x12E7 SWAP1 DUP6 PUSH2 0x1B5E JUMP JUMPDEST SWAP1 POP PUSH1 0x0 DUP3 PUSH1 0x20 ADD MLOAD PUSH2 0xFFFF AND SWAP1 POP PUSH1 0x0 DUP3 DUP6 PUSH1 0x20 ADD MLOAD PUSH2 0x1308 SWAP2 SWAP1 PUSH2 0x1BB9 JUMP JUMPDEST SWAP1 POP DUP2 DUP2 GT ISZERO PUSH2 0x1315 JUMPI POP DUP1 JUMPDEST DUP13 PUSH1 0x1 PUSH1 0x1 PUSH1 0xA0 SHL SUB AND PUSH4 0x609738A7 CALLER DUP15 DUP9 PUSH1 0x0 ADD MLOAD DUP6 DUP11 PUSH1 0x40 ADD MLOAD PUSH1 0x40 MLOAD DUP7 PUSH4 0xFFFFFFFF AND PUSH1 0xE0 SHL DUP2 MSTORE PUSH1 0x4 ADD PUSH2 0x1351 SWAP6 SWAP5 SWAP4 SWAP3 SWAP2 SWAP1 PUSH2 0x1B30 JUMP JUMPDEST PUSH1 0x0 PUSH1 0x40 MLOAD DUP1 DUP4 SUB DUP2 PUSH1 0x0 DUP8 DUP1 EXTCODESIZE ISZERO DUP1 ISZERO PUSH2 0x136B JUMPI PUSH1 0x0 DUP1 REVERT JUMPDEST POP GAS CALL ISZERO DUP1 ISZERO PUSH2 0x137F JUMPI RETURNDATASIZE PUSH1 0x0 DUP1 RETURNDATACOPY RETURNDATASIZE PUSH1 0x0 REVERT JUMPDEST POP POP POP POP POP POP POP POP POP POP POP POP POP POP POP POP POP JUMP JUMPDEST CALLER PUSH1 0x0 SWAP1 DUP2 MSTORE PUSH1 0xB PUSH1 0x20 MSTORE PUSH1 0x40 SWAP1 KECCAK256 SLOAD PUSH1 0xFF AND PUSH2 0x1401 JUMPI PUSH1 0x40 MLOAD PUSH3 0x461BCD PUSH1 0xE5 SHL DUP2 MSTORE PUSH1 0x20 PUSH1 0x4 DUP3 ADD MSTORE PUSH1 0x27 PUSH1 0x24 DUP3 ADD MSTORE PUSH32 0x4F6E6C7920636F6E74726163742063616C6C65722063616E2065646974207573 PUSH1 0x44 DUP3 ADD MSTORE PUSH7 0x195C881D1BDBDB PUSH1 0xCA SHL PUSH1 0x64 DUP3 ADD MSTORE PUSH1 0x84 ADD PUSH2 0x4AF JUMP JUMPDEST PUSH1 0x40 MLOAD PUSH4 0x609738A7 PUSH1 0xE0 SHL DUP2 MSTORE PUSH1 0x1 PUSH1 0x1 PUSH1 0xA0 SHL SUB DUP8 AND SWAP1 PUSH4 0x609738A7 SWAP1 PUSH2 0x1435 SWAP1 DUP9 SWAP1 DUP9 SWAP1 DUP9 SWAP1 DUP9 SWAP1 DUP9 SWAP1 PUSH1 0x4 ADD PUSH2 0x1B30 JUMP JUMPDEST PUSH1 0x0 PUSH1 0x40 MLOAD DUP1 DUP4 SUB DUP2 PUSH1 0x0 DUP8 DUP1 EXTCODESIZE ISZERO DUP1 ISZERO PUSH2 0x144F JUMPI PUSH1 0x0 DUP1 REVERT JUMPDEST POP GAS CALL ISZERO DUP1 ISZERO PUSH2 0x1463 JUMPI RETURNDATASIZE PUSH1 0x0 DUP1 RETURNDATACOPY RETURNDATASIZE PUSH1 0x0 REVERT JUMPDEST POP POP POP POP POP POP POP POP POP POP JUMP JUMPDEST DUP4 MLOAD MLOAD PUSH1 0x20 DUP5 ADD CALLDATALOAD DUP1 PUSH2 0x14C4 JUMPI PUSH1 0x40 MLOAD PUSH3 0x461BCD PUSH1 0xE5 SHL DUP2 MSTORE PUSH1 0x20 PUSH1 0x4 DUP3 ADD MSTORE PUSH1 0x1D PUSH1 0x24 DUP3 ADD MSTORE PUSH32 0x416D6F756E74206D7573742062652067726561746572207468616E2030000000 PUSH1 0x44 DUP3 ADD MSTORE PUSH1 0x64 ADD PUSH2 0x4AF JUMP JUMPDEST ADDRESS PUSH2 0x14D2 PUSH1 0x20 DUP8 ADD DUP8 PUSH2 0x16C1 JUMP JUMPDEST PUSH1 0x1 PUSH1 0x1 PUSH1 0xA0 SHL SUB AND EQ PUSH2 0x151D JUMPI PUSH1 0x40 MLOAD PUSH3 0x461BCD PUSH1 0xE5 SHL DUP2 MSTORE PUSH1 0x20 PUSH1 0x4 DUP3 ADD MSTORE PUSH1 0x12 PUSH1 0x24 DUP3 ADD MSTORE PUSH18 0x496E76616C696420746F2061646472657373 PUSH1 0x70 SHL PUSH1 0x44 DUP3 ADD MSTORE PUSH1 0x64 ADD PUSH2 0x4AF JUMP JUMPDEST PUSH1 0x0 SLOAD PUSH1 0x40 MLOAD PUSH4 0x187945BD PUSH1 0xE1 SHL DUP2 MSTORE PUSH1 0x1 PUSH1 0x1 PUSH1 0xA0 SHL SUB SWAP1 SWAP2 AND SWAP1 PUSH4 0x30F28B7A SWAP1 PUSH2 0x1555 SWAP1 DUP10 SWAP1 DUP10 SWAP1 CALLER SWAP1 DUP11 SWAP1 DUP11 SWAP1 PUSH1 0x4 ADD PUSH2 0x1C32 JUMP JUMPDEST PUSH1 0x0 PUSH1 0x40 MLOAD DUP1 DUP4 SUB DUP2 PUSH1 0x0 DUP8 DUP1 EXTCODESIZE ISZERO DUP1 ISZERO PUSH2 0x156F JUMPI PUSH1 0x0 DUP1 REVERT JUMPDEST POP GAS CALL ISZERO DUP1 ISZERO PUSH2 0x1583 JUMPI RETURNDATASIZE PUSH1 0x0 DUP1 RETURNDATACOPY RETURNDATASIZE PUSH1 0x0 REVERT JUMPDEST POP POP PUSH1 0x6 SLOAD PUSH1 0x1 PUSH1 0x1 PUSH1 0xA0 SHL SUB SWAP1 DUP2 AND SWAP1 DUP6 AND SUB SWAP2 POP PUSH2 0x15C9 SWAP1 POP JUMPI CALLER PUSH1 0x0 SWAP1 DUP2 MSTORE PUSH1 0xA PUSH1 0x20 MSTORE PUSH1 0x40 DUP2 KECCAK256 DUP1 SLOAD DUP4 SWAP3 SWAP1 PUSH2 0x15BE SWAP1 DUP5 SWAP1 PUSH2 0x1BB9 JUMP JUMPDEST SWAP1 SWAP2 SSTORE POP PUSH2 0x1675 SWAP1 POP JUMP JUMPDEST PUSH1 0x5 SLOAD PUSH1 0x1 PUSH1 0x1 PUSH1 0xA0 SHL SUB SWAP1 DUP2 AND SWAP1 DUP4 AND SUB PUSH2 0x1601 JUMPI CALLER PUSH1 0x0 SWAP1 DUP2 MSTORE PUSH1 0xA PUSH1 0x20 MSTORE PUSH1 0x40 DUP2 KECCAK256 PUSH1 0x1 ADD DUP1 SLOAD DUP4 SWAP3 SWAP1 PUSH2 0x15BE SWAP1 DUP5 SWAP1 PUSH2 0x1BB9 JUMP JUMPDEST PUSH1 0x4 SLOAD PUSH1 0x1 PUSH1 0x1 PUSH1 0xA0 SHL SUB SWAP1 DUP2 AND SWAP1 DUP4 AND SUB PUSH2 0x1639 JUMPI CALLER PUSH1 0x0 SWAP1 DUP2 MSTORE PUSH1 0xA PUSH1 0x20 MSTORE PUSH1 0x40 DUP2 KECCAK256 PUSH1 0x2 ADD DUP1 SLOAD DUP4 SWAP3 SWAP1 PUSH2 0x15BE SWAP1 DUP5 SWAP1 PUSH2 0x1BB9 JUMP JUMPDEST PUSH1 0x40 MLOAD PUSH3 0x461BCD PUSH1 0xE5 SHL DUP2 MSTORE PUSH1 0x20 PUSH1 0x4 DUP3 ADD MSTORE PUSH1 0x11 PUSH1 0x24 DUP3 ADD MSTORE PUSH17 0x2AB739BAB83837B93A32B2103A37B5B2B7 PUSH1 0x79 SHL PUSH1 0x44 DUP3 ADD MSTORE PUSH1 0x64 ADD PUSH2 0x4AF JUMP JUMPDEST POP POP POP POP POP POP JUMP JUMPDEST PUSH1 0x1 PUSH1 0x1 PUSH1 0xA0 SHL SUB DUP2 AND DUP2 EQ PUSH2 0x1692 JUMPI PUSH1 0x0 DUP1 REVERT JUMPDEST POP JUMP JUMPDEST PUSH1 0x0 DUP1 PUSH1 0x40 DUP4 DUP6 SUB SLT ISZERO PUSH2 0x16A8 JUMPI PUSH1 0x0 DUP1 REVERT JUMPDEST DUP3 CALLDATALOAD PUSH2 0x16B3 DUP2 PUSH2 0x167D JUMP JUMPDEST SWAP5 PUSH1 0x20 SWAP4 SWAP1 SWAP4 ADD CALLDATALOAD SWAP4 POP POP POP JUMP JUMPDEST PUSH1 0x0 PUSH1 0x20 DUP3 DUP5 SUB SLT ISZERO PUSH2 0x16D3 JUMPI PUSH1 0x0 DUP1 REVERT JUMPDEST DUP2 CALLDATALOAD PUSH2 0x16DE DUP2 PUSH2 0x167D JUMP JUMPDEST SWAP4 SWAP3 POP POP POP JUMP JUMPDEST PUSH1 0x0 DUP1 PUSH1 0x40 DUP4 DUP6 SUB SLT ISZERO PUSH2 0x16F8 JUMPI PUSH1 0x0 DUP1 REVERT JUMPDEST POP POP DUP1 CALLDATALOAD SWAP3 PUSH1 0x20 SWAP1 SWAP2 ADD CALLDATALOAD SWAP2 POP JUMP JUMPDEST PUSH1 0x0 DUP1 PUSH1 0x0 DUP1 PUSH1 0x0 DUP1 PUSH1 0xC0 DUP8 DUP10 SUB SLT ISZERO PUSH2 0x1720 JUMPI PUSH1 0x0 DUP1 REVERT JUMPDEST DUP7 CALLDATALOAD PUSH2 0x172B DUP2 PUSH2 0x167D JUMP JUMPDEST SWAP9 PUSH1 0x20 DUP9 ADD CALLDATALOAD SWAP9 POP PUSH1 0x40 DUP9 ADD CALLDATALOAD SWAP8 PUSH1 0x60 DUP2 ADD CALLDATALOAD SWAP8 POP PUSH1 0x80 DUP2 ADD CALLDATALOAD SWAP7 POP PUSH1 0xA0 ADD CALLDATALOAD SWAP5 POP SWAP3 POP POP POP JUMP JUMPDEST PUSH1 0x0 DUP1 PUSH1 0x0 PUSH1 0x60 DUP5 DUP7 SUB SLT ISZERO PUSH2 0x1768 JUMPI PUSH1 0x0 DUP1 REVERT JUMPDEST DUP4 CALLDATALOAD PUSH2 0x1773 DUP2 PUSH2 0x167D JUMP JUMPDEST SWAP3 POP PUSH1 0x20 DUP5 ADD CALLDATALOAD SWAP2 POP PUSH1 0x40 DUP5 ADD CALLDATALOAD PUSH2 0x178A DUP2 PUSH2 0x167D JUMP JUMPDEST DUP1 SWAP2 POP POP SWAP3 POP SWAP3 POP SWAP3 JUMP JUMPDEST PUSH1 0x40 MLOAD PUSH1 0x60 DUP2 ADD PUSH8 0xFFFFFFFFFFFFFFFF DUP2 GT DUP3 DUP3 LT OR ISZERO PUSH2 0x17C6 JUMPI PUSH4 0x4E487B71 PUSH1 0xE0 SHL PUSH1 0x0 MSTORE PUSH1 0x41 PUSH1 0x4 MSTORE PUSH1 0x24 PUSH1 0x0 REVERT JUMPDEST PUSH1 0x40 MSTORE SWAP1 JUMP JUMPDEST PUSH1 0x0 DUP2 DUP4 SUB PUSH1 0x80 DUP2 SLT ISZERO PUSH2 0x17DF JUMPI PUSH1 0x0 DUP1 REVERT JUMPDEST PUSH2 0x17E7 PUSH2 0x1795 JUMP JUMPDEST SWAP2 POP PUSH1 0x40 DUP2 SLT ISZERO PUSH2 0x17F7 JUMPI PUSH1 0x0 DUP1 REVERT JUMPDEST POP PUSH1 0x40 DUP1 MLOAD SWAP1 DUP2 ADD PUSH8 0xFFFFFFFFFFFFFFFF DUP2 GT DUP3 DUP3 LT OR ISZERO PUSH2 0x1829 JUMPI PUSH4 0x4E487B71 PUSH1 0xE0 SHL PUSH1 0x0 MSTORE PUSH1 0x41 PUSH1 0x4 MSTORE PUSH1 0x24 PUSH1 0x0 REVERT JUMPDEST PUSH1 0x40 MSTORE DUP3 CALLDATALOAD PUSH2 0x1837 DUP2 PUSH2 0x167D JUMP JUMPDEST DUP2 MSTORE PUSH1 0x20 DUP4 DUP2 ADD CALLDATALOAD DUP2 DUP4 ADD MSTORE SWAP1 DUP3 MSTORE PUSH1 0x40 DUP1 DUP5 ADD CALLDATALOAD SWAP2 DUP4 ADD SWAP2 SWAP1 SWAP2 MSTORE PUSH1 0x60 SWAP1 SWAP3 ADD CALLDATALOAD SWAP2 DUP2 ADD SWAP2 SWAP1 SWAP2 MSTORE SWAP2 SWAP1 POP JUMP JUMPDEST PUSH1 0x0 PUSH1 0x40 DUP3 DUP5 SUB SLT ISZERO PUSH2 0x1877 JUMPI PUSH1 0x0 DUP1 REVERT JUMPDEST POP SWAP2 SWAP1 POP JUMP JUMPDEST PUSH1 0x0 DUP1 DUP4 PUSH1 0x1F DUP5 ADD SLT PUSH2 0x188F JUMPI PUSH1 0x0 DUP1 REVERT JUMPDEST POP DUP2 CALLDATALOAD PUSH8 0xFFFFFFFFFFFFFFFF DUP2 GT ISZERO PUSH2 0x18A7 JUMPI PUSH1 0x0 DUP1 REVERT JUMPDEST PUSH1 0x20 DUP4 ADD SWAP2 POP DUP4 PUSH1 0x20 DUP3 DUP6 ADD ADD GT ISZERO PUSH2 0x18BF JUMPI PUSH1 0x0 DUP1 REVERT JUMPDEST SWAP3 POP SWAP3 SWAP1 POP JUMP JUMPDEST PUSH1 0x0 DUP1 PUSH1 0x0 DUP1 PUSH1 0x0 DUP1 PUSH2 0x120 DUP8 DUP10 SUB SLT ISZERO PUSH2 0x18E0 JUMPI PUSH1 0x0 DUP1 REVERT JUMPDEST DUP7 CALLDATALOAD PUSH2 0x18EB DUP2 PUSH2 0x167D JUMP JUMPDEST SWAP6 POP PUSH1 0x20 DUP8 ADD CALLDATALOAD SWAP5 POP PUSH2 0x1901 DUP9 PUSH1 0x40 DUP10 ADD PUSH2 0x17CC JUMP JUMPDEST SWAP4 POP PUSH2 0x1910 DUP9 PUSH1 0xC0 DUP10 ADD PUSH2 0x1865 JUMP JUMPDEST SWAP3 POP PUSH2 0x100 DUP8 ADD CALLDATALOAD PUSH8 0xFFFFFFFFFFFFFFFF DUP2 GT ISZERO PUSH2 0x192D JUMPI PUSH1 0x0 DUP1 REVERT JUMPDEST PUSH2 0x1939 DUP10 DUP3 DUP11 ADD PUSH2 0x187D JUMP JUMPDEST SWAP8 SWAP11 SWAP7 SWAP10 POP SWAP5 SWAP8 POP SWAP3 SWAP6 SWAP4 SWAP5 SWAP3 POP POP POP JUMP JUMPDEST PUSH1 0x0 DUP1 PUSH1 0x0 DUP1 PUSH1 0x0 DUP1 PUSH1 0xC0 DUP8 DUP10 SUB SLT ISZERO PUSH2 0x1964 JUMPI PUSH1 0x0 DUP1 REVERT JUMPDEST DUP7 CALLDATALOAD PUSH2 0x196F DUP2 PUSH2 0x167D JUMP JUMPDEST SWAP6 POP PUSH1 0x20 DUP8 ADD CALLDATALOAD PUSH2 0x197F DUP2 PUSH2 0x167D JUMP JUMPDEST SWAP6 SWAP9 SWAP6 SWAP8 POP POP POP POP PUSH1 0x40 DUP5 ADD CALLDATALOAD SWAP4 PUSH1 0x60 DUP2 ADD CALLDATALOAD SWAP4 PUSH1 0x80 DUP3 ADD CALLDATALOAD SWAP4 POP PUSH1 0xA0 SWAP1 SWAP2 ADD CALLDATALOAD SWAP2 POP JUMP JUMPDEST PUSH1 0x0 DUP1 PUSH1 0x0 DUP1 PUSH1 0xE0 DUP6 DUP8 SUB SLT ISZERO PUSH2 0x19BA JUMPI PUSH1 0x0 DUP1 REVERT JUMPDEST PUSH2 0x19C4 DUP7 DUP7 PUSH2 0x17CC JUMP JUMPDEST SWAP4 POP PUSH2 0x19D3 DUP7 PUSH1 0x80 DUP8 ADD PUSH2 0x1865 JUMP JUMPDEST SWAP3 POP PUSH1 0xC0 DUP6 ADD CALLDATALOAD PUSH8 0xFFFFFFFFFFFFFFFF DUP2 GT ISZERO PUSH2 0x19EF JUMPI PUSH1 0x0 DUP1 REVERT JUMPDEST PUSH2 0x19FB DUP8 DUP3 DUP9 ADD PUSH2 0x187D JUMP JUMPDEST SWAP6 SWAP9 SWAP5 SWAP8 POP SWAP6 POP POP POP POP JUMP JUMPDEST PUSH1 0x0 PUSH1 0x60 DUP3 DUP5 SUB SLT DUP1 ISZERO PUSH2 0x1A1A JUMPI PUSH1 0x0 DUP1 REVERT JUMPDEST POP PUSH2 0x1A23 PUSH2 0x1795 JUMP JUMPDEST DUP3 MLOAD DUP2 MSTORE PUSH1 0x20 DUP1 DUP5 ADD MLOAD SWAP1 DUP3 ADD MSTORE PUSH1 0x40 SWAP3 DUP4 ADD MLOAD SWAP3 DUP2 ADD SWAP3 SWAP1 SWAP3 MSTORE POP SWAP2 SWAP1 POP JUMP JUMPDEST DUP1 MLOAD PUSH2 0xFFFF DUP2 AND DUP2 EQ PUSH2 0x1A56 JUMPI PUSH1 0x0 DUP1 REVERT JUMPDEST SWAP2 SWAP1 POP JUMP JUMPDEST PUSH1 0x0 PUSH1 0xA0 DUP3 DUP5 SUB SLT DUP1 ISZERO PUSH2 0x1A6E JUMPI PUSH1 0x0 DUP1 REVERT JUMPDEST POP PUSH1 0x40 MLOAD PUSH1 0x0 SWAP1 PUSH1 0xA0 DUP2 ADD PUSH8 0xFFFFFFFFFFFFFFFF DUP2 GT DUP3 DUP3 LT OR ISZERO PUSH2 0x1AA1 JUMPI PUSH4 0x4E487B71 PUSH1 0xE0 SHL DUP4 MSTORE PUSH1 0x41 PUSH1 0x4 MSTORE PUSH1 0x24 DUP4 REVERT JUMPDEST PUSH1 0x40 MSTORE PUSH2 0x1AAD DUP5 PUSH2 0x1A44 JUMP JUMPDEST DUP2 MSTORE PUSH2 0x1ABB PUSH1 0x20 DUP6 ADD PUSH2 0x1A44 JUMP JUMPDEST PUSH1 0x20 DUP3 ADD MSTORE PUSH2 0x1ACC PUSH1 0x40 DUP6 ADD PUSH2 0x1A44 JUMP JUMPDEST PUSH1 0x40 DUP3 ADD MSTORE PUSH1 0x60 DUP5 ADD MLOAD PUSH4 0xFFFFFFFF DUP2 AND DUP2 EQ PUSH2 0x1AE7 JUMPI DUP3 DUP4 REVERT JUMPDEST PUSH1 0x60 DUP3 ADD MSTORE PUSH1 0x80 SWAP4 DUP5 ADD MLOAD SWAP4 DUP2 ADD SWAP4 SWAP1 SWAP4 MSTORE POP SWAP1 SWAP3 SWAP2 POP POP JUMP JUMPDEST PUSH4 0x4E487B71 PUSH1 0xE0 SHL PUSH1 0x0 MSTORE PUSH1 0x11 PUSH1 0x4 MSTORE PUSH1 0x24 PUSH1 0x0 REVERT JUMPDEST DUP2 DUP2 SUB DUP2 DUP2 GT ISZERO PUSH2 0x1B2A JUMPI PUSH2 0x1B2A PUSH2 0x1B01 JUMP JUMPDEST SWAP3 SWAP2 POP POP JUMP JUMPDEST PUSH1 0x1 PUSH1 0x1 PUSH1 0xA0 SHL SUB SWAP6 SWAP1 SWAP6 AND DUP6 MSTORE PUSH1 0x20 DUP6 ADD SWAP4 SWAP1 SWAP4 MSTORE PUSH1 0x40 DUP5 ADD SWAP2 SWAP1 SWAP2 MSTORE PUSH1 0x60 DUP4 ADD MSTORE PUSH1 0x80 DUP3 ADD MSTORE PUSH1 0xA0 ADD SWAP1 JUMP JUMPDEST DUP1 DUP3 MUL DUP2 ISZERO DUP3 DUP3 DIV DUP5 EQ OR PUSH2 0x1B2A JUMPI PUSH2 0x1B2A PUSH2 0x1B01 JUMP JUMPDEST PUSH1 0x0 DUP3 PUSH2 0x1B92 JUMPI PUSH4 0x4E487B71 PUSH1 0xE0 SHL PUSH1 0x0 MSTORE PUSH1 0x12 PUSH1 0x4 MSTORE PUSH1 0x24 PUSH1 0x0 REVERT JUMPDEST POP DIV SWAP1 JUMP JUMPDEST PUSH1 0x0 PUSH1 0x20 DUP3 DUP5 SUB SLT ISZERO PUSH2 0x1BA9 JUMPI PUSH1 0x0 DUP1 REVERT JUMPDEST DUP2 MLOAD DUP1 ISZERO ISZERO DUP2 EQ PUSH2 0x16DE JUMPI PUSH1 0x0 DUP1 REVERT JUMPDEST DUP1 DUP3 ADD DUP1 DUP3 GT ISZERO PUSH2 0x1B2A JUMPI PUSH2 0x1B2A PUSH2 0x1B01 JUMP JUMPDEST PUSH1 0x0 PUSH1 0x20 DUP3 DUP5 SUB SLT ISZERO PUSH2 0x1BDE JUMPI PUSH1 0x0 DUP1 REVERT JUMPDEST POP MLOAD SWAP2 SWAP1 POP JUMP JUMPDEST PUSH1 0x0 DUP1 PUSH1 0x40 DUP4 DUP6 SUB SLT ISZERO PUSH2 0x1BF8 JUMPI PUSH1 0x0 DUP1 REVERT JUMPDEST POP POP DUP1 MLOAD PUSH1 0x20 SWAP1 SWAP2 ADD MLOAD SWAP1 SWAP3 SWAP1 SWAP2 POP JUMP JUMPDEST DUP2 DUP4 MSTORE DUP2 DUP2 PUSH1 0x20 DUP6 ADD CALLDATACOPY POP PUSH1 0x0 DUP3 DUP3 ADD PUSH1 0x20 SWAP1 DUP2 ADD SWAP2 SWAP1 SWAP2 MSTORE PUSH1 0x1F SWAP1 SWAP2 ADD PUSH1 0x1F NOT AND SWAP1 SWAP2 ADD ADD SWAP1 JUMP JUMPDEST DUP6 MLOAD DUP1 MLOAD PUSH1 0x1 PUSH1 0x1 PUSH1 0xA0 SHL SUB AND DUP3 MSTORE PUSH1 0x20 SWAP1 DUP2 ADD MLOAD DUP2 DUP4 ADD MSTORE DUP7 ADD MLOAD PUSH1 0x40 DUP1 DUP4 ADD SWAP2 SWAP1 SWAP2 MSTORE DUP7 ADD MLOAD PUSH1 0x60 DUP3 ADD MSTORE PUSH1 0x0 DUP6 CALLDATALOAD PUSH2 0x1C6C DUP2 PUSH2 0x167D JUMP JUMPDEST PUSH1 0x1 PUSH1 0x1 PUSH1 0xA0 SHL SUB AND PUSH1 0x80 DUP4 ADD MSTORE PUSH1 0x20 DUP7 ADD CALLDATALOAD PUSH1 0xA0 DUP4 ADD MSTORE PUSH2 0x1C99 PUSH1 0xC0 DUP4 ADD DUP7 PUSH1 0x1 PUSH1 0x1 PUSH1 0xA0 SHL SUB AND SWAP1 MSTORE JUMP JUMPDEST PUSH2 0x100 PUSH1 0xE0 DUP4 ADD MSTORE PUSH2 0x1CB0 PUSH2 0x100 DUP4 ADD DUP5 DUP7 PUSH2 0x1C09 JUMP JUMPDEST SWAP8 SWAP7 POP POP POP POP POP POP POP JUMP INVALID LOG2 PUSH5 0x6970667358 0x22 SLT KECCAK256 DUP14 0xF 0x29 0xBA SAR PUSH10 0xD4CFE9A79745954B64AF DUP4 0xC4 0xC6 PUSH7 0xF5E4F90EF5F985 DUP8 0xD8 0x4F ADDMOD OR PUSH5 0x736F6C6343 STOP ADDMOD SHR STOP CALLER "
        },
        "methodIdentifiers": {
          "buyEnergy(address,uint256)": "36fd7e1b",
          "contractCallers(address)": "856a8ace",
          "craft(address,uint256)": "c1d942c1",
          "deleteTool(address,uint256,address)": "a459a8f3",
          "deposit(((address,uint256),uint256,uint256),(address,uint256),bytes)": "eaaa43e5",
          "editGameTokenRelation(uint256,uint256)": "2ddd99e4",
          "editUser(address,uint256,uint256,uint256,uint256,uint256)": "7cde55aa",
          "editUserTool(address,address,uint256,uint256,uint256,uint256)": "e864fd19",
          "foodToken()": "6cdc3c42",
          "foodTools()": "12eb9a6a",
          "goldToken()": "94002b57",
          "goldTools()": "e7dd114a",
          "harvest(address,uint256)": "018ee9b7",
          "owner()": "8da5cb5b",
          "permit2()": "12261ee7",
          "repair(address,uint256,((address,uint256),uint256,uint256),(address,uint256),bytes)": "d160aa0d",
          "setContractCaller(address)": "2a94a9c8",
          "setOwner(address)": "13af4035",
          "tokenRelation()": "132ec064",
          "users(address)": "a87430ba",
          "woodToken()": "f5d9676f",
          "woodTools()": "9ba99eff"
        }
      }
    }
  }
}