{
  "contracts/Tools.sol": {
    "Tools": {
      "abi": [
        {
          "inputs": [
            {
              "internalType": "address",
              "name": "_rewardToken",
              "type": "address"
            },
            {
              "internalType": "uint256[]",
              "name": "lvls",
              "type": "uint256[]"
            },
            {
              "components": [
                {
                  "internalType": "uint16",
                  "name": "energyConsumption",
                  "type": "uint16"
                },
                {
                  "internalType": "uint16",
                  "name": "durability",
                  "type": "uint16"
                },
                {
                  "internalType": "uint16",
                  "name": "durabilityConsumption",
                  "type": "uint16"
                },
                {
                  "internalType": "uint32",
                  "name": "chargeTime",
                  "type": "uint32"
                },
                {
                  "internalType": "uint256",
                  "name": "rewardRate",
                  "type": "uint256"
                }
              ],
              "internalType": "struct Tools.Tool[]",
              "name": "_tools",
              "type": "tuple[]"
            },
            {
              "components": [
                {
                  "internalType": "uint256",
                  "name": "woodCost",
                  "type": "uint256"
                },
                {
                  "internalType": "uint256",
                  "name": "goldCost",
                  "type": "uint256"
                },
                {
                  "internalType": "uint256",
                  "name": "repayCost",
                  "type": "uint256"
                }
              ],
              "internalType": "struct Tools.ToolCost[]",
              "name": "_toolCosts",
              "type": "tuple[]"
            },
            {
              "internalType": "address",
              "name": "farmerManager",
              "type": "address"
            }
          ],
          "stateMutability": "nonpayable",
          "type": "constructor"
        },
        {
          "inputs": [],
          "name": "RewardToken",
          "outputs": [
            {
              "internalType": "address",
              "name": "",
              "type": "address"
            }
          ],
          "stateMutability": "view",
          "type": "function"
        },
        {
          "inputs": [
            {
              "internalType": "uint256",
              "name": "lvl",
              "type": "uint256"
            },
            {
              "components": [
                {
                  "internalType": "uint16",
                  "name": "energyConsumption",
                  "type": "uint16"
                },
                {
                  "internalType": "uint16",
                  "name": "durability",
                  "type": "uint16"
                },
                {
                  "internalType": "uint16",
                  "name": "durabilityConsumption",
                  "type": "uint16"
                },
                {
                  "internalType": "uint32",
                  "name": "chargeTime",
                  "type": "uint32"
                },
                {
                  "internalType": "uint256",
                  "name": "rewardRate",
                  "type": "uint256"
                }
              ],
              "internalType": "struct Tools.Tool",
              "name": "tool",
              "type": "tuple"
            },
            {
              "components": [
                {
                  "internalType": "uint256",
                  "name": "woodCost",
                  "type": "uint256"
                },
                {
                  "internalType": "uint256",
                  "name": "goldCost",
                  "type": "uint256"
                },
                {
                  "internalType": "uint256",
                  "name": "repayCost",
                  "type": "uint256"
                }
              ],
              "internalType": "struct Tools.ToolCost",
              "name": "_toolCost",
              "type": "tuple"
            }
          ],
          "name": "addTool",
          "outputs": [],
          "stateMutability": "nonpayable",
          "type": "function"
        },
        {
          "inputs": [
            {
              "internalType": "uint256[]",
              "name": "lvls",
              "type": "uint256[]"
            },
            {
              "components": [
                {
                  "internalType": "uint16",
                  "name": "energyConsumption",
                  "type": "uint16"
                },
                {
                  "internalType": "uint16",
                  "name": "durability",
                  "type": "uint16"
                },
                {
                  "internalType": "uint16",
                  "name": "durabilityConsumption",
                  "type": "uint16"
                },
                {
                  "internalType": "uint32",
                  "name": "chargeTime",
                  "type": "uint32"
                },
                {
                  "internalType": "uint256",
                  "name": "rewardRate",
                  "type": "uint256"
                }
              ],
              "internalType": "struct Tools.Tool[]",
              "name": "_tools",
              "type": "tuple[]"
            },
            {
              "components": [
                {
                  "internalType": "uint256",
                  "name": "woodCost",
                  "type": "uint256"
                },
                {
                  "internalType": "uint256",
                  "name": "goldCost",
                  "type": "uint256"
                },
                {
                  "internalType": "uint256",
                  "name": "repayCost",
                  "type": "uint256"
                }
              ],
              "internalType": "struct Tools.ToolCost[]",
              "name": "_toolCosts",
              "type": "tuple[]"
            }
          ],
          "name": "addTools",
          "outputs": [],
          "stateMutability": "nonpayable",
          "type": "function"
        },
        {
          "inputs": [
            {
              "internalType": "address",
              "name": "user",
              "type": "address"
            },
            {
              "internalType": "uint256",
              "name": "lvl",
              "type": "uint256"
            }
          ],
          "name": "addUserTool",
          "outputs": [],
          "stateMutability": "nonpayable",
          "type": "function"
        },
        {
          "inputs": [
            {
              "internalType": "address",
              "name": "contractCallers",
              "type": "address"
            }
          ],
          "name": "contractCallers",
          "outputs": [
            {
              "internalType": "bool",
              "name": "",
              "type": "bool"
            }
          ],
          "stateMutability": "view",
          "type": "function"
        },
        {
          "inputs": [
            {
              "internalType": "uint256",
              "name": "lvl",
              "type": "uint256"
            },
            {
              "components": [
                {
                  "internalType": "uint16",
                  "name": "energyConsumption",
                  "type": "uint16"
                },
                {
                  "internalType": "uint16",
                  "name": "durability",
                  "type": "uint16"
                },
                {
                  "internalType": "uint16",
                  "name": "durabilityConsumption",
                  "type": "uint16"
                },
                {
                  "internalType": "uint32",
                  "name": "chargeTime",
                  "type": "uint32"
                },
                {
                  "internalType": "uint256",
                  "name": "rewardRate",
                  "type": "uint256"
                }
              ],
              "internalType": "struct Tools.Tool",
              "name": "tool",
              "type": "tuple"
            }
          ],
          "name": "editTool",
          "outputs": [],
          "stateMutability": "nonpayable",
          "type": "function"
        },
        {
          "inputs": [
            {
              "internalType": "address",
              "name": "user",
              "type": "address"
            },
            {
              "internalType": "uint256",
              "name": "id",
              "type": "uint256"
            },
            {
              "internalType": "uint256",
              "name": "lvl",
              "type": "uint256"
            },
            {
              "internalType": "uint256",
              "name": "durability",
              "type": "uint256"
            },
            {
              "internalType": "uint256",
              "name": "lastHarvest",
              "type": "uint256"
            }
          ],
          "name": "editUserTool",
          "outputs": [],
          "stateMutability": "nonpayable",
          "type": "function"
        },
        {
          "inputs": [
            {
              "internalType": "address",
              "name": "user",
              "type": "address"
            }
          ],
          "name": "getAllUserTools",
          "outputs": [
            {
              "components": [
                {
                  "internalType": "uint256",
                  "name": "lvl",
                  "type": "uint256"
                },
                {
                  "internalType": "uint256",
                  "name": "durability",
                  "type": "uint256"
                },
                {
                  "internalType": "uint256",
                  "name": "lastHarvest",
                  "type": "uint256"
                }
              ],
              "internalType": "struct Tools.UserTools[]",
              "name": "",
              "type": "tuple[]"
            }
          ],
          "stateMutability": "view",
          "type": "function"
        },
        {
          "inputs": [
            {
              "internalType": "uint256",
              "name": "lvl",
              "type": "uint256"
            }
          ],
          "name": "getTool",
          "outputs": [
            {
              "components": [
                {
                  "internalType": "uint16",
                  "name": "energyConsumption",
                  "type": "uint16"
                },
                {
                  "internalType": "uint16",
                  "name": "durability",
                  "type": "uint16"
                },
                {
                  "internalType": "uint16",
                  "name": "durabilityConsumption",
                  "type": "uint16"
                },
                {
                  "internalType": "uint32",
                  "name": "chargeTime",
                  "type": "uint32"
                },
                {
                  "internalType": "uint256",
                  "name": "rewardRate",
                  "type": "uint256"
                }
              ],
              "internalType": "struct Tools.Tool",
              "name": "",
              "type": "tuple"
            }
          ],
          "stateMutability": "view",
          "type": "function"
        },
        {
          "inputs": [
            {
              "internalType": "uint256",
              "name": "lvl",
              "type": "uint256"
            }
          ],
          "name": "getToolCost",
          "outputs": [
            {
              "internalType": "uint256",
              "name": "",
              "type": "uint256"
            },
            {
              "internalType": "uint256",
              "name": "",
              "type": "uint256"
            }
          ],
          "stateMutability": "view",
          "type": "function"
        },
        {
          "inputs": [
            {
              "internalType": "address",
              "name": "user",
              "type": "address"
            }
          ],
          "name": "getTotalUserTools",
          "outputs": [
            {
              "internalType": "uint256",
              "name": "",
              "type": "uint256"
            }
          ],
          "stateMutability": "view",
          "type": "function"
        },
        {
          "inputs": [
            {
              "internalType": "address",
              "name": "user",
              "type": "address"
            },
            {
              "internalType": "uint256",
              "name": "id",
              "type": "uint256"
            }
          ],
          "name": "getUserTool",
          "outputs": [
            {
              "components": [
                {
                  "internalType": "uint256",
                  "name": "lvl",
                  "type": "uint256"
                },
                {
                  "internalType": "uint256",
                  "name": "durability",
                  "type": "uint256"
                },
                {
                  "internalType": "uint256",
                  "name": "lastHarvest",
                  "type": "uint256"
                }
              ],
              "internalType": "struct Tools.UserTools",
              "name": "",
              "type": "tuple"
            }
          ],
          "stateMutability": "view",
          "type": "function"
        },
        {
          "inputs": [],
          "name": "owner",
          "outputs": [
            {
              "internalType": "address",
              "name": "",
              "type": "address"
            }
          ],
          "stateMutability": "view",
          "type": "function"
        },
        {
          "inputs": [
            {
              "internalType": "address",
              "name": "_contractCaller",
              "type": "address"
            }
          ],
          "name": "setContractCaller",
          "outputs": [],
          "stateMutability": "nonpayable",
          "type": "function"
        },
        {
          "inputs": [
            {
              "internalType": "address",
              "name": "_owner",
              "type": "address"
            }
          ],
          "name": "setOwner",
          "outputs": [],
          "stateMutability": "nonpayable",
          "type": "function"
        },
        {
          "inputs": [
            {
              "internalType": "uint256",
              "name": "lvl",
              "type": "uint256"
            }
          ],
          "name": "toolCost",
          "outputs": [
            {
              "internalType": "uint256",
              "name": "woodCost",
              "type": "uint256"
            },
            {
              "internalType": "uint256",
              "name": "goldCost",
              "type": "uint256"
            },
            {
              "internalType": "uint256",
              "name": "repayCost",
              "type": "uint256"
            }
          ],
          "stateMutability": "view",
          "type": "function"
        },
        {
          "inputs": [
            {
              "internalType": "uint256",
              "name": "lvl",
              "type": "uint256"
            }
          ],
          "name": "tools",
          "outputs": [
            {
              "internalType": "uint16",
              "name": "energyConsumption",
              "type": "uint16"
            },
            {
              "internalType": "uint16",
              "name": "durability",
              "type": "uint16"
            },
            {
              "internalType": "uint16",
              "name": "durabilityConsumption",
              "type": "uint16"
            },
            {
              "internalType": "uint32",
              "name": "chargeTime",
              "type": "uint32"
            },
            {
              "internalType": "uint256",
              "name": "rewardRate",
              "type": "uint256"
            }
          ],
          "stateMutability": "view",
          "type": "function"
        },
        {
          "inputs": [
            {
              "internalType": "address",
              "name": "user",
              "type": "address"
            }
          ],
          "name": "totalUserTools",
          "outputs": [
            {
              "internalType": "uint256",
              "name": "totalTools",
              "type": "uint256"
            }
          ],
          "stateMutability": "view",
          "type": "function"
        },
        {
          "inputs": [
            {
              "internalType": "address",
              "name": "user",
              "type": "address"
            },
            {
              "internalType": "uint256",
              "name": "id",
              "type": "uint256"
            }
          ],
          "name": "userTools",
          "outputs": [
            {
              "internalType": "uint256",
              "name": "lvl",
              "type": "uint256"
            },
            {
              "internalType": "uint256",
              "name": "durability",
              "type": "uint256"
            },
            {
              "internalType": "uint256",
              "name": "lastHarvest",
              "type": "uint256"
            }
          ],
          "stateMutability": "view",
          "type": "function"
        }
      ],
      "evm": {
        "bytecode": {
          "linkReferences": {},
          "object": "608060405234801561001057600080fd5b5060405161188d38038061188d83398101604081905261002f916104f2565b600080546001600160a01b0319908116339081178355825260066020526040808320805460ff1990811660019081179092556001600160a01b03868116865292909420805490941681179093558254908816911617905561009184848461009b565b5050505050610619565b3360009081526006602052604090205460ff166100ff5760405162461bcd60e51b815260206004820152601860248201527f4f6e6c79206f776e65722063616e2061646420746f6f6c73000000000000000060448201526064015b60405180910390fd5b81518351148015610111575080518251145b61015d5760405162461bcd60e51b815260206004820152601660248201527f417272617973206c656e677468206d69736d617463680000000000000000000060448201526064016100f6565b60005b83518110156102a55782818151811061017b5761017b610603565b60200260200101516002600086848151811061019957610199610603565b6020908102919091018101518252818101929092526040908101600020835181549385015192850151606086015163ffffffff1666010000000000000263ffffffff60301b1961ffff928316640100000000021665ffffffffffff60201b19958316620100000263ffffffff199097169290931691909117949094179290921691909117919091178155608090910151600190910155815182908290811061024357610243610603565b60200260200101516003600086848151811061026157610261610603565b602002602001015181526020019081526020016000206000820151816000015560208201518160010155604082015181600201559050508080600101915050610160565b50505050565b80516001600160a01b03811681146102c257600080fd5b919050565b634e487b7160e01b600052604160045260246000fd5b60405160a081016001600160401b03811182821017156102ff576102ff6102c7565b60405290565b604051606081016001600160401b03811182821017156102ff576102ff6102c7565b604051601f8201601f191681016001600160401b038111828210171561034f5761034f6102c7565b604052919050565b60006001600160401b03821115610370576103706102c7565b5060051b60200190565b805161ffff811681146102c257600080fd5b600082601f83011261039d57600080fd5b81516103b06103ab82610357565b610327565b80828252602082019150602060a084028601019250858311156103d257600080fd5b602085015b8381101561045a5760a081880312156103ef57600080fd5b6103f76102dd565b6104008261037a565b815261040e6020830161037a565b602082015261041f6040830161037a565b6040820152606082015163ffffffff8116811461043b57600080fd5b606082015260808281015190820152835260209092019160a0016103d7565b5095945050505050565b600082601f83011261047557600080fd5b81516104836103ab82610357565b808282526020820191506020606084028601019250858311156104a557600080fd5b602085015b8381101561045a57606081880312156104c257600080fd5b6104ca610305565b81518152602080830151818301526040808401519083015290845292909201916060016104aa565b600080600080600060a0868803121561050a57600080fd5b610513866102ab565b60208701519095506001600160401b0381111561052f57600080fd5b8601601f8101881361054057600080fd5b805161054e6103ab82610357565b8082825260208201915060208360051b85010192508a83111561057057600080fd5b6020840193505b82841015610592578351825260209384019390910190610577565b60408a0151909750925050506001600160401b038111156105b257600080fd5b6105be8882890161038c565b606088015190945090506001600160401b038111156105dc57600080fd5b6105e888828901610464565b9250506105f7608087016102ab565b90509295509295909350565b634e487b7160e01b600052603260045260246000fd5b611265806106286000396000f3fe608060405234801561001057600080fd5b50600436106101215760003560e01c806376784f97116100ad578063a6352d1411610071578063a6352d141461030e578063acd50aa11461032e578063bc60c31d14610368578063d285af53146103f4578063f1e9f1e5146104e657600080fd5b806376784f971461024657806383ec2e901461027d578063856a8ace146102905780638da5cb5b146102c357806391ff75a9146102ee57600080fd5b80634631c878116100f45780634631c878146101b0578063609738a7146101d057806362bc2275146101e35780636694a244146101f65780636be1e0d61461023357600080fd5b806313af4035146101265780632a24b5091461013b5780632a94a9c81461018a57806331a27c121461019d575b600080fd5b610139610134366004610d25565b6104f9565b005b61016a610149366004610d47565b60036020526000908152604090208054600182015460029092015490919083565b604080519384526020840192909252908201526060015b60405180910390f35b610139610198366004610d25565b61057a565b6101396101ab366004610e4e565b610603565b6101c36101be366004610e7b565b6106e8565b6040516101819190610ea5565b6101396101de366004610ec6565b61075b565b6101396101f1366004610e7b565b61080c565b61021e610204366004610d47565b600090815260036020526040902080546001909101549091565b60408051928352602083019190915201610181565b610139610241366004611064565b6108f9565b61026f610254366004610d25565b6001600160a01b031660009081526005602052604090205490565b604051908152602001610181565b61013961028b366004611151565b610afb565b6102b361029e366004610d25565b60066020526000908152604090205460ff1681565b6040519015158152602001610181565b6000546102d6906001600160a01b031681565b6040516001600160a01b039091168152602001610181565b6103016102fc366004610d25565b610bfb565b6040516101819190611190565b61026f61031c366004610d25565b60056020526000908152604090205481565b61016a61033c366004610e7b565b600460209081526000928352604080842090915290825290208054600182015460029092015490919083565b6103ba610376366004610d47565b6002602052600090815260409020805460019091015461ffff80831692620100008104821692640100000000820490921691600160301b90910463ffffffff169085565b6040805161ffff96871681529486166020860152929094169183019190915263ffffffff166060820152608081019190915260a001610181565b610492610402366004610d47565b6040805160a08101825260008082526020820181905291810182905260608101829052608081019190915250600090815260026020908152604091829020825160a081018452815461ffff8082168352620100008204811694830194909452640100000000810490931693810193909352600160301b90910463ffffffff16606083015260010154608082015290565b6040516101819190600060a08201905061ffff835116825261ffff602084015116602083015261ffff604084015116604083015263ffffffff60608401511660608301526080830151608083015292915050565b6001546102d6906001600160a01b031681565b6000546001600160a01b031633146105585760405162461bcd60e51b815260206004820152601860248201527f4f6e6c79206f776e65722063616e20736574206f776e6572000000000000000060448201526064015b60405180910390fd5b600080546001600160a01b0319166001600160a01b0392909216919091179055565b6000546001600160a01b031633146105df5760405162461bcd60e51b815260206004820152602260248201527f4f6e6c79206f776e65722063616e2073657420636f6e74726163742063616c6c60448201526132b960f11b606482015260840161054f565b6001600160a01b03166000908152600660205260409020805460ff19166001179055565b3360009081526006602052604090205460ff166106625760405162461bcd60e51b815260206004820152601860248201527f4f6e6c79206f776e65722063616e206564697420746f6f6c0000000000000000604482015260640161054f565b600091825260026020908152604092839020825181549284015194840151606085015163ffffffff16600160301b0263ffffffff60301b1961ffff928316640100000000021669ffffffffffff0000000019978316620100000263ffffffff19909616929093169190911793909317949094169390931717825560800151600190910155565b61070c60405180606001604052806000815260200160008152602001600081525090565b506001600160a01b038216600090815260046020908152604080832084845282529182902082516060810184528154815260018201549281019290925260020154918101919091525b92915050565b3360009081526006602052604090205460ff166107ba5760405162461bcd60e51b815260206004820152601d60248201527f4f6e6c79206f776e65722063616e2065646974207573657220746f6f6c000000604482015260640161054f565b6040805160608101825293845260208085019384528482019283526001600160a01b03909616600090815260048752818120958152949095529390922090518155905160018201559051600290910155565b3360009081526006602052604090205460ff1661086b5760405162461bcd60e51b815260206004820152601c60248201527f4f6e6c79206f776e65722063616e20616464207573657220746f6f6c00000000604482015260640161054f565b6001600160a01b03821660008181526005602081815260408084208054825160608101845288815288875260028086528488205462010000900461ffff16828701908152428387019081528a8a5260048852868a20858b5288529589209251835551600183015593519301929092559484529190528254909290916108ef836111f2565b9190505550505050565b3360009081526006602052604090205460ff166109585760405162461bcd60e51b815260206004820152601860248201527f4f6e6c79206f776e65722063616e2061646420746f6f6c730000000000000000604482015260640161054f565b8151835114801561096a575080518251145b6109af5760405162461bcd60e51b8152602060048201526016602482015275082e4e4c2f2e640d8cadccee8d040dad2e6dac2e8c6d60531b604482015260640161054f565b60005b8351811015610af5578281815181106109cd576109cd611219565b6020026020010151600260008684815181106109eb576109eb611219565b6020908102919091018101518252818101929092526040908101600020835181549385015192850151606086015163ffffffff16600160301b0263ffffffff60301b1961ffff928316640100000000021669ffffffffffff0000000019958316620100000263ffffffff1990971692909316919091179490941792909216919091179190911781556080909101516001909101558151829082908110610a9357610a93611219565b602002602001015160036000868481518110610ab157610ab1611219565b6020026020010151815260200190815260200160002060008201518160000155602082015181600101556040820151816002015590505080806001019150506109b2565b50505050565b3360009081526006602052604090205460ff16610b5a5760405162461bcd60e51b815260206004820152601760248201527f4f6e6c79206f776e65722063616e2061646420746f6f6c000000000000000000604482015260640161054f565b600092835260026020818152604080862085518154848801518489015160608a015163ffffffff16600160301b0263ffffffff60301b1961ffff928316640100000000021669ffffffffffff0000000019938316620100000263ffffffff1990951692909516919091179290921716919091171781556080909501516001958601556003825294859020835181559083015193810193909355920151910155565b6001600160a01b0381166000908152600560205260408120546060918167ffffffffffffffff811115610c3057610c30610d60565b604051908082528060200260200182016040528015610c8557816020015b610c7260405180606001604052806000815260200160008152602001600081525090565b815260200190600190039081610c4e5790505b50905060005b82811015610d01576001600160a01b038516600090815260046020908152604080832084845282529182902082516060810184528154815260018201549281019290925260020154918101919091528251839083908110610cee57610cee611219565b6020908102919091010152600101610c8b565b509392505050565b80356001600160a01b0381168114610d2057600080fd5b919050565b600060208284031215610d3757600080fd5b610d4082610d09565b9392505050565b600060208284031215610d5957600080fd5b5035919050565b634e487b7160e01b600052604160045260246000fd5b604051601f8201601f1916810167ffffffffffffffff81118282101715610d9f57610d9f610d60565b604052919050565b803561ffff81168114610d2057600080fd5b600060a08284031215610dcb57600080fd5b60405160a0810167ffffffffffffffff81118282101715610dee57610dee610d60565b604052905080610dfd83610da7565b8152610e0b60208401610da7565b6020820152610e1c60408401610da7565b6040820152606083013563ffffffff81168114610e3857600080fd5b6060820152608092830135920191909152919050565b60008060c08385031215610e6157600080fd5b82359150610e728460208501610db9565b90509250929050565b60008060408385031215610e8e57600080fd5b610e9783610d09565b946020939093013593505050565b81518152602080830151908201526040808301519082015260608101610755565b600080600080600060a08688031215610ede57600080fd5b610ee786610d09565b97602087013597506040870135966060810135965060800135945092505050565b600067ffffffffffffffff821115610f2257610f22610d60565b5060051b60200190565b600082601f830112610f3d57600080fd5b8135610f50610f4b82610f08565b610d76565b80828252602082019150602060a08402860101925085831115610f7257600080fd5b602085015b83811015610f9957610f898782610db9565b835260209092019160a001610f77565b5095945050505050565b600060608284031215610fb557600080fd5b6040516060810167ffffffffffffffff81118282101715610fd857610fd8610d60565b60409081528335825260208085013590830152928301359281019290925250919050565b600082601f83011261100d57600080fd5b813561101b610f4b82610f08565b8082825260208201915060206060840286010192508583111561103d57600080fd5b602085015b83811015610f99576110548782610fa3565b8352602090920191606001611042565b60008060006060848603121561107957600080fd5b833567ffffffffffffffff81111561109057600080fd5b8401601f810186136110a157600080fd5b80356110af610f4b82610f08565b8082825260208201915060208360051b8501019250888311156110d157600080fd5b6020840193505b828410156110f35783358252602093840193909101906110d8565b9550505050602084013567ffffffffffffffff81111561111257600080fd5b61111e86828701610f2c565b925050604084013567ffffffffffffffff81111561113b57600080fd5b61114786828701610ffc565b9150509250925092565b6000806000610120848603121561116757600080fd5b833592506111788560208601610db9565b91506111878560c08601610fa3565b90509250925092565b602080825282518282018190526000918401906040840190835b818110156111e7576111d18385518051825260208082015190830152604090810151910152565b60209390930192606092909201916001016111aa565b509095945050505050565b60006001820161121257634e487b7160e01b600052601160045260246000fd5b5060010190565b634e487b7160e01b600052603260045260246000fdfea2646970667358221220415bab4abc65bf496abd163e1749f39870bf1ac270fba6ff00fe0a4561796ee464736f6c634300081c0033",
          "opcodes": "PUSH1 0x80 PUSH1 0x40 MSTORE CALLVALUE DUP1 ISZERO PUSH2 0x10 JUMPI PUSH1 0x0 DUP1 REVERT JUMPDEST POP PUSH1 0x40 MLOAD PUSH2 0x188D CODESIZE SUB DUP1 PUSH2 0x188D DUP4 CODECOPY DUP2 ADD PUSH1 0x40 DUP2 SWAP1 MSTORE PUSH2 0x2F SWAP2 PUSH2 0x4F2 JUMP JUMPDEST PUSH1 0x0 DUP1 SLOAD PUSH1 0x1 PUSH1 0x1 PUSH1 0xA0 SHL SUB NOT SWAP1 DUP2 AND CALLER SWAP1 DUP2 OR DUP4 SSTORE DUP3 MSTORE PUSH1 0x6 PUSH1 0x20 MSTORE PUSH1 0x40 DUP1 DUP4 KECCAK256 DUP1 SLOAD PUSH1 0xFF NOT SWAP1 DUP2 AND PUSH1 0x1 SWAP1 DUP2 OR SWAP1 SWAP3 SSTORE PUSH1 0x1 PUSH1 0x1 PUSH1 0xA0 SHL SUB DUP7 DUP2 AND DUP7 MSTORE SWAP3 SWAP1 SWAP5 KECCAK256 DUP1 SLOAD SWAP1 SWAP5 AND DUP2 OR SWAP1 SWAP4 SSTORE DUP3 SLOAD SWAP1 DUP9 AND SWAP2 AND OR SWAP1 SSTORE PUSH2 0x91 DUP5 DUP5 DUP5 PUSH2 0x9B JUMP JUMPDEST POP POP POP POP POP PUSH2 0x619 JUMP JUMPDEST CALLER PUSH1 0x0 SWAP1 DUP2 MSTORE PUSH1 0x6 PUSH1 0x20 MSTORE PUSH1 0x40 SWAP1 KECCAK256 SLOAD PUSH1 0xFF AND PUSH2 0xFF JUMPI PUSH1 0x40 MLOAD PUSH3 0x461BCD PUSH1 0xE5 SHL DUP2 MSTORE PUSH1 0x20 PUSH1 0x4 DUP3 ADD MSTORE PUSH1 0x18 PUSH1 0x24 DUP3 ADD MSTORE PUSH32 0x4F6E6C79206F776E65722063616E2061646420746F6F6C730000000000000000 PUSH1 0x44 DUP3 ADD MSTORE PUSH1 0x64 ADD JUMPDEST PUSH1 0x40 MLOAD DUP1 SWAP2 SUB SWAP1 REVERT JUMPDEST DUP2 MLOAD DUP4 MLOAD EQ DUP1 ISZERO PUSH2 0x111 JUMPI POP DUP1 MLOAD DUP3 MLOAD EQ JUMPDEST PUSH2 0x15D JUMPI PUSH1 0x40 MLOAD PUSH3 0x461BCD PUSH1 0xE5 SHL DUP2 MSTORE PUSH1 0x20 PUSH1 0x4 DUP3 ADD MSTORE PUSH1 0x16 PUSH1 0x24 DUP3 ADD MSTORE PUSH32 0x417272617973206C656E677468206D69736D6174636800000000000000000000 PUSH1 0x44 DUP3 ADD MSTORE PUSH1 0x64 ADD PUSH2 0xF6 JUMP JUMPDEST PUSH1 0x0 JUMPDEST DUP4 MLOAD DUP2 LT ISZERO PUSH2 0x2A5 JUMPI DUP3 DUP2 DUP2 MLOAD DUP2 LT PUSH2 0x17B JUMPI PUSH2 0x17B PUSH2 0x603 JUMP JUMPDEST PUSH1 0x20 MUL PUSH1 0x20 ADD ADD MLOAD PUSH1 0x2 PUSH1 0x0 DUP7 DUP5 DUP2 MLOAD DUP2 LT PUSH2 0x199 JUMPI PUSH2 0x199 PUSH2 0x603 JUMP JUMPDEST PUSH1 0x20 SWAP1 DUP2 MUL SWAP2 SWAP1 SWAP2 ADD DUP2 ADD MLOAD DUP3 MSTORE DUP2 DUP2 ADD SWAP3 SWAP1 SWAP3 MSTORE PUSH1 0x40 SWAP1 DUP2 ADD PUSH1 0x0 KECCAK256 DUP4 MLOAD DUP2 SLOAD SWAP4 DUP6 ADD MLOAD SWAP3 DUP6 ADD MLOAD PUSH1 0x60 DUP7 ADD MLOAD PUSH4 0xFFFFFFFF AND PUSH7 0x1000000000000 MUL PUSH4 0xFFFFFFFF PUSH1 0x30 SHL NOT PUSH2 0xFFFF SWAP3 DUP4 AND PUSH5 0x100000000 MUL AND PUSH6 0xFFFFFFFFFFFF PUSH1 0x20 SHL NOT SWAP6 DUP4 AND PUSH3 0x10000 MUL PUSH4 0xFFFFFFFF NOT SWAP1 SWAP8 AND SWAP3 SWAP1 SWAP4 AND SWAP2 SWAP1 SWAP2 OR SWAP5 SWAP1 SWAP5 OR SWAP3 SWAP1 SWAP3 AND SWAP2 SWAP1 SWAP2 OR SWAP2 SWAP1 SWAP2 OR DUP2 SSTORE PUSH1 0x80 SWAP1 SWAP2 ADD MLOAD PUSH1 0x1 SWAP1 SWAP2 ADD SSTORE DUP2 MLOAD DUP3 SWAP1 DUP3 SWAP1 DUP2 LT PUSH2 0x243 JUMPI PUSH2 0x243 PUSH2 0x603 JUMP JUMPDEST PUSH1 0x20 MUL PUSH1 0x20 ADD ADD MLOAD PUSH1 0x3 PUSH1 0x0 DUP7 DUP5 DUP2 MLOAD DUP2 LT PUSH2 0x261 JUMPI PUSH2 0x261 PUSH2 0x603 JUMP JUMPDEST PUSH1 0x20 MUL PUSH1 0x20 ADD ADD MLOAD DUP2 MSTORE PUSH1 0x20 ADD SWAP1 DUP2 MSTORE PUSH1 0x20 ADD PUSH1 0x0 KECCAK256 PUSH1 0x0 DUP3 ADD MLOAD DUP2 PUSH1 0x0 ADD SSTORE PUSH1 0x20 DUP3 ADD MLOAD DUP2 PUSH1 0x1 ADD SSTORE PUSH1 0x40 DUP3 ADD MLOAD DUP2 PUSH1 0x2 ADD SSTORE SWAP1 POP POP DUP1 DUP1 PUSH1 0x1 ADD SWAP2 POP POP PUSH2 0x160 JUMP JUMPDEST POP POP POP POP JUMP JUMPDEST DUP1 MLOAD PUSH1 0x1 PUSH1 0x1 PUSH1 0xA0 SHL SUB DUP2 AND DUP2 EQ PUSH2 0x2C2 JUMPI PUSH1 0x0 DUP1 REVERT JUMPDEST SWAP2 SWAP1 POP JUMP JUMPDEST PUSH4 0x4E487B71 PUSH1 0xE0 SHL PUSH1 0x0 MSTORE PUSH1 0x41 PUSH1 0x4 MSTORE PUSH1 0x24 PUSH1 0x0 REVERT JUMPDEST PUSH1 0x40 MLOAD PUSH1 0xA0 DUP2 ADD PUSH1 0x1 PUSH1 0x1 PUSH1 0x40 SHL SUB DUP2 GT DUP3 DUP3 LT OR ISZERO PUSH2 0x2FF JUMPI PUSH2 0x2FF PUSH2 0x2C7 JUMP JUMPDEST PUSH1 0x40 MSTORE SWAP1 JUMP JUMPDEST PUSH1 0x40 MLOAD PUSH1 0x60 DUP2 ADD PUSH1 0x1 PUSH1 0x1 PUSH1 0x40 SHL SUB DUP2 GT DUP3 DUP3 LT OR ISZERO PUSH2 0x2FF JUMPI PUSH2 0x2FF PUSH2 0x2C7 JUMP JUMPDEST PUSH1 0x40 MLOAD PUSH1 0x1F DUP3 ADD PUSH1 0x1F NOT AND DUP2 ADD PUSH1 0x1 PUSH1 0x1 PUSH1 0x40 SHL SUB DUP2 GT DUP3 DUP3 LT OR ISZERO PUSH2 0x34F JUMPI PUSH2 0x34F PUSH2 0x2C7 JUMP JUMPDEST PUSH1 0x40 MSTORE SWAP2 SWAP1 POP JUMP JUMPDEST PUSH1 0x0 PUSH1 0x1 PUSH1 0x1 PUSH1 0x40 SHL SUB DUP3 GT ISZERO PUSH2 0x370 JUMPI PUSH2 0x370 PUSH2 0x2C7 JUMP JUMPDEST POP PUSH1 0x5 SHL PUSH1 0x20 ADD SWAP1 JUMP JUMPDEST DUP1 MLOAD PUSH2 0xFFFF DUP2 AND DUP2 EQ PUSH2 0x2C2 JUMPI PUSH1 0x0 DUP1 REVERT JUMPDEST PUSH1 0x0 DUP3 PUSH1 0x1F DUP4 ADD SLT PUSH2 0x39D JUMPI PUSH1 0x0 DUP1 REVERT JUMPDEST DUP2 MLOAD PUSH2 0x3B0 PUSH2 0x3AB DUP3 PUSH2 0x357 JUMP JUMPDEST PUSH2 0x327 JUMP JUMPDEST DUP1 DUP3 DUP3 MSTORE PUSH1 0x20 DUP3 ADD SWAP2 POP PUSH1 0x20 PUSH1 0xA0 DUP5 MUL DUP7 ADD ADD SWAP3 POP DUP6 DUP4 GT ISZERO PUSH2 0x3D2 JUMPI PUSH1 0x0 DUP1 REVERT JUMPDEST PUSH1 0x20 DUP6 ADD JUMPDEST DUP4 DUP2 LT ISZERO PUSH2 0x45A JUMPI PUSH1 0xA0 DUP2 DUP9 SUB SLT ISZERO PUSH2 0x3EF JUMPI PUSH1 0x0 DUP1 REVERT JUMPDEST PUSH2 0x3F7 PUSH2 0x2DD JUMP JUMPDEST PUSH2 0x400 DUP3 PUSH2 0x37A JUMP JUMPDEST DUP2 MSTORE PUSH2 0x40E PUSH1 0x20 DUP4 ADD PUSH2 0x37A JUMP JUMPDEST PUSH1 0x20 DUP3 ADD MSTORE PUSH2 0x41F PUSH1 0x40 DUP4 ADD PUSH2 0x37A JUMP JUMPDEST PUSH1 0x40 DUP3 ADD MSTORE PUSH1 0x60 DUP3 ADD MLOAD PUSH4 0xFFFFFFFF DUP2 AND DUP2 EQ PUSH2 0x43B JUMPI PUSH1 0x0 DUP1 REVERT JUMPDEST PUSH1 0x60 DUP3 ADD MSTORE PUSH1 0x80 DUP3 DUP2 ADD MLOAD SWAP1 DUP3 ADD MSTORE DUP4 MSTORE PUSH1 0x20 SWAP1 SWAP3 ADD SWAP2 PUSH1 0xA0 ADD PUSH2 0x3D7 JUMP JUMPDEST POP SWAP6 SWAP5 POP POP POP POP POP JUMP JUMPDEST PUSH1 0x0 DUP3 PUSH1 0x1F DUP4 ADD SLT PUSH2 0x475 JUMPI PUSH1 0x0 DUP1 REVERT JUMPDEST DUP2 MLOAD PUSH2 0x483 PUSH2 0x3AB DUP3 PUSH2 0x357 JUMP JUMPDEST DUP1 DUP3 DUP3 MSTORE PUSH1 0x20 DUP3 ADD SWAP2 POP PUSH1 0x20 PUSH1 0x60 DUP5 MUL DUP7 ADD ADD SWAP3 POP DUP6 DUP4 GT ISZERO PUSH2 0x4A5 JUMPI PUSH1 0x0 DUP1 REVERT JUMPDEST PUSH1 0x20 DUP6 ADD JUMPDEST DUP4 DUP2 LT ISZERO PUSH2 0x45A JUMPI PUSH1 0x60 DUP2 DUP9 SUB SLT ISZERO PUSH2 0x4C2 JUMPI PUSH1 0x0 DUP1 REVERT JUMPDEST PUSH2 0x4CA PUSH2 0x305 JUMP JUMPDEST DUP2 MLOAD DUP2 MSTORE PUSH1 0x20 DUP1 DUP4 ADD MLOAD DUP2 DUP4 ADD MSTORE PUSH1 0x40 DUP1 DUP5 ADD MLOAD SWAP1 DUP4 ADD MSTORE SWAP1 DUP5 MSTORE SWAP3 SWAP1 SWAP3 ADD SWAP2 PUSH1 0x60 ADD PUSH2 0x4AA JUMP JUMPDEST PUSH1 0x0 DUP1 PUSH1 0x0 DUP1 PUSH1 0x0 PUSH1 0xA0 DUP7 DUP9 SUB SLT ISZERO PUSH2 0x50A JUMPI PUSH1 0x0 DUP1 REVERT JUMPDEST PUSH2 0x513 DUP7 PUSH2 0x2AB JUMP JUMPDEST PUSH1 0x20 DUP8 ADD MLOAD SWAP1 SWAP6 POP PUSH1 0x1 PUSH1 0x1 PUSH1 0x40 SHL SUB DUP2 GT ISZERO PUSH2 0x52F JUMPI PUSH1 0x0 DUP1 REVERT JUMPDEST DUP7 ADD PUSH1 0x1F DUP2 ADD DUP9 SGT PUSH2 0x540 JUMPI PUSH1 0x0 DUP1 REVERT JUMPDEST DUP1 MLOAD PUSH2 0x54E PUSH2 0x3AB DUP3 PUSH2 0x357 JUMP JUMPDEST DUP1 DUP3 DUP3 MSTORE PUSH1 0x20 DUP3 ADD SWAP2 POP PUSH1 0x20 DUP4 PUSH1 0x5 SHL DUP6 ADD ADD SWAP3 POP DUP11 DUP4 GT ISZERO PUSH2 0x570 JUMPI PUSH1 0x0 DUP1 REVERT JUMPDEST PUSH1 0x20 DUP5 ADD SWAP4 POP JUMPDEST DUP3 DUP5 LT ISZERO PUSH2 0x592 JUMPI DUP4 MLOAD DUP3 MSTORE PUSH1 0x20 SWAP4 DUP5 ADD SWAP4 SWAP1 SWAP2 ADD SWAP1 PUSH2 0x577 JUMP JUMPDEST PUSH1 0x40 DUP11 ADD MLOAD SWAP1 SWAP8 POP SWAP3 POP POP POP PUSH1 0x1 PUSH1 0x1 PUSH1 0x40 SHL SUB DUP2 GT ISZERO PUSH2 0x5B2 JUMPI PUSH1 0x0 DUP1 REVERT JUMPDEST PUSH2 0x5BE DUP9 DUP3 DUP10 ADD PUSH2 0x38C JUMP JUMPDEST PUSH1 0x60 DUP9 ADD MLOAD SWAP1 SWAP5 POP SWAP1 POP PUSH1 0x1 PUSH1 0x1 PUSH1 0x40 SHL SUB DUP2 GT ISZERO PUSH2 0x5DC JUMPI PUSH1 0x0 DUP1 REVERT JUMPDEST PUSH2 0x5E8 DUP9 DUP3 DUP10 ADD PUSH2 0x464 JUMP JUMPDEST SWAP3 POP POP PUSH2 0x5F7 PUSH1 0x80 DUP8 ADD PUSH2 0x2AB JUMP JUMPDEST SWAP1 POP SWAP3 SWAP6 POP SWAP3 SWAP6 SWAP1 SWAP4 POP JUMP JUMPDEST PUSH4 0x4E487B71 PUSH1 0xE0 SHL PUSH1 0x0 MSTORE PUSH1 0x32 PUSH1 0x4 MSTORE PUSH1 0x24 PUSH1 0x0 REVERT JUMPDEST PUSH2 0x1265 DUP1 PUSH2 0x628 PUSH1 0x0 CODECOPY PUSH1 0x0 RETURN INVALID PUSH1 0x80 PUSH1 0x40 MSTORE CALLVALUE DUP1 ISZERO PUSH2 0x10 JUMPI PUSH1 0x0 DUP1 REVERT JUMPDEST POP PUSH1 0x4 CALLDATASIZE LT PUSH2 0x121 JUMPI PUSH1 0x0 CALLDATALOAD PUSH1 0xE0 SHR DUP1 PUSH4 0x76784F97 GT PUSH2 0xAD JUMPI DUP1 PUSH4 0xA6352D14 GT PUSH2 0x71 JUMPI DUP1 PUSH4 0xA6352D14 EQ PUSH2 0x30E JUMPI DUP1 PUSH4 0xACD50AA1 EQ PUSH2 0x32E JUMPI DUP1 PUSH4 0xBC60C31D EQ PUSH2 0x368 JUMPI DUP1 PUSH4 0xD285AF53 EQ PUSH2 0x3F4 JUMPI DUP1 PUSH4 0xF1E9F1E5 EQ PUSH2 0x4E6 JUMPI PUSH1 0x0 DUP1 REVERT JUMPDEST DUP1 PUSH4 0x76784F97 EQ PUSH2 0x246 JUMPI DUP1 PUSH4 0x83EC2E90 EQ PUSH2 0x27D JUMPI DUP1 PUSH4 0x856A8ACE EQ PUSH2 0x290 JUMPI DUP1 PUSH4 0x8DA5CB5B EQ PUSH2 0x2C3 JUMPI DUP1 PUSH4 0x91FF75A9 EQ PUSH2 0x2EE JUMPI PUSH1 0x0 DUP1 REVERT JUMPDEST DUP1 PUSH4 0x4631C878 GT PUSH2 0xF4 JUMPI DUP1 PUSH4 0x4631C878 EQ PUSH2 0x1B0 JUMPI DUP1 PUSH4 0x609738A7 EQ PUSH2 0x1D0 JUMPI DUP1 PUSH4 0x62BC2275 EQ PUSH2 0x1E3 JUMPI DUP1 PUSH4 0x6694A244 EQ PUSH2 0x1F6 JUMPI DUP1 PUSH4 0x6BE1E0D6 EQ PUSH2 0x233 JUMPI PUSH1 0x0 DUP1 REVERT JUMPDEST DUP1 PUSH4 0x13AF4035 EQ PUSH2 0x126 JUMPI DUP1 PUSH4 0x2A24B509 EQ PUSH2 0x13B JUMPI DUP1 PUSH4 0x2A94A9C8 EQ PUSH2 0x18A JUMPI DUP1 PUSH4 0x31A27C12 EQ PUSH2 0x19D JUMPI JUMPDEST PUSH1 0x0 DUP1 REVERT JUMPDEST PUSH2 0x139 PUSH2 0x134 CALLDATASIZE PUSH1 0x4 PUSH2 0xD25 JUMP JUMPDEST PUSH2 0x4F9 JUMP JUMPDEST STOP JUMPDEST PUSH2 0x16A PUSH2 0x149 CALLDATASIZE PUSH1 0x4 PUSH2 0xD47 JUMP JUMPDEST PUSH1 0x3 PUSH1 0x20 MSTORE PUSH1 0x0 SWAP1 DUP2 MSTORE PUSH1 0x40 SWAP1 KECCAK256 DUP1 SLOAD PUSH1 0x1 DUP3 ADD SLOAD PUSH1 0x2 SWAP1 SWAP3 ADD SLOAD SWAP1 SWAP2 SWAP1 DUP4 JUMP JUMPDEST PUSH1 0x40 DUP1 MLOAD SWAP4 DUP5 MSTORE PUSH1 0x20 DUP5 ADD SWAP3 SWAP1 SWAP3 MSTORE SWAP1 DUP3 ADD MSTORE PUSH1 0x60 ADD JUMPDEST PUSH1 0x40 MLOAD DUP1 SWAP2 SUB SWAP1 RETURN JUMPDEST PUSH2 0x139 PUSH2 0x198 CALLDATASIZE PUSH1 0x4 PUSH2 0xD25 JUMP JUMPDEST PUSH2 0x57A JUMP JUMPDEST PUSH2 0x139 PUSH2 0x1AB CALLDATASIZE PUSH1 0x4 PUSH2 0xE4E JUMP JUMPDEST PUSH2 0x603 JUMP JUMPDEST PUSH2 0x1C3 PUSH2 0x1BE CALLDATASIZE PUSH1 0x4 PUSH2 0xE7B JUMP JUMPDEST PUSH2 0x6E8 JUMP JUMPDEST PUSH1 0x40 MLOAD PUSH2 0x181 SWAP2 SWAP1 PUSH2 0xEA5 JUMP JUMPDEST PUSH2 0x139 PUSH2 0x1DE CALLDATASIZE PUSH1 0x4 PUSH2 0xEC6 JUMP JUMPDEST PUSH2 0x75B JUMP JUMPDEST PUSH2 0x139 PUSH2 0x1F1 CALLDATASIZE PUSH1 0x4 PUSH2 0xE7B JUMP JUMPDEST PUSH2 0x80C JUMP JUMPDEST PUSH2 0x21E PUSH2 0x204 CALLDATASIZE PUSH1 0x4 PUSH2 0xD47 JUMP JUMPDEST PUSH1 0x0 SWAP1 DUP2 MSTORE PUSH1 0x3 PUSH1 0x20 MSTORE PUSH1 0x40 SWAP1 KECCAK256 DUP1 SLOAD PUSH1 0x1 SWAP1 SWAP2 ADD SLOAD SWAP1 SWAP2 JUMP JUMPDEST PUSH1 0x40 DUP1 MLOAD SWAP3 DUP4 MSTORE PUSH1 0x20 DUP4 ADD SWAP2 SWAP1 SWAP2 MSTORE ADD PUSH2 0x181 JUMP JUMPDEST PUSH2 0x139 PUSH2 0x241 CALLDATASIZE PUSH1 0x4 PUSH2 0x1064 JUMP JUMPDEST PUSH2 0x8F9 JUMP JUMPDEST PUSH2 0x26F PUSH2 0x254 CALLDATASIZE PUSH1 0x4 PUSH2 0xD25 JUMP JUMPDEST PUSH1 0x1 PUSH1 0x1 PUSH1 0xA0 SHL SUB AND PUSH1 0x0 SWAP1 DUP2 MSTORE PUSH1 0x5 PUSH1 0x20 MSTORE PUSH1 0x40 SWAP1 KECCAK256 SLOAD SWAP1 JUMP JUMPDEST PUSH1 0x40 MLOAD SWAP1 DUP2 MSTORE PUSH1 0x20 ADD PUSH2 0x181 JUMP JUMPDEST PUSH2 0x139 PUSH2 0x28B CALLDATASIZE PUSH1 0x4 PUSH2 0x1151 JUMP JUMPDEST PUSH2 0xAFB JUMP JUMPDEST PUSH2 0x2B3 PUSH2 0x29E CALLDATASIZE PUSH1 0x4 PUSH2 0xD25 JUMP JUMPDEST PUSH1 0x6 PUSH1 0x20 MSTORE PUSH1 0x0 SWAP1 DUP2 MSTORE PUSH1 0x40 SWAP1 KECCAK256 SLOAD PUSH1 0xFF AND DUP2 JUMP JUMPDEST PUSH1 0x40 MLOAD SWAP1 ISZERO ISZERO DUP2 MSTORE PUSH1 0x20 ADD PUSH2 0x181 JUMP JUMPDEST PUSH1 0x0 SLOAD PUSH2 0x2D6 SWAP1 PUSH1 0x1 PUSH1 0x1 PUSH1 0xA0 SHL SUB AND DUP2 JUMP JUMPDEST PUSH1 0x40 MLOAD PUSH1 0x1 PUSH1 0x1 PUSH1 0xA0 SHL SUB SWAP1 SWAP2 AND DUP2 MSTORE PUSH1 0x20 ADD PUSH2 0x181 JUMP JUMPDEST PUSH2 0x301 PUSH2 0x2FC CALLDATASIZE PUSH1 0x4 PUSH2 0xD25 JUMP JUMPDEST PUSH2 0xBFB JUMP JUMPDEST PUSH1 0x40 MLOAD PUSH2 0x181 SWAP2 SWAP1 PUSH2 0x1190 JUMP JUMPDEST PUSH2 0x26F PUSH2 0x31C CALLDATASIZE PUSH1 0x4 PUSH2 0xD25 JUMP JUMPDEST PUSH1 0x5 PUSH1 0x20 MSTORE PUSH1 0x0 SWAP1 DUP2 MSTORE PUSH1 0x40 SWAP1 KECCAK256 SLOAD DUP2 JUMP JUMPDEST PUSH2 0x16A PUSH2 0x33C CALLDATASIZE PUSH1 0x4 PUSH2 0xE7B JUMP JUMPDEST PUSH1 0x4 PUSH1 0x20 SWAP1 DUP2 MSTORE PUSH1 0x0 SWAP3 DUP4 MSTORE PUSH1 0x40 DUP1 DUP5 KECCAK256 SWAP1 SWAP2 MSTORE SWAP1 DUP3 MSTORE SWAP1 KECCAK256 DUP1 SLOAD PUSH1 0x1 DUP3 ADD SLOAD PUSH1 0x2 SWAP1 SWAP3 ADD SLOAD SWAP1 SWAP2 SWAP1 DUP4 JUMP JUMPDEST PUSH2 0x3BA PUSH2 0x376 CALLDATASIZE PUSH1 0x4 PUSH2 0xD47 JUMP JUMPDEST PUSH1 0x2 PUSH1 0x20 MSTORE PUSH1 0x0 SWAP1 DUP2 MSTORE PUSH1 0x40 SWAP1 KECCAK256 DUP1 SLOAD PUSH1 0x1 SWAP1 SWAP2 ADD SLOAD PUSH2 0xFFFF DUP1 DUP4 AND SWAP3 PUSH3 0x10000 DUP2 DIV DUP3 AND SWAP3 PUSH5 0x100000000 DUP3 DIV SWAP1 SWAP3 AND SWAP2 PUSH1 0x1 PUSH1 0x30 SHL SWAP1 SWAP2 DIV PUSH4 0xFFFFFFFF AND SWAP1 DUP6 JUMP JUMPDEST PUSH1 0x40 DUP1 MLOAD PUSH2 0xFFFF SWAP7 DUP8 AND DUP2 MSTORE SWAP5 DUP7 AND PUSH1 0x20 DUP7 ADD MSTORE SWAP3 SWAP1 SWAP5 AND SWAP2 DUP4 ADD SWAP2 SWAP1 SWAP2 MSTORE PUSH4 0xFFFFFFFF AND PUSH1 0x60 DUP3 ADD MSTORE PUSH1 0x80 DUP2 ADD SWAP2 SWAP1 SWAP2 MSTORE PUSH1 0xA0 ADD PUSH2 0x181 JUMP JUMPDEST PUSH2 0x492 PUSH2 0x402 CALLDATASIZE PUSH1 0x4 PUSH2 0xD47 JUMP JUMPDEST PUSH1 0x40 DUP1 MLOAD PUSH1 0xA0 DUP2 ADD DUP3 MSTORE PUSH1 0x0 DUP1 DUP3 MSTORE PUSH1 0x20 DUP3 ADD DUP2 SWAP1 MSTORE SWAP2 DUP2 ADD DUP3 SWAP1 MSTORE PUSH1 0x60 DUP2 ADD DUP3 SWAP1 MSTORE PUSH1 0x80 DUP2 ADD SWAP2 SWAP1 SWAP2 MSTORE POP PUSH1 0x0 SWAP1 DUP2 MSTORE PUSH1 0x2 PUSH1 0x20 SWAP1 DUP2 MSTORE PUSH1 0x40 SWAP2 DUP3 SWAP1 KECCAK256 DUP3 MLOAD PUSH1 0xA0 DUP2 ADD DUP5 MSTORE DUP2 SLOAD PUSH2 0xFFFF DUP1 DUP3 AND DUP4 MSTORE PUSH3 0x10000 DUP3 DIV DUP2 AND SWAP5 DUP4 ADD SWAP5 SWAP1 SWAP5 MSTORE PUSH5 0x100000000 DUP2 DIV SWAP1 SWAP4 AND SWAP4 DUP2 ADD SWAP4 SWAP1 SWAP4 MSTORE PUSH1 0x1 PUSH1 0x30 SHL SWAP1 SWAP2 DIV PUSH4 0xFFFFFFFF AND PUSH1 0x60 DUP4 ADD MSTORE PUSH1 0x1 ADD SLOAD PUSH1 0x80 DUP3 ADD MSTORE SWAP1 JUMP JUMPDEST PUSH1 0x40 MLOAD PUSH2 0x181 SWAP2 SWAP1 PUSH1 0x0 PUSH1 0xA0 DUP3 ADD SWAP1 POP PUSH2 0xFFFF DUP4 MLOAD AND DUP3 MSTORE PUSH2 0xFFFF PUSH1 0x20 DUP5 ADD MLOAD AND PUSH1 0x20 DUP4 ADD MSTORE PUSH2 0xFFFF PUSH1 0x40 DUP5 ADD MLOAD AND PUSH1 0x40 DUP4 ADD MSTORE PUSH4 0xFFFFFFFF PUSH1 0x60 DUP5 ADD MLOAD AND PUSH1 0x60 DUP4 ADD MSTORE PUSH1 0x80 DUP4 ADD MLOAD PUSH1 0x80 DUP4 ADD MSTORE SWAP3 SWAP2 POP POP JUMP JUMPDEST PUSH1 0x1 SLOAD PUSH2 0x2D6 SWAP1 PUSH1 0x1 PUSH1 0x1 PUSH1 0xA0 SHL SUB AND DUP2 JUMP JUMPDEST PUSH1 0x0 SLOAD PUSH1 0x1 PUSH1 0x1 PUSH1 0xA0 SHL SUB AND CALLER EQ PUSH2 0x558 JUMPI PUSH1 0x40 MLOAD PUSH3 0x461BCD PUSH1 0xE5 SHL DUP2 MSTORE PUSH1 0x20 PUSH1 0x4 DUP3 ADD MSTORE PUSH1 0x18 PUSH1 0x24 DUP3 ADD MSTORE PUSH32 0x4F6E6C79206F776E65722063616E20736574206F776E65720000000000000000 PUSH1 0x44 DUP3 ADD MSTORE PUSH1 0x64 ADD JUMPDEST PUSH1 0x40 MLOAD DUP1 SWAP2 SUB SWAP1 REVERT JUMPDEST PUSH1 0x0 DUP1 SLOAD PUSH1 0x1 PUSH1 0x1 PUSH1 0xA0 SHL SUB NOT AND PUSH1 0x1 PUSH1 0x1 PUSH1 0xA0 SHL SUB SWAP3 SWAP1 SWAP3 AND SWAP2 SWAP1 SWAP2 OR SWAP1 SSTORE JUMP JUMPDEST PUSH1 0x0 SLOAD PUSH1 0x1 PUSH1 0x1 PUSH1 0xA0 SHL SUB AND CALLER EQ PUSH2 0x5DF JUMPI PUSH1 0x40 MLOAD PUSH3 0x461BCD PUSH1 0xE5 SHL DUP2 MSTORE PUSH1 0x20 PUSH1 0x4 DUP3 ADD MSTORE PUSH1 0x22 PUSH1 0x24 DUP3 ADD MSTORE PUSH32 0x4F6E6C79206F776E65722063616E2073657420636F6E74726163742063616C6C PUSH1 0x44 DUP3 ADD MSTORE PUSH2 0x32B9 PUSH1 0xF1 SHL PUSH1 0x64 DUP3 ADD MSTORE PUSH1 0x84 ADD PUSH2 0x54F JUMP JUMPDEST PUSH1 0x1 PUSH1 0x1 PUSH1 0xA0 SHL SUB AND PUSH1 0x0 SWAP1 DUP2 MSTORE PUSH1 0x6 PUSH1 0x20 MSTORE PUSH1 0x40 SWAP1 KECCAK256 DUP1 SLOAD PUSH1 0xFF NOT AND PUSH1 0x1 OR SWAP1 SSTORE JUMP JUMPDEST CALLER PUSH1 0x0 SWAP1 DUP2 MSTORE PUSH1 0x6 PUSH1 0x20 MSTORE PUSH1 0x40 SWAP1 KECCAK256 SLOAD PUSH1 0xFF AND PUSH2 0x662 JUMPI PUSH1 0x40 MLOAD PUSH3 0x461BCD PUSH1 0xE5 SHL DUP2 MSTORE PUSH1 0x20 PUSH1 0x4 DUP3 ADD MSTORE PUSH1 0x18 PUSH1 0x24 DUP3 ADD MSTORE PUSH32 0x4F6E6C79206F776E65722063616E206564697420746F6F6C0000000000000000 PUSH1 0x44 DUP3 ADD MSTORE PUSH1 0x64 ADD PUSH2 0x54F JUMP JUMPDEST PUSH1 0x0 SWAP2 DUP3 MSTORE PUSH1 0x2 PUSH1 0x20 SWAP1 DUP2 MSTORE PUSH1 0x40 SWAP3 DUP4 SWAP1 KECCAK256 DUP3 MLOAD DUP2 SLOAD SWAP3 DUP5 ADD MLOAD SWAP5 DUP5 ADD MLOAD PUSH1 0x60 DUP6 ADD MLOAD PUSH4 0xFFFFFFFF AND PUSH1 0x1 PUSH1 0x30 SHL MUL PUSH4 0xFFFFFFFF PUSH1 0x30 SHL NOT PUSH2 0xFFFF SWAP3 DUP4 AND PUSH5 0x100000000 MUL AND PUSH10 0xFFFFFFFFFFFF00000000 NOT SWAP8 DUP4 AND PUSH3 0x10000 MUL PUSH4 0xFFFFFFFF NOT SWAP1 SWAP7 AND SWAP3 SWAP1 SWAP4 AND SWAP2 SWAP1 SWAP2 OR SWAP4 SWAP1 SWAP4 OR SWAP5 SWAP1 SWAP5 AND SWAP4 SWAP1 SWAP4 OR OR DUP3 SSTORE PUSH1 0x80 ADD MLOAD PUSH1 0x1 SWAP1 SWAP2 ADD SSTORE JUMP JUMPDEST PUSH2 0x70C PUSH1 0x40 MLOAD DUP1 PUSH1 0x60 ADD PUSH1 0x40 MSTORE DUP1 PUSH1 0x0 DUP2 MSTORE PUSH1 0x20 ADD PUSH1 0x0 DUP2 MSTORE PUSH1 0x20 ADD PUSH1 0x0 DUP2 MSTORE POP SWAP1 JUMP JUMPDEST POP PUSH1 0x1 PUSH1 0x1 PUSH1 0xA0 SHL SUB DUP3 AND PUSH1 0x0 SWAP1 DUP2 MSTORE PUSH1 0x4 PUSH1 0x20 SWAP1 DUP2 MSTORE PUSH1 0x40 DUP1 DUP4 KECCAK256 DUP5 DUP5 MSTORE DUP3 MSTORE SWAP2 DUP3 SWAP1 KECCAK256 DUP3 MLOAD PUSH1 0x60 DUP2 ADD DUP5 MSTORE DUP2 SLOAD DUP2 MSTORE PUSH1 0x1 DUP3 ADD SLOAD SWAP3 DUP2 ADD SWAP3 SWAP1 SWAP3 MSTORE PUSH1 0x2 ADD SLOAD SWAP2 DUP2 ADD SWAP2 SWAP1 SWAP2 MSTORE JUMPDEST SWAP3 SWAP2 POP POP JUMP JUMPDEST CALLER PUSH1 0x0 SWAP1 DUP2 MSTORE PUSH1 0x6 PUSH1 0x20 MSTORE PUSH1 0x40 SWAP1 KECCAK256 SLOAD PUSH1 0xFF AND PUSH2 0x7BA JUMPI PUSH1 0x40 MLOAD PUSH3 0x461BCD PUSH1 0xE5 SHL DUP2 MSTORE PUSH1 0x20 PUSH1 0x4 DUP3 ADD MSTORE PUSH1 0x1D PUSH1 0x24 DUP3 ADD MSTORE PUSH32 0x4F6E6C79206F776E65722063616E2065646974207573657220746F6F6C000000 PUSH1 0x44 DUP3 ADD MSTORE PUSH1 0x64 ADD PUSH2 0x54F JUMP JUMPDEST PUSH1 0x40 DUP1 MLOAD PUSH1 0x60 DUP2 ADD DUP3 MSTORE SWAP4 DUP5 MSTORE PUSH1 0x20 DUP1 DUP6 ADD SWAP4 DUP5 MSTORE DUP5 DUP3 ADD SWAP3 DUP4 MSTORE PUSH1 0x1 PUSH1 0x1 PUSH1 0xA0 SHL SUB SWAP1 SWAP7 AND PUSH1 0x0 SWAP1 DUP2 MSTORE PUSH1 0x4 DUP8 MSTORE DUP2 DUP2 KECCAK256 SWAP6 DUP2 MSTORE SWAP5 SWAP1 SWAP6 MSTORE SWAP4 SWAP1 SWAP3 KECCAK256 SWAP1 MLOAD DUP2 SSTORE SWAP1 MLOAD PUSH1 0x1 DUP3 ADD SSTORE SWAP1 MLOAD PUSH1 0x2 SWAP1 SWAP2 ADD SSTORE JUMP JUMPDEST CALLER PUSH1 0x0 SWAP1 DUP2 MSTORE PUSH1 0x6 PUSH1 0x20 MSTORE PUSH1 0x40 SWAP1 KECCAK256 SLOAD PUSH1 0xFF AND PUSH2 0x86B JUMPI PUSH1 0x40 MLOAD PUSH3 0x461BCD PUSH1 0xE5 SHL DUP2 MSTORE PUSH1 0x20 PUSH1 0x4 DUP3 ADD MSTORE PUSH1 0x1C PUSH1 0x24 DUP3 ADD MSTORE PUSH32 0x4F6E6C79206F776E65722063616E20616464207573657220746F6F6C00000000 PUSH1 0x44 DUP3 ADD MSTORE PUSH1 0x64 ADD PUSH2 0x54F JUMP JUMPDEST PUSH1 0x1 PUSH1 0x1 PUSH1 0xA0 SHL SUB DUP3 AND PUSH1 0x0 DUP2 DUP2 MSTORE PUSH1 0x5 PUSH1 0x20 DUP2 DUP2 MSTORE PUSH1 0x40 DUP1 DUP5 KECCAK256 DUP1 SLOAD DUP3 MLOAD PUSH1 0x60 DUP2 ADD DUP5 MSTORE DUP9 DUP2 MSTORE DUP9 DUP8 MSTORE PUSH1 0x2 DUP1 DUP7 MSTORE DUP5 DUP9 KECCAK256 SLOAD PUSH3 0x10000 SWAP1 DIV PUSH2 0xFFFF AND DUP3 DUP8 ADD SWAP1 DUP2 MSTORE TIMESTAMP DUP4 DUP8 ADD SWAP1 DUP2 MSTORE DUP11 DUP11 MSTORE PUSH1 0x4 DUP9 MSTORE DUP7 DUP11 KECCAK256 DUP6 DUP12 MSTORE DUP9 MSTORE SWAP6 DUP10 KECCAK256 SWAP3 MLOAD DUP4 SSTORE MLOAD PUSH1 0x1 DUP4 ADD SSTORE SWAP4 MLOAD SWAP4 ADD SWAP3 SWAP1 SWAP3 SSTORE SWAP5 DUP5 MSTORE SWAP2 SWAP1 MSTORE DUP3 SLOAD SWAP1 SWAP3 SWAP1 SWAP2 PUSH2 0x8EF DUP4 PUSH2 0x11F2 JUMP JUMPDEST SWAP2 SWAP1 POP SSTORE POP POP POP POP JUMP JUMPDEST CALLER PUSH1 0x0 SWAP1 DUP2 MSTORE PUSH1 0x6 PUSH1 0x20 MSTORE PUSH1 0x40 SWAP1 KECCAK256 SLOAD PUSH1 0xFF AND PUSH2 0x958 JUMPI PUSH1 0x40 MLOAD PUSH3 0x461BCD PUSH1 0xE5 SHL DUP2 MSTORE PUSH1 0x20 PUSH1 0x4 DUP3 ADD MSTORE PUSH1 0x18 PUSH1 0x24 DUP3 ADD MSTORE PUSH32 0x4F6E6C79206F776E65722063616E2061646420746F6F6C730000000000000000 PUSH1 0x44 DUP3 ADD MSTORE PUSH1 0x64 ADD PUSH2 0x54F JUMP JUMPDEST DUP2 MLOAD DUP4 MLOAD EQ DUP1 ISZERO PUSH2 0x96A JUMPI POP DUP1 MLOAD DUP3 MLOAD EQ JUMPDEST PUSH2 0x9AF JUMPI PUSH1 0x40 MLOAD PUSH3 0x461BCD PUSH1 0xE5 SHL DUP2 MSTORE PUSH1 0x20 PUSH1 0x4 DUP3 ADD MSTORE PUSH1 0x16 PUSH1 0x24 DUP3 ADD MSTORE PUSH22 0x82E4E4C2F2E640D8CADCCEE8D040DAD2E6DAC2E8C6D PUSH1 0x53 SHL PUSH1 0x44 DUP3 ADD MSTORE PUSH1 0x64 ADD PUSH2 0x54F JUMP JUMPDEST PUSH1 0x0 JUMPDEST DUP4 MLOAD DUP2 LT ISZERO PUSH2 0xAF5 JUMPI DUP3 DUP2 DUP2 MLOAD DUP2 LT PUSH2 0x9CD JUMPI PUSH2 0x9CD PUSH2 0x1219 JUMP JUMPDEST PUSH1 0x20 MUL PUSH1 0x20 ADD ADD MLOAD PUSH1 0x2 PUSH1 0x0 DUP7 DUP5 DUP2 MLOAD DUP2 LT PUSH2 0x9EB JUMPI PUSH2 0x9EB PUSH2 0x1219 JUMP JUMPDEST PUSH1 0x20 SWAP1 DUP2 MUL SWAP2 SWAP1 SWAP2 ADD DUP2 ADD MLOAD DUP3 MSTORE DUP2 DUP2 ADD SWAP3 SWAP1 SWAP3 MSTORE PUSH1 0x40 SWAP1 DUP2 ADD PUSH1 0x0 KECCAK256 DUP4 MLOAD DUP2 SLOAD SWAP4 DUP6 ADD MLOAD SWAP3 DUP6 ADD MLOAD PUSH1 0x60 DUP7 ADD MLOAD PUSH4 0xFFFFFFFF AND PUSH1 0x1 PUSH1 0x30 SHL MUL PUSH4 0xFFFFFFFF PUSH1 0x30 SHL NOT PUSH2 0xFFFF SWAP3 DUP4 AND PUSH5 0x100000000 MUL AND PUSH10 0xFFFFFFFFFFFF00000000 NOT SWAP6 DUP4 AND PUSH3 0x10000 MUL PUSH4 0xFFFFFFFF NOT SWAP1 SWAP8 AND SWAP3 SWAP1 SWAP4 AND SWAP2 SWAP1 SWAP2 OR SWAP5 SWAP1 SWAP5 OR SWAP3 SWAP1 SWAP3 AND SWAP2 SWAP1 SWAP2 OR SWAP2 SWAP1 SWAP2 OR DUP2 SSTORE PUSH1 0x80 SWAP1 SWAP2 ADD MLOAD PUSH1 0x1 SWAP1 SWAP2 ADD SSTORE DUP2 MLOAD DUP3 SWAP1 DUP3 SWAP1 DUP2 LT PUSH2 0xA93 JUMPI PUSH2 0xA93 PUSH2 0x1219 JUMP JUMPDEST PUSH1 0x20 MUL PUSH1 0x20 ADD ADD MLOAD PUSH1 0x3 PUSH1 0x0 DUP7 DUP5 DUP2 MLOAD DUP2 LT PUSH2 0xAB1 JUMPI PUSH2 0xAB1 PUSH2 0x1219 JUMP JUMPDEST PUSH1 0x20 MUL PUSH1 0x20 ADD ADD MLOAD DUP2 MSTORE PUSH1 0x20 ADD SWAP1 DUP2 MSTORE PUSH1 0x20 ADD PUSH1 0x0 KECCAK256 PUSH1 0x0 DUP3 ADD MLOAD DUP2 PUSH1 0x0 ADD SSTORE PUSH1 0x20 DUP3 ADD MLOAD DUP2 PUSH1 0x1 ADD SSTORE PUSH1 0x40 DUP3 ADD MLOAD DUP2 PUSH1 0x2 ADD SSTORE SWAP1 POP POP DUP1 DUP1 PUSH1 0x1 ADD SWAP2 POP POP PUSH2 0x9B2 JUMP JUMPDEST POP POP POP POP JUMP JUMPDEST CALLER PUSH1 0x0 SWAP1 DUP2 MSTORE PUSH1 0x6 PUSH1 0x20 MSTORE PUSH1 0x40 SWAP1 KECCAK256 SLOAD PUSH1 0xFF AND PUSH2 0xB5A JUMPI PUSH1 0x40 MLOAD PUSH3 0x461BCD PUSH1 0xE5 SHL DUP2 MSTORE PUSH1 0x20 PUSH1 0x4 DUP3 ADD MSTORE PUSH1 0x17 PUSH1 0x24 DUP3 ADD MSTORE PUSH32 0x4F6E6C79206F776E65722063616E2061646420746F6F6C000000000000000000 PUSH1 0x44 DUP3 ADD MSTORE PUSH1 0x64 ADD PUSH2 0x54F JUMP JUMPDEST PUSH1 0x0 SWAP3 DUP4 MSTORE PUSH1 0x2 PUSH1 0x20 DUP2 DUP2 MSTORE PUSH1 0x40 DUP1 DUP7 KECCAK256 DUP6 MLOAD DUP2 SLOAD DUP5 DUP9 ADD MLOAD DUP5 DUP10 ADD MLOAD PUSH1 0x60 DUP11 ADD MLOAD PUSH4 0xFFFFFFFF AND PUSH1 0x1 PUSH1 0x30 SHL MUL PUSH4 0xFFFFFFFF PUSH1 0x30 SHL NOT PUSH2 0xFFFF SWAP3 DUP4 AND PUSH5 0x100000000 MUL AND PUSH10 0xFFFFFFFFFFFF00000000 NOT SWAP4 DUP4 AND PUSH3 0x10000 MUL PUSH4 0xFFFFFFFF NOT SWAP1 SWAP6 AND SWAP3 SWAP1 SWAP6 AND SWAP2 SWAP1 SWAP2 OR SWAP3 SWAP1 SWAP3 OR AND SWAP2 SWAP1 SWAP2 OR OR DUP2 SSTORE PUSH1 0x80 SWAP1 SWAP6 ADD MLOAD PUSH1 0x1 SWAP6 DUP7 ADD SSTORE PUSH1 0x3 DUP3 MSTORE SWAP5 DUP6 SWAP1 KECCAK256 DUP4 MLOAD DUP2 SSTORE SWAP1 DUP4 ADD MLOAD SWAP4 DUP2 ADD SWAP4 SWAP1 SWAP4 SSTORE SWAP3 ADD MLOAD SWAP2 ADD SSTORE JUMP JUMPDEST PUSH1 0x1 PUSH1 0x1 PUSH1 0xA0 SHL SUB DUP2 AND PUSH1 0x0 SWAP1 DUP2 MSTORE PUSH1 0x5 PUSH1 0x20 MSTORE PUSH1 0x40 DUP2 KECCAK256 SLOAD PUSH1 0x60 SWAP2 DUP2 PUSH8 0xFFFFFFFFFFFFFFFF DUP2 GT ISZERO PUSH2 0xC30 JUMPI PUSH2 0xC30 PUSH2 0xD60 JUMP JUMPDEST PUSH1 0x40 MLOAD SWAP1 DUP1 DUP3 MSTORE DUP1 PUSH1 0x20 MUL PUSH1 0x20 ADD DUP3 ADD PUSH1 0x40 MSTORE DUP1 ISZERO PUSH2 0xC85 JUMPI DUP2 PUSH1 0x20 ADD JUMPDEST PUSH2 0xC72 PUSH1 0x40 MLOAD DUP1 PUSH1 0x60 ADD PUSH1 0x40 MSTORE DUP1 PUSH1 0x0 DUP2 MSTORE PUSH1 0x20 ADD PUSH1 0x0 DUP2 MSTORE PUSH1 0x20 ADD PUSH1 0x0 DUP2 MSTORE POP SWAP1 JUMP JUMPDEST DUP2 MSTORE PUSH1 0x20 ADD SWAP1 PUSH1 0x1 SWAP1 SUB SWAP1 DUP2 PUSH2 0xC4E JUMPI SWAP1 POP JUMPDEST POP SWAP1 POP PUSH1 0x0 JUMPDEST DUP3 DUP2 LT ISZERO PUSH2 0xD01 JUMPI PUSH1 0x1 PUSH1 0x1 PUSH1 0xA0 SHL SUB DUP6 AND PUSH1 0x0 SWAP1 DUP2 MSTORE PUSH1 0x4 PUSH1 0x20 SWAP1 DUP2 MSTORE PUSH1 0x40 DUP1 DUP4 KECCAK256 DUP5 DUP5 MSTORE DUP3 MSTORE SWAP2 DUP3 SWAP1 KECCAK256 DUP3 MLOAD PUSH1 0x60 DUP2 ADD DUP5 MSTORE DUP2 SLOAD DUP2 MSTORE PUSH1 0x1 DUP3 ADD SLOAD SWAP3 DUP2 ADD SWAP3 SWAP1 SWAP3 MSTORE PUSH1 0x2 ADD SLOAD SWAP2 DUP2 ADD SWAP2 SWAP1 SWAP2 MSTORE DUP3 MLOAD DUP4 SWAP1 DUP4 SWAP1 DUP2 LT PUSH2 0xCEE JUMPI PUSH2 0xCEE PUSH2 0x1219 JUMP JUMPDEST PUSH1 0x20 SWAP1 DUP2 MUL SWAP2 SWAP1 SWAP2 ADD ADD MSTORE PUSH1 0x1 ADD PUSH2 0xC8B JUMP JUMPDEST POP SWAP4 SWAP3 POP POP POP JUMP JUMPDEST DUP1 CALLDATALOAD PUSH1 0x1 PUSH1 0x1 PUSH1 0xA0 SHL SUB DUP2 AND DUP2 EQ PUSH2 0xD20 JUMPI PUSH1 0x0 DUP1 REVERT JUMPDEST SWAP2 SWAP1 POP JUMP JUMPDEST PUSH1 0x0 PUSH1 0x20 DUP3 DUP5 SUB SLT ISZERO PUSH2 0xD37 JUMPI PUSH1 0x0 DUP1 REVERT JUMPDEST PUSH2 0xD40 DUP3 PUSH2 0xD09 JUMP JUMPDEST SWAP4 SWAP3 POP POP POP JUMP JUMPDEST PUSH1 0x0 PUSH1 0x20 DUP3 DUP5 SUB SLT ISZERO PUSH2 0xD59 JUMPI PUSH1 0x0 DUP1 REVERT JUMPDEST POP CALLDATALOAD SWAP2 SWAP1 POP JUMP JUMPDEST PUSH4 0x4E487B71 PUSH1 0xE0 SHL PUSH1 0x0 MSTORE PUSH1 0x41 PUSH1 0x4 MSTORE PUSH1 0x24 PUSH1 0x0 REVERT JUMPDEST PUSH1 0x40 MLOAD PUSH1 0x1F DUP3 ADD PUSH1 0x1F NOT AND DUP2 ADD PUSH8 0xFFFFFFFFFFFFFFFF DUP2 GT DUP3 DUP3 LT OR ISZERO PUSH2 0xD9F JUMPI PUSH2 0xD9F PUSH2 0xD60 JUMP JUMPDEST PUSH1 0x40 MSTORE SWAP2 SWAP1 POP JUMP JUMPDEST DUP1 CALLDATALOAD PUSH2 0xFFFF DUP2 AND DUP2 EQ PUSH2 0xD20 JUMPI PUSH1 0x0 DUP1 REVERT JUMPDEST PUSH1 0x0 PUSH1 0xA0 DUP3 DUP5 SUB SLT ISZERO PUSH2 0xDCB JUMPI PUSH1 0x0 DUP1 REVERT JUMPDEST PUSH1 0x40 MLOAD PUSH1 0xA0 DUP2 ADD PUSH8 0xFFFFFFFFFFFFFFFF DUP2 GT DUP3 DUP3 LT OR ISZERO PUSH2 0xDEE JUMPI PUSH2 0xDEE PUSH2 0xD60 JUMP JUMPDEST PUSH1 0x40 MSTORE SWAP1 POP DUP1 PUSH2 0xDFD DUP4 PUSH2 0xDA7 JUMP JUMPDEST DUP2 MSTORE PUSH2 0xE0B PUSH1 0x20 DUP5 ADD PUSH2 0xDA7 JUMP JUMPDEST PUSH1 0x20 DUP3 ADD MSTORE PUSH2 0xE1C PUSH1 0x40 DUP5 ADD PUSH2 0xDA7 JUMP JUMPDEST PUSH1 0x40 DUP3 ADD MSTORE PUSH1 0x60 DUP4 ADD CALLDATALOAD PUSH4 0xFFFFFFFF DUP2 AND DUP2 EQ PUSH2 0xE38 JUMPI PUSH1 0x0 DUP1 REVERT JUMPDEST PUSH1 0x60 DUP3 ADD MSTORE PUSH1 0x80 SWAP3 DUP4 ADD CALLDATALOAD SWAP3 ADD SWAP2 SWAP1 SWAP2 MSTORE SWAP2 SWAP1 POP JUMP JUMPDEST PUSH1 0x0 DUP1 PUSH1 0xC0 DUP4 DUP6 SUB SLT ISZERO PUSH2 0xE61 JUMPI PUSH1 0x0 DUP1 REVERT JUMPDEST DUP3 CALLDATALOAD SWAP2 POP PUSH2 0xE72 DUP5 PUSH1 0x20 DUP6 ADD PUSH2 0xDB9 JUMP JUMPDEST SWAP1 POP SWAP3 POP SWAP3 SWAP1 POP JUMP JUMPDEST PUSH1 0x0 DUP1 PUSH1 0x40 DUP4 DUP6 SUB SLT ISZERO PUSH2 0xE8E JUMPI PUSH1 0x0 DUP1 REVERT JUMPDEST PUSH2 0xE97 DUP4 PUSH2 0xD09 JUMP JUMPDEST SWAP5 PUSH1 0x20 SWAP4 SWAP1 SWAP4 ADD CALLDATALOAD SWAP4 POP POP POP JUMP JUMPDEST DUP2 MLOAD DUP2 MSTORE PUSH1 0x20 DUP1 DUP4 ADD MLOAD SWAP1 DUP3 ADD MSTORE PUSH1 0x40 DUP1 DUP4 ADD MLOAD SWAP1 DUP3 ADD MSTORE PUSH1 0x60 DUP2 ADD PUSH2 0x755 JUMP JUMPDEST PUSH1 0x0 DUP1 PUSH1 0x0 DUP1 PUSH1 0x0 PUSH1 0xA0 DUP7 DUP9 SUB SLT ISZERO PUSH2 0xEDE JUMPI PUSH1 0x0 DUP1 REVERT JUMPDEST PUSH2 0xEE7 DUP7 PUSH2 0xD09 JUMP JUMPDEST SWAP8 PUSH1 0x20 DUP8 ADD CALLDATALOAD SWAP8 POP PUSH1 0x40 DUP8 ADD CALLDATALOAD SWAP7 PUSH1 0x60 DUP2 ADD CALLDATALOAD SWAP7 POP PUSH1 0x80 ADD CALLDATALOAD SWAP5 POP SWAP3 POP POP POP JUMP JUMPDEST PUSH1 0x0 PUSH8 0xFFFFFFFFFFFFFFFF DUP3 GT ISZERO PUSH2 0xF22 JUMPI PUSH2 0xF22 PUSH2 0xD60 JUMP JUMPDEST POP PUSH1 0x5 SHL PUSH1 0x20 ADD SWAP1 JUMP JUMPDEST PUSH1 0x0 DUP3 PUSH1 0x1F DUP4 ADD SLT PUSH2 0xF3D JUMPI PUSH1 0x0 DUP1 REVERT JUMPDEST DUP2 CALLDATALOAD PUSH2 0xF50 PUSH2 0xF4B DUP3 PUSH2 0xF08 JUMP JUMPDEST PUSH2 0xD76 JUMP JUMPDEST DUP1 DUP3 DUP3 MSTORE PUSH1 0x20 DUP3 ADD SWAP2 POP PUSH1 0x20 PUSH1 0xA0 DUP5 MUL DUP7 ADD ADD SWAP3 POP DUP6 DUP4 GT ISZERO PUSH2 0xF72 JUMPI PUSH1 0x0 DUP1 REVERT JUMPDEST PUSH1 0x20 DUP6 ADD JUMPDEST DUP4 DUP2 LT ISZERO PUSH2 0xF99 JUMPI PUSH2 0xF89 DUP8 DUP3 PUSH2 0xDB9 JUMP JUMPDEST DUP4 MSTORE PUSH1 0x20 SWAP1 SWAP3 ADD SWAP2 PUSH1 0xA0 ADD PUSH2 0xF77 JUMP JUMPDEST POP SWAP6 SWAP5 POP POP POP POP POP JUMP JUMPDEST PUSH1 0x0 PUSH1 0x60 DUP3 DUP5 SUB SLT ISZERO PUSH2 0xFB5 JUMPI PUSH1 0x0 DUP1 REVERT JUMPDEST PUSH1 0x40 MLOAD PUSH1 0x60 DUP2 ADD PUSH8 0xFFFFFFFFFFFFFFFF DUP2 GT DUP3 DUP3 LT OR ISZERO PUSH2 0xFD8 JUMPI PUSH2 0xFD8 PUSH2 0xD60 JUMP JUMPDEST PUSH1 0x40 SWAP1 DUP2 MSTORE DUP4 CALLDATALOAD DUP3 MSTORE PUSH1 0x20 DUP1 DUP6 ADD CALLDATALOAD SWAP1 DUP4 ADD MSTORE SWAP3 DUP4 ADD CALLDATALOAD SWAP3 DUP2 ADD SWAP3 SWAP1 SWAP3 MSTORE POP SWAP2 SWAP1 POP JUMP JUMPDEST PUSH1 0x0 DUP3 PUSH1 0x1F DUP4 ADD SLT PUSH2 0x100D JUMPI PUSH1 0x0 DUP1 REVERT JUMPDEST DUP2 CALLDATALOAD PUSH2 0x101B PUSH2 0xF4B DUP3 PUSH2 0xF08 JUMP JUMPDEST DUP1 DUP3 DUP3 MSTORE PUSH1 0x20 DUP3 ADD SWAP2 POP PUSH1 0x20 PUSH1 0x60 DUP5 MUL DUP7 ADD ADD SWAP3 POP DUP6 DUP4 GT ISZERO PUSH2 0x103D JUMPI PUSH1 0x0 DUP1 REVERT JUMPDEST PUSH1 0x20 DUP6 ADD JUMPDEST DUP4 DUP2 LT ISZERO PUSH2 0xF99 JUMPI PUSH2 0x1054 DUP8 DUP3 PUSH2 0xFA3 JUMP JUMPDEST DUP4 MSTORE PUSH1 0x20 SWAP1 SWAP3 ADD SWAP2 PUSH1 0x60 ADD PUSH2 0x1042 JUMP JUMPDEST PUSH1 0x0 DUP1 PUSH1 0x0 PUSH1 0x60 DUP5 DUP7 SUB SLT ISZERO PUSH2 0x1079 JUMPI PUSH1 0x0 DUP1 REVERT JUMPDEST DUP4 CALLDATALOAD PUSH8 0xFFFFFFFFFFFFFFFF DUP2 GT ISZERO PUSH2 0x1090 JUMPI PUSH1 0x0 DUP1 REVERT JUMPDEST DUP5 ADD PUSH1 0x1F DUP2 ADD DUP7 SGT PUSH2 0x10A1 JUMPI PUSH1 0x0 DUP1 REVERT JUMPDEST DUP1 CALLDATALOAD PUSH2 0x10AF PUSH2 0xF4B DUP3 PUSH2 0xF08 JUMP JUMPDEST DUP1 DUP3 DUP3 MSTORE PUSH1 0x20 DUP3 ADD SWAP2 POP PUSH1 0x20 DUP4 PUSH1 0x5 SHL DUP6 ADD ADD SWAP3 POP DUP9 DUP4 GT ISZERO PUSH2 0x10D1 JUMPI PUSH1 0x0 DUP1 REVERT JUMPDEST PUSH1 0x20 DUP5 ADD SWAP4 POP JUMPDEST DUP3 DUP5 LT ISZERO PUSH2 0x10F3 JUMPI DUP4 CALLDATALOAD DUP3 MSTORE PUSH1 0x20 SWAP4 DUP5 ADD SWAP4 SWAP1 SWAP2 ADD SWAP1 PUSH2 0x10D8 JUMP JUMPDEST SWAP6 POP POP POP POP PUSH1 0x20 DUP5 ADD CALLDATALOAD PUSH8 0xFFFFFFFFFFFFFFFF DUP2 GT ISZERO PUSH2 0x1112 JUMPI PUSH1 0x0 DUP1 REVERT JUMPDEST PUSH2 0x111E DUP7 DUP3 DUP8 ADD PUSH2 0xF2C JUMP JUMPDEST SWAP3 POP POP PUSH1 0x40 DUP5 ADD CALLDATALOAD PUSH8 0xFFFFFFFFFFFFFFFF DUP2 GT ISZERO PUSH2 0x113B JUMPI PUSH1 0x0 DUP1 REVERT JUMPDEST PUSH2 0x1147 DUP7 DUP3 DUP8 ADD PUSH2 0xFFC JUMP JUMPDEST SWAP2 POP POP SWAP3 POP SWAP3 POP SWAP3 JUMP JUMPDEST PUSH1 0x0 DUP1 PUSH1 0x0 PUSH2 0x120 DUP5 DUP7 SUB SLT ISZERO PUSH2 0x1167 JUMPI PUSH1 0x0 DUP1 REVERT JUMPDEST DUP4 CALLDATALOAD SWAP3 POP PUSH2 0x1178 DUP6 PUSH1 0x20 DUP7 ADD PUSH2 0xDB9 JUMP JUMPDEST SWAP2 POP PUSH2 0x1187 DUP6 PUSH1 0xC0 DUP7 ADD PUSH2 0xFA3 JUMP JUMPDEST SWAP1 POP SWAP3 POP SWAP3 POP SWAP3 JUMP JUMPDEST PUSH1 0x20 DUP1 DUP3 MSTORE DUP3 MLOAD DUP3 DUP3 ADD DUP2 SWAP1 MSTORE PUSH1 0x0 SWAP2 DUP5 ADD SWAP1 PUSH1 0x40 DUP5 ADD SWAP1 DUP4 JUMPDEST DUP2 DUP2 LT ISZERO PUSH2 0x11E7 JUMPI PUSH2 0x11D1 DUP4 DUP6 MLOAD DUP1 MLOAD DUP3 MSTORE PUSH1 0x20 DUP1 DUP3 ADD MLOAD SWAP1 DUP4 ADD MSTORE PUSH1 0x40 SWAP1 DUP2 ADD MLOAD SWAP2 ADD MSTORE JUMP JUMPDEST PUSH1 0x20 SWAP4 SWAP1 SWAP4 ADD SWAP3 PUSH1 0x60 SWAP3 SWAP1 SWAP3 ADD SWAP2 PUSH1 0x1 ADD PUSH2 0x11AA JUMP JUMPDEST POP SWAP1 SWAP6 SWAP5 POP POP POP POP POP JUMP JUMPDEST PUSH1 0x0 PUSH1 0x1 DUP3 ADD PUSH2 0x1212 JUMPI PUSH4 0x4E487B71 PUSH1 0xE0 SHL PUSH1 0x0 MSTORE PUSH1 0x11 PUSH1 0x4 MSTORE PUSH1 0x24 PUSH1 0x0 REVERT JUMPDEST POP PUSH1 0x1 ADD SWAP1 JUMP JUMPDEST PUSH4 0x4E487B71 PUSH1 0xE0 SHL PUSH1 0x0 MSTORE PUSH1 0x32 PUSH1 0x4 MSTORE PUSH1 0x24 PUSH1 0x0 REVERT INVALID LOG2 PUSH5 0x6970667358 0x22 SLT KECCAK256 COINBASE JUMPDEST 0xAB BLOBBASEFEE 0xBC PUSH6 0xBF496ABD163E OR BLOBHASH RETURN SWAP9 PUSH17 0xBF1AC270FBA6FF00FE0A4561796EE46473 PUSH16 0x6C634300081C00330000000000000000 "
        },
        "methodIdentifiers": {
          "RewardToken()": "f1e9f1e5",
          "addTool(uint256,(uint16,uint16,uint16,uint32,uint256),(uint256,uint256,uint256))": "83ec2e90",
          "addTools(uint256[],(uint16,uint16,uint16,uint32,uint256)[],(uint256,uint256,uint256)[])": "6be1e0d6",
          "addUserTool(address,uint256)": "62bc2275",
          "contractCallers(address)": "856a8ace",
          "editTool(uint256,(uint16,uint16,uint16,uint32,uint256))": "31a27c12",
          "editUserTool(address,uint256,uint256,uint256,uint256)": "609738a7",
          "getAllUserTools(address)": "91ff75a9",
          "getTool(uint256)": "d285af53",
          "getToolCost(uint256)": "6694a244",
          "getTotalUserTools(address)": "76784f97",
          "getUserTool(address,uint256)": "4631c878",
          "owner()": "8da5cb5b",
          "setContractCaller(address)": "2a94a9c8",
          "setOwner(address)": "13af4035",
          "toolCost(uint256)": "2a24b509",
          "tools(uint256)": "bc60c31d",
          "totalUserTools(address)": "a6352d14",
          "userTools(address,uint256)": "acd50aa1"
        }
      }
    }
  }
}